{
  "_format": "hh-sol-artifact-1",
  "contractName": "CronaBar",
  "sourceName": "contracts/staking/CronaBar.sol",
  "abi": [
    {
      "inputs": [
        {
          "internalType": "contract CronaToken",
          "name": "_crona",
          "type": "address"
        }
      ],
      "stateMutability": "nonpayable",
      "type": "constructor"
    },
    {
      "anonymous": false,
      "inputs": [
        {
          "indexed": true,
          "internalType": "address",
          "name": "owner",
          "type": "address"
        },
        {
          "indexed": true,
          "internalType": "address",
          "name": "spender",
          "type": "address"
        },
        {
          "indexed": false,
          "internalType": "uint256",
          "name": "value",
          "type": "uint256"
        }
      ],
      "name": "Approval",
      "type": "event"
    },
    {
      "anonymous": false,
      "inputs": [
        {
          "indexed": true,
          "internalType": "address",
          "name": "delegator",
          "type": "address"
        },
        {
          "indexed": true,
          "internalType": "address",
          "name": "fromDelegate",
          "type": "address"
        },
        {
          "indexed": true,
          "internalType": "address",
          "name": "toDelegate",
          "type": "address"
        }
      ],
      "name": "DelegateChanged",
      "type": "event"
    },
    {
      "anonymous": false,
      "inputs": [
        {
          "indexed": true,
          "internalType": "address",
          "name": "delegate",
          "type": "address"
        },
        {
          "indexed": false,
          "internalType": "uint256",
          "name": "previousBalance",
          "type": "uint256"
        },
        {
          "indexed": false,
          "internalType": "uint256",
          "name": "newBalance",
          "type": "uint256"
        }
      ],
      "name": "DelegateVotesChanged",
      "type": "event"
    },
    {
      "anonymous": false,
      "inputs": [
        {
          "indexed": true,
          "internalType": "address",
          "name": "previousOwner",
          "type": "address"
        },
        {
          "indexed": true,
          "internalType": "address",
          "name": "newOwner",
          "type": "address"
        }
      ],
      "name": "OwnershipTransferred",
      "type": "event"
    },
    {
      "anonymous": false,
      "inputs": [
        {
          "indexed": true,
          "internalType": "address",
          "name": "from",
          "type": "address"
        },
        {
          "indexed": true,
          "internalType": "address",
          "name": "to",
          "type": "address"
        },
        {
          "indexed": false,
          "internalType": "uint256",
          "name": "value",
          "type": "uint256"
        }
      ],
      "name": "Transfer",
      "type": "event"
    },
    {
      "inputs": [],
      "name": "DELEGATION_TYPEHASH",
      "outputs": [
        {
          "internalType": "bytes32",
          "name": "",
          "type": "bytes32"
        }
      ],
      "stateMutability": "view",
      "type": "function"
    },
    {
      "inputs": [],
      "name": "DOMAIN_TYPEHASH",
      "outputs": [
        {
          "internalType": "bytes32",
          "name": "",
          "type": "bytes32"
        }
      ],
      "stateMutability": "view",
      "type": "function"
    },
    {
      "inputs": [
        {
          "internalType": "address",
          "name": "owner",
          "type": "address"
        },
        {
          "internalType": "address",
          "name": "spender",
          "type": "address"
        }
      ],
      "name": "allowance",
      "outputs": [
        {
          "internalType": "uint256",
          "name": "",
          "type": "uint256"
        }
      ],
      "stateMutability": "view",
      "type": "function"
    },
    {
      "inputs": [
        {
          "internalType": "address",
          "name": "spender",
          "type": "address"
        },
        {
          "internalType": "uint256",
          "name": "amount",
          "type": "uint256"
        }
      ],
      "name": "approve",
      "outputs": [
        {
          "internalType": "bool",
          "name": "",
          "type": "bool"
        }
      ],
      "stateMutability": "nonpayable",
      "type": "function"
    },
    {
      "inputs": [
        {
          "internalType": "address",
          "name": "account",
          "type": "address"
        }
      ],
      "name": "balanceOf",
      "outputs": [
        {
          "internalType": "uint256",
          "name": "",
          "type": "uint256"
        }
      ],
      "stateMutability": "view",
      "type": "function"
    },
    {
      "inputs": [
        {
          "internalType": "address",
          "name": "_from",
          "type": "address"
        },
        {
          "internalType": "uint256",
          "name": "_amount",
          "type": "uint256"
        }
      ],
      "name": "burn",
      "outputs": [],
      "stateMutability": "nonpayable",
      "type": "function"
    },
    {
      "inputs": [
        {
          "internalType": "address",
          "name": "",
          "type": "address"
        },
        {
          "internalType": "uint32",
          "name": "",
          "type": "uint32"
        }
      ],
      "name": "checkpoints",
      "outputs": [
        {
          "internalType": "uint32",
          "name": "fromBlock",
          "type": "uint32"
        },
        {
          "internalType": "uint256",
          "name": "votes",
          "type": "uint256"
        }
      ],
      "stateMutability": "view",
      "type": "function"
    },
    {
      "inputs": [],
      "name": "crona",
      "outputs": [
        {
          "internalType": "contract CronaToken",
          "name": "",
          "type": "address"
        }
      ],
      "stateMutability": "view",
      "type": "function"
    },
    {
      "inputs": [],
      "name": "decimals",
      "outputs": [
        {
          "internalType": "uint8",
          "name": "",
          "type": "uint8"
        }
      ],
      "stateMutability": "view",
      "type": "function"
    },
    {
      "inputs": [
        {
          "internalType": "address",
          "name": "spender",
          "type": "address"
        },
        {
          "internalType": "uint256",
          "name": "subtractedValue",
          "type": "uint256"
        }
      ],
      "name": "decreaseAllowance",
      "outputs": [
        {
          "internalType": "bool",
          "name": "",
          "type": "bool"
        }
      ],
      "stateMutability": "nonpayable",
      "type": "function"
    },
    {
      "inputs": [
        {
          "internalType": "address",
          "name": "delegatee",
          "type": "address"
        }
      ],
      "name": "delegate",
      "outputs": [],
      "stateMutability": "nonpayable",
      "type": "function"
    },
    {
      "inputs": [
        {
          "internalType": "address",
          "name": "delegatee",
          "type": "address"
        },
        {
          "internalType": "uint256",
          "name": "nonce",
          "type": "uint256"
        },
        {
          "internalType": "uint256",
          "name": "expiry",
          "type": "uint256"
        },
        {
          "internalType": "uint8",
          "name": "v",
          "type": "uint8"
        },
        {
          "internalType": "bytes32",
          "name": "r",
          "type": "bytes32"
        },
        {
          "internalType": "bytes32",
          "name": "s",
          "type": "bytes32"
        }
      ],
      "name": "delegateBySig",
      "outputs": [],
      "stateMutability": "nonpayable",
      "type": "function"
    },
    {
      "inputs": [
        {
          "internalType": "address",
          "name": "delegator",
          "type": "address"
        }
      ],
      "name": "delegates",
      "outputs": [
        {
          "internalType": "address",
          "name": "",
          "type": "address"
        }
      ],
      "stateMutability": "view",
      "type": "function"
    },
    {
      "inputs": [
        {
          "internalType": "address",
          "name": "account",
          "type": "address"
        }
      ],
      "name": "getCurrentVotes",
      "outputs": [
        {
          "internalType": "uint256",
          "name": "",
          "type": "uint256"
        }
      ],
      "stateMutability": "view",
      "type": "function"
    },
    {
      "inputs": [
        {
          "internalType": "address",
          "name": "account",
          "type": "address"
        },
        {
          "internalType": "uint256",
          "name": "blockNumber",
          "type": "uint256"
        }
      ],
      "name": "getPriorVotes",
      "outputs": [
        {
          "internalType": "uint256",
          "name": "",
          "type": "uint256"
        }
      ],
      "stateMutability": "view",
      "type": "function"
    },
    {
      "inputs": [
        {
          "internalType": "address",
          "name": "spender",
          "type": "address"
        },
        {
          "internalType": "uint256",
          "name": "addedValue",
          "type": "uint256"
        }
      ],
      "name": "increaseAllowance",
      "outputs": [
        {
          "internalType": "bool",
          "name": "",
          "type": "bool"
        }
      ],
      "stateMutability": "nonpayable",
      "type": "function"
    },
    {
      "inputs": [
        {
          "internalType": "address",
          "name": "_to",
          "type": "address"
        },
        {
          "internalType": "uint256",
          "name": "_amount",
          "type": "uint256"
        }
      ],
      "name": "mint",
      "outputs": [],
      "stateMutability": "nonpayable",
      "type": "function"
    },
    {
      "inputs": [],
      "name": "name",
      "outputs": [
        {
          "internalType": "string",
          "name": "",
          "type": "string"
        }
      ],
      "stateMutability": "view",
      "type": "function"
    },
    {
      "inputs": [
        {
          "internalType": "address",
          "name": "",
          "type": "address"
        }
      ],
      "name": "nonces",
      "outputs": [
        {
          "internalType": "uint256",
          "name": "",
          "type": "uint256"
        }
      ],
      "stateMutability": "view",
      "type": "function"
    },
    {
      "inputs": [
        {
          "internalType": "address",
          "name": "",
          "type": "address"
        }
      ],
      "name": "numCheckpoints",
      "outputs": [
        {
          "internalType": "uint32",
          "name": "",
          "type": "uint32"
        }
      ],
      "stateMutability": "view",
      "type": "function"
    },
    {
      "inputs": [],
      "name": "owner",
      "outputs": [
        {
          "internalType": "address",
          "name": "",
          "type": "address"
        }
      ],
      "stateMutability": "view",
      "type": "function"
    },
    {
      "inputs": [],
      "name": "renounceOwnership",
      "outputs": [],
      "stateMutability": "nonpayable",
      "type": "function"
    },
    {
      "inputs": [
        {
          "internalType": "address",
          "name": "_to",
          "type": "address"
        },
        {
          "internalType": "uint256",
          "name": "_amount",
          "type": "uint256"
        }
      ],
      "name": "safeCronaTransfer",
      "outputs": [],
      "stateMutability": "nonpayable",
      "type": "function"
    },
    {
      "inputs": [],
      "name": "symbol",
      "outputs": [
        {
          "internalType": "string",
          "name": "",
          "type": "string"
        }
      ],
      "stateMutability": "view",
      "type": "function"
    },
    {
      "inputs": [],
      "name": "totalSupply",
      "outputs": [
        {
          "internalType": "uint256",
          "name": "",
          "type": "uint256"
        }
      ],
      "stateMutability": "view",
      "type": "function"
    },
    {
      "inputs": [
        {
          "internalType": "address",
          "name": "recipient",
          "type": "address"
        },
        {
          "internalType": "uint256",
          "name": "amount",
          "type": "uint256"
        }
      ],
      "name": "transfer",
      "outputs": [
        {
          "internalType": "bool",
          "name": "",
          "type": "bool"
        }
      ],
      "stateMutability": "nonpayable",
      "type": "function"
    },
    {
      "inputs": [
        {
          "internalType": "address",
          "name": "sender",
          "type": "address"
        },
        {
          "internalType": "address",
          "name": "recipient",
          "type": "address"
        },
        {
          "internalType": "uint256",
          "name": "amount",
          "type": "uint256"
        }
      ],
      "name": "transferFrom",
      "outputs": [
        {
          "internalType": "bool",
          "name": "",
          "type": "bool"
        }
      ],
      "stateMutability": "nonpayable",
      "type": "function"
    },
    {
      "inputs": [
        {
          "internalType": "address",
          "name": "newOwner",
          "type": "address"
        }
      ],
      "name": "transferOwnership",
      "outputs": [],
      "stateMutability": "nonpayable",
      "type": "function"
    }
  ],
  "bytecode": "0x60806040523480156200001157600080fd5b506040516200217438038062002174833981810160405260208110156200003757600080fd5b5051604080518082018252600e81526d21b937b730a130b9102a37b5b2b760911b6020828101918252835180850190945260068452657843524f4e4160d01b9084015281519192916200008d916003916200013f565b508051620000a39060049060208401906200013f565b50506005805460ff19166012179055506000620000bf6200013b565b60058054610100600160a81b0319166101006001600160a01b03841690810291909117909155604051919250906000907f8be0079c531659141344cd1fd0a4f28419497f9722a3daafe3b4186f6b6457e0908290a350600680546001600160a01b0319166001600160a01b0392909216919091179055620001db565b3390565b828054600181600116156101000203166002900490600052602060002090601f016020900481019282601f106200018257805160ff1916838001178555620001b2565b82800160010185558215620001b2579182015b82811115620001b257825182559160200191906001019062000195565b50620001c0929150620001c4565b5090565b5b80821115620001c05760008155600101620001c5565b611f8980620001eb6000396000f3fe608060405234801561001057600080fd5b50600436106101c45760003560e01c8063715018a6116100f9578063a9059cbb11610097578063dd62ed3e11610071578063dd62ed3e146105b2578063e7a324dc146105e0578063f1127ed8146105e8578063f2fde38b1461063a576101c4565b8063a9059cbb14610519578063b4b5ea5714610545578063c3cda5201461056b576101c4565b80638da5cb5b116100d35780638da5cb5b146104b157806395d89b41146104b95780639dc29fac146104c1578063a457c2d7146104ed576101c4565b8063715018a614610457578063782d6fe11461045f5780637ecebe001461048b576101c4565b8063313ce56711610166578063587cde1e11610140578063587cde1e146103a65780635c19a95c146103cc5780636fcfff45146103f257806370a0823114610431576101c4565b8063313ce56714610330578063395093511461034e57806340c10f191461037a576101c4565b806320606b70116101a257806320606b70146102a057806323b872dd146102a85780632a9df533146102de5780632aa14ee01461030c576101c4565b806306fdde03146101c9578063095ea7b31461024657806318160ddd14610286575b600080fd5b6101d1610660565b6040805160208082528351818301528351919283929083019185019080838360005b8381101561020b5781810151838201526020016101f3565b50505050905090810190601f1680156102385780820380516001836020036101000a031916815260200191505b509250505060405180910390f35b6102726004803603604081101561025c57600080fd5b506001600160a01b0381351690602001356106f6565b604080519115158252519081900360200190f35b61028e610714565b60408051918252519081900360200190f35b61028e61071a565b610272600480360360608110156102be57600080fd5b506001600160a01b0381358116916020810135909116906040013561073e565b61030a600480360360408110156102f457600080fd5b506001600160a01b0381351690602001356107c5565b005b6103146109b8565b604080516001600160a01b039092168252519081900360200190f35b6103386109c7565b6040805160ff9092168252519081900360200190f35b6102726004803603604081101561036457600080fd5b506001600160a01b0381351690602001356109d0565b61030a6004803603604081101561039057600080fd5b506001600160a01b038135169060200135610a1e565b610314600480360360208110156103bc57600080fd5b50356001600160a01b0316610ab3565b61030a600480360360208110156103e257600080fd5b50356001600160a01b0316610ad1565b6104186004803603602081101561040857600080fd5b50356001600160a01b0316610ade565b6040805163ffffffff9092168252519081900360200190f35b61028e6004803603602081101561044757600080fd5b50356001600160a01b0316610af6565b61030a610b11565b61028e6004803603604081101561047557600080fd5b506001600160a01b038135169060200135610bc3565b61028e600480360360208110156104a157600080fd5b50356001600160a01b0316610dcb565b610314610ddd565b6101d1610df1565b61030a600480360360408110156104d757600080fd5b506001600160a01b038135169060200135610e52565b6102726004803603604081101561050357600080fd5b506001600160a01b038135169060200135610ee4565b6102726004803603604081101561052f57600080fd5b506001600160a01b038135169060200135610f4c565b61028e6004803603602081101561055b57600080fd5b50356001600160a01b0316610f60565b61030a600480360360c081101561058157600080fd5b506001600160a01b038135169060208101359060408101359060ff6060820135169060808101359060a00135610fc4565b61028e600480360360408110156105c857600080fd5b506001600160a01b0381358116916020013516611237565b61028e611262565b61061a600480360360408110156105fe57600080fd5b5080356001600160a01b0316906020013563ffffffff16611286565b6040805163ffffffff909316835260208301919091528051918290030190f35b61030a6004803603602081101561065057600080fd5b50356001600160a01b03166112b3565b60038054604080516020601f60026000196101006001881615020190951694909404938401819004810282018101909252828152606093909290918301828280156106ec5780601f106106c1576101008083540402835291602001916106ec565b820191906000526020600020905b8154815290600101906020018083116106cf57829003601f168201915b5050505050905090565b600061070a6107036113c1565b84846113c5565b5060015b92915050565b60025490565b7f8cad95687ba82c2ce50e74f7b754645e5117c3a5bec8151c0726d5857980a86681565b600061074b8484846114b1565b6107bb846107576113c1565b6107b685604051806060016040528060288152602001611e09602891396001600160a01b038a166000908152600160205260408120906107956113c1565b6001600160a01b03168152602081019190915260400160002054919061160c565b6113c5565b5060019392505050565b6107cd6113c1565b6001600160a01b03166107de610ddd565b6001600160a01b031614610827576040805162461bcd60e51b81526020600482018190526024820152600080516020611e31833981519152604482015290519081900360640190fd5b600654604080516370a0823160e01b815230600482015290516000926001600160a01b0316916370a08231916024808301926020929190829003018186803b15801561087257600080fd5b505afa158015610886573d6000803e3d6000fd5b505050506040513d602081101561089c57600080fd5b5051905080821115610930576006546040805163a9059cbb60e01b81526001600160a01b038681166004830152602482018590529151919092169163a9059cbb9160448083019260209291908290030181600087803b1580156108fe57600080fd5b505af1158015610912573d6000803e3d6000fd5b505050506040513d602081101561092857600080fd5b506109b39050565b6006546040805163a9059cbb60e01b81526001600160a01b038681166004830152602482018690529151919092169163a9059cbb9160448083019260209291908290030181600087803b15801561098657600080fd5b505af115801561099a573d6000803e3d6000fd5b505050506040513d60208110156109b057600080fd5b50505b505050565b6006546001600160a01b031681565b60055460ff1690565b600061070a6109dd6113c1565b846107b685600160006109ee6113c1565b6001600160a01b03908116825260208083019390935260409182016000908120918c1681529252902054906116a3565b610a266113c1565b6001600160a01b0316610a37610ddd565b6001600160a01b031614610a80576040805162461bcd60e51b81526020600482018190526024820152600080516020611e31833981519152604482015290519081900360640190fd5b610a8a82826116fd565b6001600160a01b03808316600090815260076020526040812054610aaf9216836117ed565b5050565b6001600160a01b039081166000908152600760205260409020541690565b610adb338261192a565b50565b60096020526000908152604090205463ffffffff1681565b6001600160a01b031660009081526020819052604090205490565b610b196113c1565b6001600160a01b0316610b2a610ddd565b6001600160a01b031614610b73576040805162461bcd60e51b81526020600482018190526024820152600080516020611e31833981519152604482015290519081900360640190fd5b60055460405160009161010090046001600160a01b0316907f8be0079c531659141344cd1fd0a4f28419497f9722a3daafe3b4186f6b6457e0908390a360058054610100600160a81b0319169055565b6000438210610c035760405162461bcd60e51b8152600401808060200182810382526029815260200180611de06029913960400191505060405180910390fd5b6001600160a01b03831660009081526009602052604090205463ffffffff1680610c3157600091505061070e565b6001600160a01b038416600090815260086020908152604080832063ffffffff600019860181168552925290912054168310610ca0576001600160a01b03841660009081526008602090815260408083206000199490940163ffffffff1683529290522060010154905061070e565b6001600160a01b038416600090815260086020908152604080832083805290915290205463ffffffff16831015610cdb57600091505061070e565b600060001982015b8163ffffffff168163ffffffff161115610d9457600282820363ffffffff16048103610d0d611cdf565b506001600160a01b038716600090815260086020908152604080832063ffffffff808616855290835292819020815180830190925280549093168082526001909301549181019190915290871415610d6f5760200151945061070e9350505050565b805163ffffffff16871115610d8657819350610d8d565b6001820392505b5050610ce3565b506001600160a01b038516600090815260086020908152604080832063ffffffff9094168352929052206001015491505092915050565b600a6020526000908152604090205481565b60055461010090046001600160a01b031690565b60048054604080516020601f60026000196101006001881615020190951694909404938401819004810282018101909252828152606093909290918301828280156106ec5780601f106106c1576101008083540402835291602001916106ec565b610e5a6113c1565b6001600160a01b0316610e6b610ddd565b6001600160a01b031614610eb4576040805162461bcd60e51b81526020600482018190526024820152600080516020611e31833981519152604482015290519081900360640190fd5b610ebe82826119bf565b6001600160a01b03808316600090815260076020526040812054610aaf921690836117ed565b600061070a610ef16113c1565b846107b685604051806060016040528060258152602001611f2f6025913960016000610f1b6113c1565b6001600160a01b03908116825260208083019390935260409182016000908120918d1681529252902054919061160c565b600061070a610f596113c1565b84846114b1565b6001600160a01b03811660009081526009602052604081205463ffffffff1680610f8b576000610fbd565b6001600160a01b038316600090815260086020908152604080832063ffffffff60001986011684529091529020600101545b9392505050565b60007f8cad95687ba82c2ce50e74f7b754645e5117c3a5bec8151c0726d5857980a866610fef610660565b80519060200120610ffe611abb565b60408051602080820195909552808201939093526060830191909152306080808401919091528151808403909101815260a0830182528051908401207fe48329057bfd03d55e49b547132e39cffd9c1820ad7b9d4c5307691425d15adf60c08401526001600160a01b038b1660e084015261010083018a90526101208084018a9052825180850390910181526101408401835280519085012061190160f01b6101608501526101628401829052610182808501829052835180860390910181526101a285018085528151918701919091206000918290526101c2860180865281905260ff8b166101e287015261020286018a90526102228601899052935192965090949293909260019261024280840193601f198301929081900390910190855afa158015611131573d6000803e3d6000fd5b5050604051601f1901519150506001600160a01b0381166111835760405162461bcd60e51b8152600401808060200182810382526028815260200180611e516028913960400191505060405180910390fd5b6001600160a01b0381166000908152600a6020526040902080546001810190915589146111e15760405162461bcd60e51b8152600401808060200182810382526024815260200180611f0b6024913960400191505060405180910390fd5b874211156112205760405162461bcd60e51b8152600401808060200182810382526028815260200180611ee36028913960400191505060405180910390fd5b61122a818b61192a565b505050505b505050505050565b6001600160a01b03918216600090815260016020908152604080832093909416825291909152205490565b7fe48329057bfd03d55e49b547132e39cffd9c1820ad7b9d4c5307691425d15adf81565b60086020908152600092835260408084209091529082529020805460019091015463ffffffff9091169082565b6112bb6113c1565b6001600160a01b03166112cc610ddd565b6001600160a01b031614611315576040805162461bcd60e51b81526020600482018190526024820152600080516020611e31833981519152604482015290519081900360640190fd5b6001600160a01b03811661135a5760405162461bcd60e51b8152600401808060200182810382526026815260200180611d3c6026913960400191505060405180910390fd5b6005546040516001600160a01b0380841692610100900416907f8be0079c531659141344cd1fd0a4f28419497f9722a3daafe3b4186f6b6457e090600090a3600580546001600160a01b0390921661010002610100600160a81b0319909216919091179055565b3390565b6001600160a01b03831661140a5760405162461bcd60e51b8152600401808060200182810382526024815260200180611ebf6024913960400191505060405180910390fd5b6001600160a01b03821661144f5760405162461bcd60e51b8152600401808060200182810382526022815260200180611d626022913960400191505060405180910390fd5b6001600160a01b03808416600081815260016020908152604080832094871680845294825291829020859055815185815291517f8c5be1e5ebec7d5bd14f71427d1e84f3dd0314c0f7b2291e5b200ac8c7c3b9259281900390910190a3505050565b6001600160a01b0383166114f65760405162461bcd60e51b8152600401808060200182810382526025815260200180611e9a6025913960400191505060405180910390fd5b6001600160a01b03821661153b5760405162461bcd60e51b8152600401808060200182810382526023815260200180611cf76023913960400191505060405180910390fd5b6115468383836109b3565b61158381604051806060016040528060268152602001611d84602691396001600160a01b038616600090815260208190526040902054919061160c565b6001600160a01b0380851660009081526020819052604080822093909355908416815220546115b290826116a3565b6001600160a01b038084166000818152602081815260409182902094909455805185815290519193928716927fddf252ad1be2c89b69c2b068fc378daa952ba7f163c4a11628f55a4df523b3ef92918290030190a3505050565b6000818484111561169b5760405162461bcd60e51b81526004018080602001828103825283818151815260200191508051906020019080838360005b83811015611660578181015183820152602001611648565b50505050905090810190601f16801561168d5780820380516001836020036101000a031916815260200191505b509250505060405180910390fd5b505050900390565b600082820183811015610fbd576040805162461bcd60e51b815260206004820152601b60248201527f536166654d6174683a206164646974696f6e206f766572666c6f770000000000604482015290519081900360640190fd5b6001600160a01b038216611758576040805162461bcd60e51b815260206004820152601f60248201527f45524332303a206d696e7420746f20746865207a65726f206164647265737300604482015290519081900360640190fd5b611764600083836109b3565b60025461177190826116a3565b6002556001600160a01b03821660009081526020819052604090205461179790826116a3565b6001600160a01b0383166000818152602081815260408083209490945583518581529351929391927fddf252ad1be2c89b69c2b068fc378daa952ba7f163c4a11628f55a4df523b3ef9281900390910190a35050565b816001600160a01b0316836001600160a01b03161415801561180f5750600081115b156109b3576001600160a01b038316156118a1576001600160a01b03831660009081526009602052604081205463ffffffff16908161184f576000611881565b6001600160a01b038516600090815260086020908152604080832063ffffffff60001987011684529091529020600101545b9050600061188f8285611abf565b905061189d86848484611b1c565b5050505b6001600160a01b038216156109b3576001600160a01b03821660009081526009602052604081205463ffffffff1690816118dc57600061190e565b6001600160a01b038416600090815260086020908152604080832063ffffffff60001987011684529091529020600101545b9050600061191c82856116a3565b905061122f85848484611b1c565b6001600160a01b038083166000908152600760205260408120549091169061195184610af6565b6001600160a01b0385811660008181526007602052604080822080546001600160a01b031916898616908117909155905194955093928616927f3134e8a2e6d97e929a7e54011ea5485d7d196dd5f0ba4d4ef95803e8e3fc257f9190a46119b98284836117ed565b50505050565b6001600160a01b038216611a045760405162461bcd60e51b8152600401808060200182810382526021815260200180611e796021913960400191505060405180910390fd5b611a10826000836109b3565b611a4d81604051806060016040528060228152602001611d1a602291396001600160a01b038516600090815260208190526040902054919061160c565b6001600160a01b038316600090815260208190526040902055600254611a739082611abf565b6002556040805182815290516000916001600160a01b038516917fddf252ad1be2c89b69c2b068fc378daa952ba7f163c4a11628f55a4df523b3ef9181900360200190a35050565b4690565b600082821115611b16576040805162461bcd60e51b815260206004820152601e60248201527f536166654d6174683a207375627472616374696f6e206f766572666c6f770000604482015290519081900360640190fd5b50900390565b6000611b4043604051806060016040528060368152602001611daa60369139611c81565b905060008463ffffffff16118015611b8957506001600160a01b038516600090815260086020908152604080832063ffffffff6000198901811685529252909120548282169116145b15611bc6576001600160a01b038516600090815260086020908152604080832063ffffffff60001989011684529091529020600101829055611c37565b60408051808201825263ffffffff808416825260208083018681526001600160a01b038a166000818152600884528681208b8616825284528681209551865490861663ffffffff19918216178755925160019687015590815260099092529390208054928801909116919092161790555b604080518481526020810184905281516001600160a01b038816927fdec2bacdd2f05b59de34da9b523dff8be42e5e38e818c82fdb0bae774387a724928290030190a25050505050565b6000816401000000008410611cd75760405162461bcd60e51b8152602060048201818152835160248401528351909283926044909101919085019080838360008315611660578181015183820152602001611648565b509192915050565b60408051808201909152600080825260208201529056fe45524332303a207472616e7366657220746f20746865207a65726f206164647265737345524332303a206275726e20616d6f756e7420657863656564732062616c616e63654f776e61626c653a206e6577206f776e657220697320746865207a65726f206164647265737345524332303a20617070726f766520746f20746865207a65726f206164647265737345524332303a207472616e7366657220616d6f756e7420657863656564732062616c616e63657843524f4e413a3a5f7772697465436865636b706f696e743a20626c6f636b206e756d626572206578636565647320333220626974737843524f4e413a3a6765745072696f72566f7465733a206e6f74207965742064657465726d696e656445524332303a207472616e7366657220616d6f756e74206578636565647320616c6c6f77616e63654f776e61626c653a2063616c6c6572206973206e6f7420746865206f776e65727843524f4e413a3a64656c656761746542795369673a20696e76616c6964207369676e617475726545524332303a206275726e2066726f6d20746865207a65726f206164647265737345524332303a207472616e736665722066726f6d20746865207a65726f206164647265737345524332303a20617070726f76652066726f6d20746865207a65726f20616464726573737843524f4e413a3a64656c656761746542795369673a207369676e617475726520657870697265647843524f4e413a3a64656c656761746542795369673a20696e76616c6964206e6f6e636545524332303a2064656372656173656420616c6c6f77616e63652062656c6f77207a65726fa2646970667358221220a25090162980a7a785321eda59b34741b132d846ed6d4e4b0018d5f0a114654764736f6c634300060c0033",
  "linkReferences": {},
  "deployedLinkReferences": {}
}