{
  "_format": "hh-sol-artifact-1",
  "contractName": "TokenPrivateSale",
  "sourceName": "contracts/tools/TokenPrivateSale.sol",
  "abi": [
    {
      "inputs": [
        {
          "internalType": "address",
          "name": "_treasury",
          "type": "address"
        },
        {
          "internalType": "address",
          "name": "_keeper",
          "type": "address"
        },
        {
          "internalType": "address",
          "name": "_usdc",
          "type": "address"
        },
        {
          "internalType": "address",
          "name": "_token",
          "type": "address"
        },
        {
          "internalType": "uint256",
          "name": "_tokenPrice",
          "type": "uint256"
        },
        {
          "internalType": "uint256",
          "name": "_basePrice",
          "type": "uint256"
        },
        {
          "internalType": "uint256",
          "name": "_minTokensAmount",
          "type": "uint256"
        },
        {
          "internalType": "uint256",
          "name": "_maxTokensAmount",
          "type": "uint256"
        },
        {
          "internalType": "uint256",
          "name": "_privateSaleTokenPool",
          "type": "uint256"
        },
        {
          "internalType": "uint256",
          "name": "_privateSaleStart",
          "type": "uint256"
        },
        {
          "internalType": "uint256",
          "name": "_privateSaleEnd",
          "type": "uint256"
        },
        {
          "internalType": "uint256",
          "name": "_vestingDuration",
          "type": "uint256"
        }
      ],
      "stateMutability": "nonpayable",
      "type": "constructor"
    },
    {
      "anonymous": false,
      "inputs": [
        {
          "indexed": true,
          "internalType": "address",
          "name": "previousOwner",
          "type": "address"
        },
        {
          "indexed": true,
          "internalType": "address",
          "name": "newOwner",
          "type": "address"
        }
      ],
      "name": "OwnershipTransferred",
      "type": "event"
    },
    {
      "anonymous": false,
      "inputs": [
        {
          "indexed": false,
          "internalType": "address",
          "name": "account",
          "type": "address"
        }
      ],
      "name": "Paused",
      "type": "event"
    },
    {
      "anonymous": false,
      "inputs": [
        {
          "indexed": true,
          "internalType": "address",
          "name": "user",
          "type": "address"
        },
        {
          "indexed": false,
          "internalType": "address",
          "name": "coin",
          "type": "address"
        },
        {
          "indexed": false,
          "internalType": "uint256",
          "name": "coinAmount",
          "type": "uint256"
        },
        {
          "indexed": false,
          "internalType": "uint256",
          "name": "tokenAmount",
          "type": "uint256"
        }
      ],
      "name": "TokenPurchased",
      "type": "event"
    },
    {
      "anonymous": false,
      "inputs": [
        {
          "indexed": true,
          "internalType": "address",
          "name": "user",
          "type": "address"
        },
        {
          "indexed": false,
          "internalType": "uint256",
          "name": "tokenAmount",
          "type": "uint256"
        }
      ],
      "name": "TokensClaimed",
      "type": "event"
    },
    {
      "anonymous": false,
      "inputs": [
        {
          "indexed": false,
          "internalType": "address",
          "name": "account",
          "type": "address"
        }
      ],
      "name": "Unpaused",
      "type": "event"
    },
    {
      "inputs": [],
      "name": "PRECISION",
      "outputs": [
        {
          "internalType": "uint256",
          "name": "",
          "type": "uint256"
        }
      ],
      "stateMutability": "view",
      "type": "function"
    },
    {
      "inputs": [],
      "name": "USDC",
      "outputs": [
        {
          "internalType": "address",
          "name": "",
          "type": "address"
        }
      ],
      "stateMutability": "view",
      "type": "function"
    },
    {
      "inputs": [],
      "name": "WITHDRAWAL_PERIOD",
      "outputs": [
        {
          "internalType": "uint256",
          "name": "",
          "type": "uint256"
        }
      ],
      "stateMutability": "view",
      "type": "function"
    },
    {
      "inputs": [
        {
          "internalType": "address",
          "name": "_receiver",
          "type": "address"
        },
        {
          "internalType": "uint256",
          "name": "_amount",
          "type": "uint256"
        }
      ],
      "name": "adminAddPurchase",
      "outputs": [],
      "stateMutability": "nonpayable",
      "type": "function"
    },
    {
      "inputs": [],
      "name": "adminPause",
      "outputs": [],
      "stateMutability": "nonpayable",
      "type": "function"
    },
    {
      "inputs": [
        {
          "internalType": "uint256",
          "name": "_price",
          "type": "uint256"
        }
      ],
      "name": "adminSetBasePrice",
      "outputs": [],
      "stateMutability": "nonpayable",
      "type": "function"
    },
    {
      "inputs": [
        {
          "internalType": "uint256",
          "name": "_maxGasPrice",
          "type": "uint256"
        }
      ],
      "name": "adminSetMaxGasPrice",
      "outputs": [],
      "stateMutability": "nonpayable",
      "type": "function"
    },
    {
      "inputs": [
        {
          "internalType": "uint256",
          "name": "_maxToken",
          "type": "uint256"
        }
      ],
      "name": "adminSetMaxToken",
      "outputs": [],
      "stateMutability": "nonpayable",
      "type": "function"
    },
    {
      "inputs": [
        {
          "internalType": "uint256",
          "name": "_minToken",
          "type": "uint256"
        }
      ],
      "name": "adminSetMinToken",
      "outputs": [],
      "stateMutability": "nonpayable",
      "type": "function"
    },
    {
      "inputs": [
        {
          "internalType": "address",
          "name": "_priceFeed",
          "type": "address"
        }
      ],
      "name": "adminSetPriceFeed",
      "outputs": [],
      "stateMutability": "nonpayable",
      "type": "function"
    },
    {
      "inputs": [
        {
          "internalType": "address",
          "name": "_treasury",
          "type": "address"
        }
      ],
      "name": "adminSetTreasury",
      "outputs": [],
      "stateMutability": "nonpayable",
      "type": "function"
    },
    {
      "inputs": [
        {
          "internalType": "uint256",
          "name": "_vestingStart",
          "type": "uint256"
        }
      ],
      "name": "adminSetVestingStart",
      "outputs": [],
      "stateMutability": "nonpayable",
      "type": "function"
    },
    {
      "inputs": [
        {
          "internalType": "address[]",
          "name": "_users",
          "type": "address[]"
        },
        {
          "internalType": "bool",
          "name": "_flag",
          "type": "bool"
        }
      ],
      "name": "adminSetWhitelisted",
      "outputs": [],
      "stateMutability": "nonpayable",
      "type": "function"
    },
    {
      "inputs": [],
      "name": "adminUnpause",
      "outputs": [],
      "stateMutability": "nonpayable",
      "type": "function"
    },
    {
      "inputs": [
        {
          "internalType": "address",
          "name": "ERC20token",
          "type": "address"
        }
      ],
      "name": "adminWithdrawERC20",
      "outputs": [],
      "stateMutability": "nonpayable",
      "type": "function"
    },
    {
      "inputs": [],
      "name": "adminWithdrawETH",
      "outputs": [],
      "stateMutability": "nonpayable",
      "type": "function"
    },
    {
      "inputs": [],
      "name": "basePrice",
      "outputs": [
        {
          "internalType": "uint256",
          "name": "",
          "type": "uint256"
        }
      ],
      "stateMutability": "view",
      "type": "function"
    },
    {
      "inputs": [
        {
          "internalType": "address",
          "name": "_coin",
          "type": "address"
        },
        {
          "internalType": "uint256",
          "name": "_amount",
          "type": "uint256"
        }
      ],
      "name": "calcCoinPurchasedAmount",
      "outputs": [
        {
          "internalType": "uint256",
          "name": "",
          "type": "uint256"
        }
      ],
      "stateMutability": "view",
      "type": "function"
    },
    {
      "inputs": [
        {
          "internalType": "uint256",
          "name": "_amount",
          "type": "uint256"
        }
      ],
      "name": "calcEthPurchasedAmount",
      "outputs": [
        {
          "internalType": "uint256",
          "name": "",
          "type": "uint256"
        }
      ],
      "stateMutability": "view",
      "type": "function"
    },
    {
      "inputs": [],
      "name": "claim",
      "outputs": [],
      "stateMutability": "nonpayable",
      "type": "function"
    },
    {
      "inputs": [
        {
          "internalType": "address",
          "name": "_user",
          "type": "address"
        }
      ],
      "name": "claimable",
      "outputs": [
        {
          "internalType": "uint256",
          "name": "",
          "type": "uint256"
        }
      ],
      "stateMutability": "view",
      "type": "function"
    },
    {
      "inputs": [
        {
          "internalType": "address",
          "name": "_user",
          "type": "address"
        }
      ],
      "name": "claimed",
      "outputs": [
        {
          "internalType": "uint256",
          "name": "",
          "type": "uint256"
        }
      ],
      "stateMutability": "view",
      "type": "function"
    },
    {
      "inputs": [
        {
          "internalType": "address",
          "name": "_user",
          "type": "address"
        }
      ],
      "name": "locked",
      "outputs": [
        {
          "internalType": "uint256",
          "name": "",
          "type": "uint256"
        }
      ],
      "stateMutability": "view",
      "type": "function"
    },
    {
      "inputs": [],
      "name": "maxGasPrice",
      "outputs": [
        {
          "internalType": "uint256",
          "name": "",
          "type": "uint256"
        }
      ],
      "stateMutability": "view",
      "type": "function"
    },
    {
      "inputs": [],
      "name": "maxTokensAmount",
      "outputs": [
        {
          "internalType": "uint256",
          "name": "",
          "type": "uint256"
        }
      ],
      "stateMutability": "view",
      "type": "function"
    },
    {
      "inputs": [],
      "name": "minTokensAmount",
      "outputs": [
        {
          "internalType": "uint256",
          "name": "",
          "type": "uint256"
        }
      ],
      "stateMutability": "view",
      "type": "function"
    },
    {
      "inputs": [],
      "name": "owner",
      "outputs": [
        {
          "internalType": "address",
          "name": "",
          "type": "address"
        }
      ],
      "stateMutability": "view",
      "type": "function"
    },
    {
      "inputs": [],
      "name": "paused",
      "outputs": [
        {
          "internalType": "bool",
          "name": "",
          "type": "bool"
        }
      ],
      "stateMutability": "view",
      "type": "function"
    },
    {
      "inputs": [],
      "name": "priceFeed",
      "outputs": [
        {
          "internalType": "contract AggregatorV3Interface",
          "name": "",
          "type": "address"
        }
      ],
      "stateMutability": "view",
      "type": "function"
    },
    {
      "inputs": [],
      "name": "privateSaleEnd",
      "outputs": [
        {
          "internalType": "uint256",
          "name": "",
          "type": "uint256"
        }
      ],
      "stateMutability": "view",
      "type": "function"
    },
    {
      "inputs": [],
      "name": "privateSaleStart",
      "outputs": [
        {
          "internalType": "uint256",
          "name": "",
          "type": "uint256"
        }
      ],
      "stateMutability": "view",
      "type": "function"
    },
    {
      "inputs": [],
      "name": "privateSaleTokenPool",
      "outputs": [
        {
          "internalType": "uint256",
          "name": "",
          "type": "uint256"
        }
      ],
      "stateMutability": "view",
      "type": "function"
    },
    {
      "inputs": [
        {
          "internalType": "address",
          "name": "coin",
          "type": "address"
        },
        {
          "internalType": "uint256",
          "name": "amount",
          "type": "uint256"
        }
      ],
      "name": "purchaseTokenWithCoin",
      "outputs": [],
      "stateMutability": "nonpayable",
      "type": "function"
    },
    {
      "inputs": [],
      "name": "purchaseTokenWithETH",
      "outputs": [],
      "stateMutability": "payable",
      "type": "function"
    },
    {
      "inputs": [
        {
          "internalType": "address",
          "name": "",
          "type": "address"
        }
      ],
      "name": "purchased",
      "outputs": [
        {
          "internalType": "uint256",
          "name": "",
          "type": "uint256"
        }
      ],
      "stateMutability": "view",
      "type": "function"
    },
    {
      "inputs": [],
      "name": "purchasedPrivateSale",
      "outputs": [
        {
          "internalType": "uint256",
          "name": "",
          "type": "uint256"
        }
      ],
      "stateMutability": "view",
      "type": "function"
    },
    {
      "inputs": [],
      "name": "renounceOwnership",
      "outputs": [],
      "stateMutability": "nonpayable",
      "type": "function"
    },
    {
      "inputs": [],
      "name": "token",
      "outputs": [
        {
          "internalType": "address",
          "name": "",
          "type": "address"
        }
      ],
      "stateMutability": "view",
      "type": "function"
    },
    {
      "inputs": [],
      "name": "tokenPrice",
      "outputs": [
        {
          "internalType": "uint256",
          "name": "",
          "type": "uint256"
        }
      ],
      "stateMutability": "view",
      "type": "function"
    },
    {
      "inputs": [
        {
          "internalType": "address",
          "name": "newOwner",
          "type": "address"
        }
      ],
      "name": "transferOwnership",
      "outputs": [],
      "stateMutability": "nonpayable",
      "type": "function"
    },
    {
      "inputs": [],
      "name": "vestingDuration",
      "outputs": [
        {
          "internalType": "uint256",
          "name": "",
          "type": "uint256"
        }
      ],
      "stateMutability": "view",
      "type": "function"
    },
    {
      "inputs": [],
      "name": "vestingStart",
      "outputs": [
        {
          "internalType": "uint256",
          "name": "",
          "type": "uint256"
        }
      ],
      "stateMutability": "view",
      "type": "function"
    },
    {
      "inputs": [
        {
          "internalType": "address",
          "name": "",
          "type": "address"
        }
      ],
      "name": "whitelisted",
      "outputs": [
        {
          "internalType": "bool",
          "name": "",
          "type": "bool"
        }
      ],
      "stateMutability": "view",
      "type": "function"
    },
    {
      "stateMutability": "payable",
      "type": "receive"
    }
  ],
  "bytecode": "0x60806040523480156200001157600080fd5b5060405162002b0e38038062002b0e8339810160408190526200003491620001fc565b600062000040620001da565b600080546001600160a01b0319166001600160a01b0383169081178255604051929350917f8be0079c531659141344cd1fd0a4f28419497f9722a3daafe3b4186f6b6457e0908290a3506000805460ff60a01b191690556001600160a01b038c16620000c95760405162461bcd60e51b8152600401620000c09062000312565b60405180910390fd5b6001600160a01b038916620000f25760405162461bcd60e51b8152600401620000c090620002d2565b60008311620001155760405162461bcd60e51b8152600401620000c090620002f2565b828211620001375760405162461bcd60e51b8152600401620000c090620002ac565b62ed4e0081106200015c5760405162461bcd60e51b8152600401620000c09062000335565b601280546001600160a01b039d8e166001600160a01b031991821617909155601380549c8e169c82169c909c17909b55600180549a8d169a8c169a909a17909955600b805498909b169790991696909617909855600c93909355601191909155600255600355600893909355600692909255600755600a5562000379565b3390565b80516001600160a01b0381168114620001f657600080fd5b92915050565b6000806000806000806000806000806000806101808d8f0312156200021f578788fd5b6200022b8e8e620001de565b9b506200023c8e60208f01620001de565b9a506200024d8e60408f01620001de565b99506200025e8e60608f01620001de565b985060808d0151975060a08d0151965060c08d0151955060e08d015194506101008d015193506101208d015192506101408d015191506101608d015190509295989b509295989b509295989b565b6020808252600c908201526b1cdd185c9d080f8f48195b9960a21b604082015260600190565b60208082526006908201526510ba37b5b2b760d11b604082015260600190565b602080825260069082015265085cdd185c9d60d21b604082015260600190565b60208082526009908201526821747265617375727960b81b604082015260600190565b60208082526024908201527f76657374696e674475726174696f6e203e3d205749544844524157414c5f5045604082015263149253d160e21b606082015260800190565b61278580620003896000396000f3fe6080604052600436106102605760003560e01c8063741bef1a11610144578063c20860af116100b6578063d4b194851161007a578063d4b1948514610697578063d936547e146106b7578063dea54651146106d7578063ed84fc91146106f7578063f2fde38b1461070c578063fc0c546a1461072c576102c1565b8063c20860af1461060d578063c7876ea414610622578063c884ef8314610637578063cbf9fe5f14610657578063d26a696214610677576102c1565b80638a3ef9a7116101085780638a3ef9a7146105915780638da5cb5b1461059957806392f9c067146105ae5780639731a486146105c3578063aaf5eb68146105d8578063b0b401c2146105ed576102c1565b8063741bef1a1461050557806377bb5c45146105275780637e0d4b68146105475780637ff9b5961461056757806389a302711461057c576102c1565b806330689fdb116101dd5780634e71d92d116101a15780634e71d92d1461046f578063522fe98e146104845780635c975abb146104a457806360423455146104c6578063712b49ac146104db578063715018a6146104f0576102c1565b806330689fdb146103e557806332330eac146103fa5780633de39c111461041a578063402914f51461042f578063447e0b541461044f576102c1565b80631955462a116102245780631955462a1461035b57806319a33ea21461037b5780631d1d9b471461039b5780631dd8097b146103bb578063254800d4146103d0576102c1565b80630914bc27146102c65780630a384665146102fc5780630bf390b8146103115780631514617e1461032657806316932b061461033b576102c1565b366102c15761026d610741565b6102925760405162461bcd60e51b815260040161028990612256565b60405180910390fd5b61029a61075b565b156102b75760405162461bcd60e51b8152600401610289906123f9565b6102bf61076b565b005b600080fd5b3480156102d257600080fd5b506102e66102e1366004611fb9565b610939565b6040516102f391906126e5565b60405180910390f35b34801561030857600080fd5b506102e6610abc565b34801561031d57600080fd5b506102e6610ac2565b34801561033257600080fd5b506102e6610ac9565b34801561034757600080fd5b506102bf610356366004611fb9565b610acf565b34801561036757600080fd5b506102e6610376366004611eb4565b610b60565b34801561038757600080fd5b506102bf610396366004611e99565b610c10565b3480156103a757600080fd5b506102bf6103b6366004611e99565b610e1a565b3480156103c757600080fd5b506102e6610e7b565b3480156103dc57600080fd5b506102e6610e81565b3480156103f157600080fd5b506102e6610e87565b34801561040657600080fd5b506102bf610415366004611eb4565b610e8d565b34801561042657600080fd5b506102e66110d0565b34801561043b57600080fd5b506102e661044a366004611e99565b6110d6565b34801561045b57600080fd5b506102bf61046a366004611fb9565b6110fc565b34801561047b57600080fd5b506102bf611165565b34801561049057600080fd5b506102e661049f366004611e99565b611277565b3480156104b057600080fd5b506104b961075b565b6040516102f391906120ec565b3480156104d257600080fd5b506102e6611289565b3480156104e757600080fd5b506102e661128f565b3480156104fc57600080fd5b506102bf611295565b34801561051157600080fd5b5061051a61131e565b6040516102f3919061207a565b34801561053357600080fd5b506102bf610542366004611e99565b61132d565b34801561055357600080fd5b506102bf610562366004611fb9565b61138e565b34801561057357600080fd5b506102e66113d2565b34801561058857600080fd5b5061051a6113d8565b6102bf6113e7565b3480156105a557600080fd5b5061051a61143a565b3480156105ba57600080fd5b506102bf611449565b3480156105cf57600080fd5b506102e6611490565b3480156105e457600080fd5b506102e6611496565b3480156105f957600080fd5b506102bf610608366004611fb9565b61149d565b34801561061957600080fd5b506102bf6114e1565b34801561062e57600080fd5b506102e6611528565b34801561064357600080fd5b506102e6610652366004611e99565b61152e565b34801561066357600080fd5b506102e6610672366004611e99565b611549565b34801561068357600080fd5b506102bf610692366004611ede565b611576565b3480156106a357600080fd5b506102bf6106b2366004611fb9565b611611565b3480156106c357600080fd5b506104b96106d2366004611e99565b611655565b3480156106e357600080fd5b506102bf6106f2366004611eb4565b61166a565b34801561070357600080fd5b506102bf6116ec565b34801561071857600080fd5b506102bf610727366004611e99565b6117f4565b34801561073857600080fd5b5061051a6118b4565b60006006544210158015610756575060075442105b905090565b600054600160a01b900460ff1690565b600454158061077c57506004543a11155b6107985760405162461bcd60e51b8152600401610289906123c2565b6107a06118c3565b6001600160a01b0381166000908152600f602052604090205460ff166107d85760405162461bcd60e51b81526004016102899061212a565b60006107e334610939565b90506002548110156108075760405162461bcd60e51b815260040161028990612499565b60105461081490826118c7565b6010819055600854101561083a5760405162461bcd60e51b8152600401610289906125ff565b61086a81600d600061084a6118c3565b6001600160a01b03168152602081019190915260400160002054906118c7565b600d60006108766118c3565b6001600160a01b03166001600160a01b0316815260200190815260200160002081905550600354600d60006108a96118c3565b6001600160a01b03166001600160a01b031681526020019081526020016000205411156108e85760405162461bcd60e51b8152600401610289906126ae565b6108f06118c3565b6001600160a01b03167f8daf503382665d950e449b86172be5222275c90f4ddf69c29fdaa8237a562a6d6000348460405161092d9392919061208e565b60405180910390a25050565b6005546000906001600160a01b031615610a99576005546040805163313ce56760e01b815290516000926001600160a01b03169163313ce567916004808301926020929190829003018186803b15801561099257600080fd5b505afa1580156109a6573d6000803e3d6000fd5b505050506040513d601f19601f820116820180604052508101906109ca919061203a565b60ff1690506000600560009054906101000a90046001600160a01b03166001600160a01b031663feaf968c6040518163ffffffff1660e01b815260040160a06040518083038186803b158015610a1f57600080fd5b505afa158015610a33573d6000803e3d6000fd5b505050506040513d601f19601f82011682018060405250810190610a579190611fe9565b505050915050610a9082600a0a610a8a600c54610a8a620f4240610a84878b6118f390919063ffffffff16565b906118f3565b9061192d565b92505050610ab7565b610ab4600c54610a8a601154856118f390919063ffffffff16565b90505b919050565b60035481565b62ed4e0081565b600a5481565b610ad76118c3565b6001600160a01b0316610ae861143a565b6001600160a01b031614610b0e5760405162461bcd60e51b815260040161028990612464565b60095415610b2e5760405162461bcd60e51b815260040161028990612677565b6007548110158015610b3f57508042105b610b5b5760405162461bcd60e51b81526004016102899061252c565b600955565b600080610bef846001600160a01b031663313ce5676040518163ffffffff1660e01b815260040160206040518083038186803b158015610b9f57600080fd5b505afa158015610bb3573d6000803e3d6000fd5b505050506040513d601f19601f82011682018060405250810190610bd7919061203a565b60ff16600a0a610a8a85670de0b6b3a76400006118f3565b600c54909150610c0690610a8a83620f42406118f3565b9150505b92915050565b610c186118c3565b6001600160a01b0316610c2961143a565b6001600160a01b031614610c4f5760405162461bcd60e51b815260040161028990612464565b610c57610741565b15610c745760405162461bcd60e51b815260040161028990612563565b600b546000906001600160a01b03838116911614610d0f576040516370a0823160e01b81526001600160a01b038316906370a0823190610cb890309060040161207a565b60206040518083038186803b158015610cd057600080fd5b505afa158015610ce4573d6000803e3d6000fd5b505050506040513d601f19601f82011682018060405250810190610d089190611fd1565b9050610ddc565b600954610d1f9062ed4e006118c7565b4210610d51576040516370a0823160e01b81526001600160a01b038316906370a0823190610cb890309060040161207a565b610dd9601054836001600160a01b03166370a08231306040518263ffffffff1660e01b8152600401610d83919061207a565b60206040518083038186803b158015610d9b57600080fd5b505afa158015610daf573d6000803e3d6000fd5b505050506040513d601f19601f82011682018060405250810190610dd39190611fd1565b9061195f565b90505b60008111610dfc5760405162461bcd60e51b81526004016102899061259a565b601254610e16906001600160a01b03848116911683611987565b5050565b610e226118c3565b6001600160a01b0316610e3361143a565b6001600160a01b031614610e595760405162461bcd60e51b815260040161028990612464565b601280546001600160a01b0319166001600160a01b0392909216919091179055565b60105481565b60095481565b60075481565b610e95610741565b610eb15760405162461bcd60e51b815260040161028990612256565b610eb961075b565b15610ed65760405162461bcd60e51b8152600401610289906123f9565b6004541580610ee757506004543a11155b610f035760405162461bcd60e51b8152600401610289906123c2565b610f0b6118c3565b6001600160a01b0381166000908152600f602052604090205460ff16610f435760405162461bcd60e51b81526004016102899061212a565b6001546001600160a01b03848116911614610f705760405162461bcd60e51b8152600401610289906124fc565b6000610f7c8484610b60565b9050600254811015610fa05760405162461bcd60e51b815260040161028990612499565b601054610fad90826118c7565b60108190556008541015610fd35760405162461bcd60e51b8152600401610289906125ff565b610fe381600d600061084a6118c3565b600d6000610fef6118c3565b6001600160a01b03166001600160a01b0316815260200190815260200160002081905550600354600d60006110226118c3565b6001600160a01b03166001600160a01b031681526020019081526020016000205411156110615760405162461bcd60e51b8152600401610289906126ae565b61107e61106c6118c3565b6001600160a01b0386169030866119dd565b6110866118c3565b6001600160a01b03167f8daf503382665d950e449b86172be5222275c90f4ddf69c29fdaa8237a562a6d8585846040516110c29392919061208e565b60405180910390a250505050565b60045481565b6001600160a01b0381166000908152600e6020526040812054610ab490610dd384611a04565b61110461143a565b6001600160a01b03166111156118c3565b6001600160a01b0316148061114457506013546001600160a01b03166111396118c3565b6001600160a01b0316145b6111605760405162461bcd60e51b81526004016102899061218f565b601155565b61116d610741565b1561118a5760405162461bcd60e51b815260040161028990612563565b6009546111a95760405162461bcd60e51b815260040161028990612354565b60006111b661044a6118c3565b9050600081116111d85760405162461bcd60e51b8152600401610289906122a0565b6111e881600e600061084a6118c3565b600e60006111f46118c3565b6001600160a01b0316815260208101919091526040016000205561122c6112196118c3565b600b546001600160a01b03169083611987565b6112346118c3565b6001600160a01b03167f896e034966eaaf1adc54acc0f257056febbd300c9e47182cf761982cf1f5e4308260405161126c91906126e5565b60405180910390a250565b600d6020526000908152604090205481565b60025481565b60085481565b61129d6118c3565b6001600160a01b03166112ae61143a565b6001600160a01b0316146112d45760405162461bcd60e51b815260040161028990612464565b600080546040516001600160a01b03909116907f8be0079c531659141344cd1fd0a4f28419497f9722a3daafe3b4186f6b6457e0908390a3600080546001600160a01b0319169055565b6005546001600160a01b031681565b6113356118c3565b6001600160a01b031661134661143a565b6001600160a01b03161461136c5760405162461bcd60e51b815260040161028990612464565b600580546001600160a01b0319166001600160a01b0392909216919091179055565b6113966118c3565b6001600160a01b03166113a761143a565b6001600160a01b0316146113cd5760405162461bcd60e51b815260040161028990612464565b600355565b600c5481565b6001546001600160a01b031681565b6113ef610741565b61140b5760405162461bcd60e51b815260040161028990612256565b61141361075b565b156114305760405162461bcd60e51b8152600401610289906123f9565b61143861076b565b565b6000546001600160a01b031690565b6114516118c3565b6001600160a01b031661146261143a565b6001600160a01b0316146114885760405162461bcd60e51b815260040161028990612464565b611438611be5565b60065481565b620f424081565b6114a56118c3565b6001600160a01b03166114b661143a565b6001600160a01b0316146114dc5760405162461bcd60e51b815260040161028990612464565b600255565b6114e96118c3565b6001600160a01b03166114fa61143a565b6001600160a01b0316146115205760405162461bcd60e51b815260040161028990612464565b611438611c56565b60115481565b6001600160a01b03166000908152600e602052604090205490565b6000610ab461155783611a04565b6001600160a01b0384166000908152600d60205260409020549061195f565b61157e6118c3565b6001600160a01b031661158f61143a565b6001600160a01b0316146115b55760405162461bcd60e51b815260040161028990612464565b60005b825181101561160c5781600f60008584815181106115d257fe5b6020908102919091018101516001600160a01b03168252810191909152604001600020805460ff19169115159190911790556001016115b8565b505050565b6116196118c3565b6001600160a01b031661162a61143a565b6001600160a01b0316146116505760405162461bcd60e51b815260040161028990612464565b600455565b600f6020526000908152604090205460ff1681565b6116726118c3565b6001600160a01b031661168361143a565b6001600160a01b0316146116a95760405162461bcd60e51b815260040161028990612464565b6001600160a01b0382166000908152600d60205260409020546116cc90826118c7565b6001600160a01b039092166000908152600d602052604090209190915550565b6116f46118c3565b6001600160a01b031661170561143a565b6001600160a01b03161461172b5760405162461bcd60e51b815260040161028990612464565b611733610741565b156117505760405162461bcd60e51b815260040161028990612563565b600047116117705760405162461bcd60e51b8152600401610289906124d0565b6012546040516000916001600160a01b031690479061178e90612077565b60006040518083038185875af1925050503d80600081146117cb576040519150601f19603f3d011682016040523d82523d6000602084013e6117d0565b606091505b50509050806117f15760405162461bcd60e51b8152600401610289906121f6565b50565b6117fc6118c3565b6001600160a01b031661180d61143a565b6001600160a01b0316146118335760405162461bcd60e51b815260040161028990612464565b6001600160a01b0381166118595760405162461bcd60e51b8152600401610289906121b0565b600080546040516001600160a01b03808516939216917f8be0079c531659141344cd1fd0a4f28419497f9722a3daafe3b4186f6b6457e091a3600080546001600160a01b0319166001600160a01b0392909216919091179055565b600b546001600160a01b031681565b3390565b6000828201838110156118ec5760405162461bcd60e51b81526004016102899061221f565b9392505050565b60008261190257506000610c0a565b8282028284828161190f57fe5b04146118ec5760405162461bcd60e51b815260040161028990612423565b600080821161194e5760405162461bcd60e51b81526004016102899061238b565b81838161195757fe5b049392505050565b6000828211156119815760405162461bcd60e51b8152600401610289906122d7565b50900390565b61160c8363a9059cbb60e01b84846040516024016119a69291906120d3565b60408051601f198184030181529190526020810180516001600160e01b03166001600160e01b031990931692909217909152611cb7565b6119fe846323b872dd60e01b8585856040516024016119a6939291906120af565b50505050565b600060095460001480611a18575060095442105b15611a2557506000610ab7565b600a54600954611a34916118c7565b4210611a5957506001600160a01b0381166000908152600d6020526040902054610ab7565b600954611a6990620151806118c7565b4211611a93576001600160a01b0382166000908152600d6020526040902054610ab490606461192d565b600954611aa390620546006118c7565b42118015611ac05750600954611abc90620697806118c7565b4211155b15611af0576001600160a01b0382166000908152600d6020526040902054610ab490606490610a8a9060046118f3565b600954611b0090620bdd806118c7565b42118015611b1d5750600954611b1990620d2f006118c7565b4211155b15611b4d576001600160a01b0382166000908152600d6020526040902054610ab490606490610a8a90600a6118f3565b6001600160a01b0382166000908152600d6020526040812054611b7890606490610a8a90600a6118f3565b90506000611bd9611b97620d2f00600a5461195f90919063ffffffff16565b610a8a611bb6620d2f00610dd36009544261195f90919063ffffffff16565b6001600160a01b0388166000908152600d6020526040902054610a84908761195f565b9050610a9082826118c7565b611bed61075b565b611c095760405162461bcd60e51b815260040161028990612161565b6000805460ff60a01b191690557f5db9ee0a495bf2e6ff9c91a7834c1ba4fdd244a5e8aa4e537bd38aeae4b073aa611c3f6118c3565b604051611c4c919061207a565b60405180910390a1565b611c5e61075b565b15611c7b5760405162461bcd60e51b8152600401610289906123f9565b6000805460ff60a01b1916600160a01b1790557f62e78cea01bee320cd4e420270b5ea74000d11b0c9f74754ebdbfc544b05a258611c3f6118c3565b6060611d0c826040518060400160405280602081526020017f5361666545524332303a206c6f772d6c6576656c2063616c6c206661696c6564815250856001600160a01b0316611d469092919063ffffffff16565b80519091501561160c5780806020019051810190611d2a9190611f9d565b61160c5760405162461bcd60e51b81526004016102899061262d565b6060611d558484600085611d5d565b949350505050565b606082471015611d7f5760405162461bcd60e51b81526004016102899061230e565b611d8885611e1e565b611da45760405162461bcd60e51b8152600401610289906125c8565b60006060866001600160a01b03168587604051611dc1919061205b565b60006040518083038185875af1925050503d8060008114611dfe576040519150601f19603f3d011682016040523d82523d6000602084013e611e03565b606091505b5091509150611e13828286611e24565b979650505050505050565b3b151590565b60608315611e335750816118ec565b825115611e435782518084602001fd5b8160405162461bcd60e51b815260040161028991906120f7565b80356001600160a01b0381168114610c0a57600080fd5b8035610c0a81612741565b805169ffffffffffffffffffff81168114610c0a57600080fd5b600060208284031215611eaa578081fd5b6118ec8383611e5d565b60008060408385031215611ec6578081fd5b611ed08484611e5d565b946020939093013593505050565b60008060408385031215611ef0578182fd5b823567ffffffffffffffff80821115611f07578384fd5b818501915085601f830112611f1a578384fd5b813581811115611f28578485fd5b60209150818102611f3a8382016126ee565b8281528381019085850183870186018b1015611f54578889fd5b8896505b84871015611f7e57611f6a8b82611e5d565b835260019690960195918501918501611f58565b5080975050505050611f9286828701611e74565b925050509250929050565b600060208284031215611fae578081fd5b81516118ec81612741565b600060208284031215611fca578081fd5b5035919050565b600060208284031215611fe2578081fd5b5051919050565b600080600080600060a08688031215612000578081fd5b61200a8787611e7f565b945060208601519350604086015192506060860151915061202e8760808801611e7f565b90509295509295909350565b60006020828403121561204b578081fd5b815160ff811681146118ec578182fd5b6000825161206d818460208701612715565b9190910192915050565b90565b6001600160a01b0391909116815260200190565b6001600160a01b039390931683526020830191909152604082015260600190565b6001600160a01b039384168152919092166020820152604081019190915260600190565b6001600160a01b03929092168252602082015260400190565b901515815260200190565b6000602082528251806020840152612116816040850160208701612715565b601f01601f19169190910160400192915050565b6020808252601f908201527f41646472657373206973206e6f74206f6e207468652077686974656c69737400604082015260600190565b60208082526014908201527314185d5cd8589b194e881b9bdd081c185d5cd95960621b604082015260600190565b60208082526007908201526610a5b2b2b832b960c91b604082015260600190565b60208082526026908201527f4f776e61626c653a206e6577206f776e657220697320746865207a65726f206160408201526564647265737360d01b606082015260800190565b6020808252600f908201526e151c985b9cd9995c8819985a5b1959608a1b604082015260600190565b6020808252601b908201527f536166654d6174683a206164646974696f6e206f766572666c6f770000000000604082015260600190565b6020808252602a908201527f5072697661746553616c652073746167657320617265206f766572206f72206e6040820152691bdd081cdd185c9d195960b21b606082015260800190565b6020808252601f908201527f546f6b656e56657374696e673a206e6f20746f6b656e73206172652064756500604082015260600190565b6020808252601e908201527f536166654d6174683a207375627472616374696f6e206f766572666c6f770000604082015260600190565b60208082526026908201527f416464726573733a20696e73756666696369656e742062616c616e636520666f6040820152651c8818d85b1b60d21b606082015260800190565b60208082526018908201527f56657374696e67207374617274206973206e6f74207365740000000000000000604082015260600190565b6020808252601a908201527f536166654d6174683a206469766973696f6e206279207a65726f000000000000604082015260600190565b60208082526017908201527f4761732070726963652065786365656473206c696d6974000000000000000000604082015260600190565b60208082526010908201526f14185d5cd8589b194e881c185d5cd95960821b604082015260600190565b60208082526021908201527f536166654d6174683a206d756c7469706c69636174696f6e206f766572666c6f6040820152607760f81b606082015260800190565b6020808252818101527f4f776e61626c653a2063616c6c6572206973206e6f7420746865206f776e6572604082015260600190565b6020808252601a908201527f4d696e696d756d20726571756972656420756e72656163686564000000000000604082015260600190565b6020808252601290820152714e6f2045544820746f20776974686472617760701b604082015260600190565b602080825260169082015275436f696e206973206e6f7420737570706f727465642160501b604082015260600190565b60208082526017908201527f496e636f72726563742074696d652070726f7669646564000000000000000000604082015260600190565b60208082526017908201527f5072697661746553616c65206973206e6f74206f766572000000000000000000604082015260600190565b6020808252601490820152734e6f20455243323020746f20776974686472617760601b604082015260600190565b6020808252601d908201527f416464726573733a2063616c6c20746f206e6f6e2d636f6e7472616374000000604082015260600190565b602080825260149082015273546f6b656e206973206e6f7420656e6f7567682160601b604082015260600190565b6020808252602a908201527f5361666545524332303a204552433230206f7065726174696f6e20646964206e6040820152691bdd081cdd58d8d9595960b21b606082015260800190565b6020808252601c908201527f56657374696e6720737461727420697320616c72656164792073657400000000604082015260600190565b60208082526018908201527f4d6178696d756d20616c6c6f7765642065786365656465640000000000000000604082015260600190565b90815260200190565b60405181810167ffffffffffffffff8111828210171561270d57600080fd5b604052919050565b60005b83811015612730578181015183820152602001612718565b838111156119fe5750506000910152565b80151581146117f157600080fdfea2646970667358221220c5bfc508c4d908a1b43ca7b36ccc726eba8556b9d6596855fcc4c9b3479ff6be64736f6c634300060c0033",
  "linkReferences": {},
  "deployedLinkReferences": {}
}