{
  "_format": "hh-sol-artifact-1",
  "contractName": "MasterChef",
  "sourceName": "contracts/staking/MasterChef.sol",
  "abi": [
    {
      "inputs": [
        {
          "internalType": "contract CronaToken",
          "name": "_crona",
          "type": "address"
        },
        {
          "internalType": "contract CronaBar",
          "name": "_xCrona",
          "type": "address"
        },
        {
          "internalType": "address",
          "name": "_treasury",
          "type": "address"
        },
        {
          "internalType": "uint256",
          "name": "_cronaPerSecond",
          "type": "uint256"
        },
        {
          "internalType": "uint256",
          "name": "_startTime",
          "type": "uint256"
        }
      ],
      "stateMutability": "nonpayable",
      "type": "constructor"
    },
    {
      "anonymous": false,
      "inputs": [
        {
          "indexed": true,
          "internalType": "address",
          "name": "user",
          "type": "address"
        },
        {
          "indexed": true,
          "internalType": "uint256",
          "name": "pid",
          "type": "uint256"
        },
        {
          "indexed": false,
          "internalType": "uint256",
          "name": "amount",
          "type": "uint256"
        }
      ],
      "name": "Deposit",
      "type": "event"
    },
    {
      "anonymous": false,
      "inputs": [
        {
          "indexed": true,
          "internalType": "address",
          "name": "user",
          "type": "address"
        },
        {
          "indexed": true,
          "internalType": "uint256",
          "name": "pid",
          "type": "uint256"
        },
        {
          "indexed": false,
          "internalType": "uint256",
          "name": "amount",
          "type": "uint256"
        }
      ],
      "name": "EmergencyWithdraw",
      "type": "event"
    },
    {
      "anonymous": false,
      "inputs": [
        {
          "indexed": true,
          "internalType": "address",
          "name": "previousOwner",
          "type": "address"
        },
        {
          "indexed": true,
          "internalType": "address",
          "name": "newOwner",
          "type": "address"
        }
      ],
      "name": "OwnershipTransferred",
      "type": "event"
    },
    {
      "anonymous": false,
      "inputs": [
        {
          "indexed": true,
          "internalType": "address",
          "name": "user",
          "type": "address"
        },
        {
          "indexed": true,
          "internalType": "uint256",
          "name": "pid",
          "type": "uint256"
        },
        {
          "indexed": false,
          "internalType": "uint256",
          "name": "amount",
          "type": "uint256"
        }
      ],
      "name": "Withdraw",
      "type": "event"
    },
    {
      "inputs": [],
      "name": "BONUS_MULTIPLIER",
      "outputs": [
        {
          "internalType": "uint256",
          "name": "",
          "type": "uint256"
        }
      ],
      "stateMutability": "view",
      "type": "function"
    },
    {
      "inputs": [
        {
          "internalType": "uint256",
          "name": "_allocPoint",
          "type": "uint256"
        },
        {
          "internalType": "contract IERC20",
          "name": "_lpToken",
          "type": "address"
        },
        {
          "internalType": "bool",
          "name": "_withUpdate",
          "type": "bool"
        }
      ],
      "name": "add",
      "outputs": [],
      "stateMutability": "nonpayable",
      "type": "function"
    },
    {
      "inputs": [],
      "name": "crona",
      "outputs": [
        {
          "internalType": "contract CronaToken",
          "name": "",
          "type": "address"
        }
      ],
      "stateMutability": "view",
      "type": "function"
    },
    {
      "inputs": [],
      "name": "cronaPerSecond",
      "outputs": [
        {
          "internalType": "uint256",
          "name": "",
          "type": "uint256"
        }
      ],
      "stateMutability": "view",
      "type": "function"
    },
    {
      "inputs": [
        {
          "internalType": "uint256",
          "name": "_pid",
          "type": "uint256"
        },
        {
          "internalType": "uint256",
          "name": "_amount",
          "type": "uint256"
        }
      ],
      "name": "deposit",
      "outputs": [],
      "stateMutability": "nonpayable",
      "type": "function"
    },
    {
      "inputs": [
        {
          "internalType": "uint256",
          "name": "_pid",
          "type": "uint256"
        }
      ],
      "name": "emergencyWithdraw",
      "outputs": [],
      "stateMutability": "nonpayable",
      "type": "function"
    },
    {
      "inputs": [
        {
          "internalType": "uint256",
          "name": "_amount",
          "type": "uint256"
        }
      ],
      "name": "enterStaking",
      "outputs": [],
      "stateMutability": "nonpayable",
      "type": "function"
    },
    {
      "inputs": [
        {
          "internalType": "uint256",
          "name": "_from",
          "type": "uint256"
        },
        {
          "internalType": "uint256",
          "name": "_to",
          "type": "uint256"
        }
      ],
      "name": "getMultiplier",
      "outputs": [
        {
          "internalType": "uint256",
          "name": "",
          "type": "uint256"
        }
      ],
      "stateMutability": "view",
      "type": "function"
    },
    {
      "inputs": [
        {
          "internalType": "uint256",
          "name": "_amount",
          "type": "uint256"
        }
      ],
      "name": "leaveStaking",
      "outputs": [],
      "stateMutability": "nonpayable",
      "type": "function"
    },
    {
      "inputs": [],
      "name": "massUpdatePools",
      "outputs": [],
      "stateMutability": "nonpayable",
      "type": "function"
    },
    {
      "inputs": [],
      "name": "owner",
      "outputs": [
        {
          "internalType": "address",
          "name": "",
          "type": "address"
        }
      ],
      "stateMutability": "view",
      "type": "function"
    },
    {
      "inputs": [
        {
          "internalType": "uint256",
          "name": "_pid",
          "type": "uint256"
        },
        {
          "internalType": "address",
          "name": "_user",
          "type": "address"
        }
      ],
      "name": "pendingCrona",
      "outputs": [
        {
          "internalType": "uint256",
          "name": "",
          "type": "uint256"
        }
      ],
      "stateMutability": "view",
      "type": "function"
    },
    {
      "inputs": [
        {
          "internalType": "uint256",
          "name": "",
          "type": "uint256"
        }
      ],
      "name": "poolInfo",
      "outputs": [
        {
          "internalType": "contract IERC20",
          "name": "lpToken",
          "type": "address"
        },
        {
          "internalType": "uint256",
          "name": "allocPoint",
          "type": "uint256"
        },
        {
          "internalType": "uint256",
          "name": "lastRewardTime",
          "type": "uint256"
        },
        {
          "internalType": "uint256",
          "name": "accCronaPerShare",
          "type": "uint256"
        }
      ],
      "stateMutability": "view",
      "type": "function"
    },
    {
      "inputs": [],
      "name": "poolLength",
      "outputs": [
        {
          "internalType": "uint256",
          "name": "",
          "type": "uint256"
        }
      ],
      "stateMutability": "view",
      "type": "function"
    },
    {
      "inputs": [],
      "name": "renounceOwnership",
      "outputs": [],
      "stateMutability": "nonpayable",
      "type": "function"
    },
    {
      "inputs": [
        {
          "internalType": "uint256",
          "name": "_pid",
          "type": "uint256"
        },
        {
          "internalType": "uint256",
          "name": "_allocPoint",
          "type": "uint256"
        },
        {
          "internalType": "bool",
          "name": "_withUpdate",
          "type": "bool"
        }
      ],
      "name": "set",
      "outputs": [],
      "stateMutability": "nonpayable",
      "type": "function"
    },
    {
      "inputs": [
        {
          "internalType": "uint256",
          "name": "_cronaPerSecond",
          "type": "uint256"
        }
      ],
      "name": "setCronaPerSecond",
      "outputs": [],
      "stateMutability": "nonpayable",
      "type": "function"
    },
    {
      "inputs": [
        {
          "internalType": "address",
          "name": "_treasury",
          "type": "address"
        }
      ],
      "name": "setTreasury",
      "outputs": [],
      "stateMutability": "nonpayable",
      "type": "function"
    },
    {
      "inputs": [],
      "name": "startTime",
      "outputs": [
        {
          "internalType": "uint256",
          "name": "",
          "type": "uint256"
        }
      ],
      "stateMutability": "view",
      "type": "function"
    },
    {
      "inputs": [],
      "name": "totalAllocPoint",
      "outputs": [
        {
          "internalType": "uint256",
          "name": "",
          "type": "uint256"
        }
      ],
      "stateMutability": "view",
      "type": "function"
    },
    {
      "inputs": [
        {
          "internalType": "address",
          "name": "newOwner",
          "type": "address"
        }
      ],
      "name": "transferOwnership",
      "outputs": [],
      "stateMutability": "nonpayable",
      "type": "function"
    },
    {
      "inputs": [],
      "name": "treasury",
      "outputs": [
        {
          "internalType": "address",
          "name": "",
          "type": "address"
        }
      ],
      "stateMutability": "view",
      "type": "function"
    },
    {
      "inputs": [
        {
          "internalType": "uint256",
          "name": "multiplierNumber",
          "type": "uint256"
        }
      ],
      "name": "updateMultiplier",
      "outputs": [],
      "stateMutability": "nonpayable",
      "type": "function"
    },
    {
      "inputs": [
        {
          "internalType": "uint256",
          "name": "_pid",
          "type": "uint256"
        }
      ],
      "name": "updatePool",
      "outputs": [],
      "stateMutability": "nonpayable",
      "type": "function"
    },
    {
      "inputs": [
        {
          "internalType": "uint256",
          "name": "",
          "type": "uint256"
        },
        {
          "internalType": "address",
          "name": "",
          "type": "address"
        }
      ],
      "name": "userInfo",
      "outputs": [
        {
          "internalType": "uint256",
          "name": "amount",
          "type": "uint256"
        },
        {
          "internalType": "uint256",
          "name": "rewardDebt",
          "type": "uint256"
        }
      ],
      "stateMutability": "view",
      "type": "function"
    },
    {
      "inputs": [
        {
          "internalType": "uint256",
          "name": "_pid",
          "type": "uint256"
        },
        {
          "internalType": "uint256",
          "name": "_amount",
          "type": "uint256"
        }
      ],
      "name": "withdraw",
      "outputs": [],
      "stateMutability": "nonpayable",
      "type": "function"
    },
    {
      "inputs": [],
      "name": "xCrona",
      "outputs": [
        {
          "internalType": "contract CronaBar",
          "name": "",
          "type": "address"
        }
      ],
      "stateMutability": "view",
      "type": "function"
    }
  ],
  "bytecode": "0x60806040526001600555600060085534801561001a57600080fd5b50604051611f40380380611f40833981810160405260a081101561003d57600080fd5b5080516020820151604083015160608401516080909401519293919290919060006100666101e0565b600080546001600160a01b0319166001600160a01b0383169081178255604051929350917f8be0079c531659141344cd1fd0a4f28419497f9722a3daafe3b4186f6b6457e0908290a350600180546001600160a01b03199081166001600160a01b039788169081178355600280548316978916979097179096556003805482169588169590951790945560049283556009829055604080516080810182529586526103e86020870181815291870193845260006060880181815260068054958601815590915296517ff652222313e28459528d920b65115c16c04f3efc82aaedc97be59f3f377c0d3f939095029283018054909616949097169390931790935590517ff652222313e28459528d920b65115c16c04f3efc82aaedc97be59f3f377c0d40830155517ff652222313e28459528d920b65115c16c04f3efc82aaedc97be59f3f377c0d4182015590517ff652222313e28459528d920b65115c16c04f3efc82aaedc97be59f3f377c0d42909101556008556101e4565b3390565b611d4d806101f36000396000f3fe608060405234801561001057600080fd5b50600436106101a95760003560e01c806364482f79116100f957806393f1a40b11610097578063e2bbb15811610071578063e2bbb1581461043f578063e5c8053614610462578063f0f442601461046a578063f2fde38b14610490576101a9565b806393f1a40b146103d5578063c7d2ba0c1461041a578063d7428a8c14610422576101a9565b80637b270bdd116100d35780637b270bdd146103765780638aa28550146103a25780638da5cb5b146103aa5780638dbb1e3a146103b2576101a9565b806364482f791461033b578063715018a61461036657806378e979251461036e576101a9565b806341441d3b116101665780635312ea8e116101405780635312ea8e146102f15780635ffe61461461030e57806361d027b31461032b578063630b5ba114610333576101a9565b806341441d3b14610294578063441a3e70146102b157806351eb05a6146102d4576101a9565b8063081e3eda146101ae5780631058d281146101c85780631526fe27146101e757806317caf6f1146102345780631eaaa0451461023c5780632aa14ee014610270575b600080fd5b6101b66104b6565b60408051918252519081900360200190f35b6101e5600480360360208110156101de57600080fd5b50356104bc565b005b610204600480360360208110156101fd57600080fd5b50356106a0565b604080516001600160a01b0390951685526020850193909352838301919091526060830152519081900360800190f35b6101b66106e1565b6101e56004803603606081101561025257600080fd5b508035906001600160a01b03602082013516906040013515156106e7565b610278610877565b604080516001600160a01b039092168252519081900360200190f35b6101e5600480360360208110156102aa57600080fd5b5035610886565b6101e5600480360360408110156102c757600080fd5b5080359060200135610a1a565b6101e5600480360360208110156102ea57600080fd5b5035610bbf565b6101e56004803603602081101561030757600080fd5b5035610deb565b6101e56004803603602081101561032457600080fd5b5035610e86565b610278610eed565b6101e5610efc565b6101e56004803603606081101561035157600080fd5b50803590602081013590604001351515610f1f565b6101e5611006565b6101b66110b2565b6101b66004803603604081101561038c57600080fd5b50803590602001356001600160a01b03166110b8565b6101b661121c565b610278611222565b6101b6600480360360408110156103c857600080fd5b5080359060200135611231565b610401600480360360408110156103eb57600080fd5b50803590602001356001600160a01b031661124c565b6040805192835260208301919091528051918290030190f35b610278611270565b6101e56004803603602081101561043857600080fd5b503561127f565b6101e56004803603604081101561045557600080fd5b5080359060200135611344565b6101b66114a8565b6101e56004803603602081101561048057600080fd5b50356001600160a01b03166114ae565b6101e5600480360360208110156104a657600080fd5b50356001600160a01b0316611532565b60065490565b600060066000815481106104cc57fe5b600091825260208083203384527f6d5257204ebe7d88fd91ae87941cb2dd9d8062b64ae5a2bd2d28ec40b9fbf6df9091526040909220805460049092029092019250831115610557576040805162461bcd60e51b81526020600482015260126024820152711dda5d1a191c985dce881b9bdd0819dbdbd960721b604482015290519081900360640190fd5b6105616000610bbf565b600061059b826001015461059564e8d4a5100061058f8760030154876000015461163490919063ffffffff16565b9061168d565b906116f4565b905080156105ad576105ad3382611751565b83156105d75781546105bf90856116f4565b825582546105d7906001600160a01b031633866117c2565b600383015482546105f29164e8d4a510009161058f91611634565b600183015560025460408051632770a7eb60e21b81523360048201526024810187905290516001600160a01b0390921691639dc29fac9160448082019260009290919082900301818387803b15801561064a57600080fd5b505af115801561065e573d6000803e3d6000fd5b5050604080518781529051600093503392507ff279e6a1f5e320cca91135676d9cb6e44ca8a08c0b88342bcdb1144f6511b5689181900360200190a350505050565b600681815481106106ad57fe5b600091825260209091206004909102018054600182015460028301546003909301546001600160a01b039092169350919084565b60085481565b6106ef611819565b6001600160a01b0316610700611222565b6001600160a01b031614610749576040805162461bcd60e51b81526020600482018190526024820152600080516020611cce833981519152604482015290519081900360640190fd5b801561075757610757610efc565b6000600954421161076a5760095461076c565b425b60085490915061077c908561181d565b600855604080516080810182526001600160a01b0385811682526020820187815292820184815260006060840181815260068054600181018255925293517ff652222313e28459528d920b65115c16c04f3efc82aaedc97be59f3f377c0d3f600490920291820180546001600160a01b031916919094161790925592517ff652222313e28459528d920b65115c16c04f3efc82aaedc97be59f3f377c0d4082015591517ff652222313e28459528d920b65115c16c04f3efc82aaedc97be59f3f377c0d41830155517ff652222313e28459528d920b65115c16c04f3efc82aaedc97be59f3f377c0d4290910155610871611877565b50505050565b6001546001600160a01b031681565b6000600660008154811061089657fe5b600091825260208083203384527f6d5257204ebe7d88fd91ae87941cb2dd9d8062b64ae5a2bd2d28ec40b9fbf6df909152604083206004909202019250906108dd90610bbf565b805415610926576000610912826001015461059564e8d4a5100061058f8760030154876000015461163490919063ffffffff16565b90508015610924576109243382611751565b505b8215610952578154610943906001600160a01b031633308661193c565b805461094f908461181d565b81555b6003820154815461096d9164e8d4a510009161058f91611634565b6001820155600254604080516340c10f1960e01b81523360048201526024810186905290516001600160a01b03909216916340c10f199160448082019260009290919082900301818387803b1580156109c557600080fd5b505af11580156109d9573d6000803e3d6000fd5b5050604080518681529051600093503392507f90890809c654f11d6e72a28fa60149770a0d11ec6c92319d6ceb2bb0a4ea1a159181900360200190a3505050565b81610a6c576040805162461bcd60e51b815260206004820152601b60248201527f77697468647261772043524f4e4120627920756e7374616b696e670000000000604482015290519081900360640190fd5b600060068381548110610a7b57fe5b600091825260208083208684526007825260408085203386529092529220805460049092029092019250831115610aee576040805162461bcd60e51b81526020600482015260126024820152711dda5d1a191c985dce881b9bdd0819dbdbd960721b604482015290519081900360640190fd5b610af784610bbf565b6000610b25826001015461059564e8d4a5100061058f8760030154876000015461163490919063ffffffff16565b90508015610b3757610b373382611751565b8315610b61578154610b4990856116f4565b82558254610b61906001600160a01b031633866117c2565b60038301548254610b7c9164e8d4a510009161058f91611634565b6001830155604080518581529051869133917ff279e6a1f5e320cca91135676d9cb6e44ca8a08c0b88342bcdb1144f6511b5689181900360200190a35050505050565b600060068281548110610bce57fe5b9060005260206000209060040201905080600201544211610bef5750610de8565b8054604080516370a0823160e01b815230600482015290516000926001600160a01b0316916370a08231916024808301926020929190829003018186803b158015610c3957600080fd5b505afa158015610c4d573d6000803e3d6000fd5b505050506040513d6020811015610c6357600080fd5b5051905080610c79575042600290910155610de8565b6000610c89836002015442611231565b90506000610cb660085461058f8660010154610cb06004548761163490919063ffffffff16565b90611634565b6001546003549192506001600160a01b03908116916340c10f199116610cdd84600a61168d565b6040518363ffffffff1660e01b815260040180836001600160a01b0316815260200182815260200192505050600060405180830381600087803b158015610d2357600080fd5b505af1158015610d37573d6000803e3d6000fd5b5050600154600254604080516340c10f1960e01b81526001600160a01b0392831660048201526024810187905290519190921693506340c10f199250604480830192600092919082900301818387803b158015610d9357600080fd5b505af1158015610da7573d6000803e3d6000fd5b50505050610dd5610dca8461058f64e8d4a510008561163490919063ffffffff16565b60038601549061181d565b6003850155505042600290920191909155505b50565b600060068281548110610dfa57fe5b60009182526020808320858452600782526040808520338087529352909320805460049093029093018054909450610e3f926001600160a01b039190911691906117c2565b80546040805191825251849133917fbb757047c2b5f3974fe26b7c10f732e7bce710b0952a71082702781e62ae05959181900360200190a360008082556001909101555050565b610e8e611819565b6001600160a01b0316610e9f611222565b6001600160a01b031614610ee8576040805162461bcd60e51b81526020600482018190526024820152600080516020611cce833981519152604482015290519081900360640190fd5b600555565b6003546001600160a01b031681565b60065460005b81811015610f1b57610f1381610bbf565b600101610f02565b5050565b610f27611819565b6001600160a01b0316610f38611222565b6001600160a01b031614610f81576040805162461bcd60e51b81526020600482018190526024820152600080516020611cce833981519152604482015290519081900360640190fd5b8015610f8f57610f8f610efc565b600060068481548110610f9e57fe5b90600052602060002090600402016001015490508260068581548110610fc057fe5b90600052602060002090600402016001018190555082811461087157610ffb83610ff5836008546116f490919063ffffffff16565b9061181d565b600855610871611877565b61100e611819565b6001600160a01b031661101f611222565b6001600160a01b031614611068576040805162461bcd60e51b81526020600482018190526024820152600080516020611cce833981519152604482015290519081900360640190fd5b600080546040516001600160a01b03909116907f8be0079c531659141344cd1fd0a4f28419497f9722a3daafe3b4186f6b6457e0908390a3600080546001600160a01b0319169055565b60095481565b600080600684815481106110c857fe5b600091825260208083208784526007825260408085206001600160a01b03898116875290845281862060049586029093016003810154815484516370a0823160e01b81523098810198909852935191985093969395939492909116926370a08231926024808301939192829003018186803b15801561114657600080fd5b505afa15801561115a573d6000803e3d6000fd5b505050506040513d602081101561117057600080fd5b505160028501549091504211801561118757508015155b156111e757600061119c856002015442611231565b905060006111c360085461058f8860010154610cb06004548761163490919063ffffffff16565b90506111e26111db8461058f8464e8d4a51000611634565b859061181d565b935050505b61120f836001015461059564e8d4a5100061058f86886000015461163490919063ffffffff16565b9450505050505b92915050565b60055481565b6000546001600160a01b031690565b60055460009061124590610cb084866116f4565b9392505050565b60076020908152600092835260408084209091529082529020805460019091015482565b6002546001600160a01b031681565b611287611819565b6001600160a01b0316611298611222565b6001600160a01b0316146112e1576040805162461bcd60e51b81526020600482018190526024820152600080516020611cce833981519152604482015290519081900360640190fd5b671bc16d674ec80000811115611337576040805162461bcd60e51b81526020600482015260166024820152754d617820706572207365636f6e6420322043524f4e4160501b604482015290519081900360640190fd5b61133f610efc565b600455565b81611396576040805162461bcd60e51b815260206004820152601860248201527f6465706f7369742043524f4e41206279207374616b696e670000000000000000604482015290519081900360640190fd5b6000600683815481106113a557fe5b600091825260208083208684526007825260408085203386529092529220600490910290910191506113d684610bbf565b80541561141f57600061140b826001015461059564e8d4a5100061058f8760030154876000015461163490919063ffffffff16565b9050801561141d5761141d3382611751565b505b821561144b57815461143c906001600160a01b031633308661193c565b8054611448908461181d565b81555b600382015481546114669164e8d4a510009161058f91611634565b6001820155604080518481529051859133917f90890809c654f11d6e72a28fa60149770a0d11ec6c92319d6ceb2bb0a4ea1a159181900360200190a350505050565b60045481565b6114b6611819565b6001600160a01b03166114c7611222565b6001600160a01b031614611510576040805162461bcd60e51b81526020600482018190526024820152600080516020611cce833981519152604482015290519081900360640190fd5b600380546001600160a01b0319166001600160a01b0392909216919091179055565b61153a611819565b6001600160a01b031661154b611222565b6001600160a01b031614611594576040805162461bcd60e51b81526020600482018190526024820152600080516020611cce833981519152604482015290519081900360640190fd5b6001600160a01b0381166115d95760405162461bcd60e51b8152600401808060200182810382526026815260200180611c616026913960400191505060405180910390fd5b600080546040516001600160a01b03808516939216917f8be0079c531659141344cd1fd0a4f28419497f9722a3daafe3b4186f6b6457e091a3600080546001600160a01b0319166001600160a01b0392909216919091179055565b60008261164357506000611216565b8282028284828161165057fe5b04146112455760405162461bcd60e51b8152600401808060200182810382526021815260200180611cad6021913960400191505060405180910390fd5b60008082116116e3576040805162461bcd60e51b815260206004820152601a60248201527f536166654d6174683a206469766973696f6e206279207a65726f000000000000604482015290519081900360640190fd5b8183816116ec57fe5b049392505050565b60008282111561174b576040805162461bcd60e51b815260206004820152601e60248201527f536166654d6174683a207375627472616374696f6e206f766572666c6f770000604482015290519081900360640190fd5b50900390565b60025460408051632a9df53360e01b81526001600160a01b0385811660048301526024820185905291519190921691632a9df53391604480830192600092919082900301818387803b1580156117a657600080fd5b505af11580156117ba573d6000803e3d6000fd5b505050505050565b604080516001600160a01b038416602482015260448082018490528251808303909101815260649091019091526020810180516001600160e01b031663a9059cbb60e01b179052611814908490611992565b505050565b3390565b600082820183811015611245576040805162461bcd60e51b815260206004820152601b60248201527f536166654d6174683a206164646974696f6e206f766572666c6f770000000000604482015290519081900360640190fd5b600654600060015b828110156118c2576118b86006828154811061189757fe5b9060005260206000209060040201600101548361181d90919063ffffffff16565b915060010161187f565b508015610f1b576118d481600361168d565b905061190e81610ff560066000815481106118eb57fe5b9060005260206000209060040201600101546008546116f490919063ffffffff16565b60088190555080600660008154811061192357fe5b9060005260206000209060040201600101819055505050565b604080516001600160a01b0380861660248301528416604482015260648082018490528251808303909101815260849091019091526020810180516001600160e01b03166323b872dd60e01b1790526108719085905b60606119e7826040518060400160405280602081526020017f5361666545524332303a206c6f772d6c6576656c2063616c6c206661696c6564815250856001600160a01b0316611a439092919063ffffffff16565b80519091501561181457808060200190516020811015611a0657600080fd5b50516118145760405162461bcd60e51b815260040180806020018281038252602a815260200180611cee602a913960400191505060405180910390fd5b6060611a528484600085611a5a565b949350505050565b606082471015611a9b5760405162461bcd60e51b8152600401808060200182810382526026815260200180611c876026913960400191505060405180910390fd5b611aa485611bb6565b611af5576040805162461bcd60e51b815260206004820152601d60248201527f416464726573733a2063616c6c20746f206e6f6e2d636f6e7472616374000000604482015290519081900360640190fd5b60006060866001600160a01b031685876040518082805190602001908083835b60208310611b345780518252601f199092019160209182019101611b15565b6001836020036101000a03801982511681845116808217855250505050505090500191505060006040518083038185875af1925050503d8060008114611b96576040519150601f19603f3d011682016040523d82523d6000602084013e611b9b565b606091505b5091509150611bab828286611bbc565b979650505050505050565b3b151590565b60608315611bcb575081611245565b825115611bdb5782518084602001fd5b8160405162461bcd60e51b81526004018080602001828103825283818151815260200191508051906020019080838360005b83811015611c25578181015183820152602001611c0d565b50505050905090810190601f168015611c525780820380516001836020036101000a031916815260200191505b509250505060405180910390fdfe4f776e61626c653a206e6577206f776e657220697320746865207a65726f2061646472657373416464726573733a20696e73756666696369656e742062616c616e636520666f722063616c6c536166654d6174683a206d756c7469706c69636174696f6e206f766572666c6f774f776e61626c653a2063616c6c6572206973206e6f7420746865206f776e65725361666545524332303a204552433230206f7065726174696f6e20646964206e6f742073756363656564a2646970667358221220574769196c11dc7c7c0480c9acf2d83dfe679d2f1a5df46ee5dfab6a1a01296064736f6c634300060c0033",
  "linkReferences": {},
  "deployedLinkReferences": {}
}