{
  "_format": "hh-sol-artifact-1",
  "contractName": "TokenPublicSale",
  "sourceName": "contracts/tools/TokenPublicSale.sol",
  "abi": [
    {
      "inputs": [
        {
          "internalType": "address",
          "name": "_treasury",
          "type": "address"
        },
        {
          "internalType": "address",
          "name": "_keeper",
          "type": "address"
        },
        {
          "internalType": "address",
          "name": "_usdc",
          "type": "address"
        },
        {
          "internalType": "address",
          "name": "_token",
          "type": "address"
        },
        {
          "internalType": "uint256",
          "name": "_tokenPrice",
          "type": "uint256"
        },
        {
          "internalType": "uint256",
          "name": "_basePrice",
          "type": "uint256"
        },
        {
          "internalType": "uint256",
          "name": "_minTokensAmount",
          "type": "uint256"
        },
        {
          "internalType": "uint256",
          "name": "_maxTokensAmount",
          "type": "uint256"
        },
        {
          "internalType": "uint256",
          "name": "_preSaleTokenPool",
          "type": "uint256"
        },
        {
          "internalType": "uint256",
          "name": "_preSaleStart",
          "type": "uint256"
        },
        {
          "internalType": "uint256",
          "name": "_preSaleEnd",
          "type": "uint256"
        },
        {
          "internalType": "uint256",
          "name": "_vestingDuration",
          "type": "uint256"
        }
      ],
      "stateMutability": "nonpayable",
      "type": "constructor"
    },
    {
      "anonymous": false,
      "inputs": [
        {
          "indexed": true,
          "internalType": "address",
          "name": "previousOwner",
          "type": "address"
        },
        {
          "indexed": true,
          "internalType": "address",
          "name": "newOwner",
          "type": "address"
        }
      ],
      "name": "OwnershipTransferred",
      "type": "event"
    },
    {
      "anonymous": false,
      "inputs": [
        {
          "indexed": false,
          "internalType": "address",
          "name": "account",
          "type": "address"
        }
      ],
      "name": "Paused",
      "type": "event"
    },
    {
      "anonymous": false,
      "inputs": [
        {
          "indexed": true,
          "internalType": "address",
          "name": "user",
          "type": "address"
        },
        {
          "indexed": false,
          "internalType": "address",
          "name": "coin",
          "type": "address"
        },
        {
          "indexed": false,
          "internalType": "uint256",
          "name": "coinAmount",
          "type": "uint256"
        },
        {
          "indexed": false,
          "internalType": "uint256",
          "name": "tokenAmount",
          "type": "uint256"
        }
      ],
      "name": "TokenPurchased",
      "type": "event"
    },
    {
      "anonymous": false,
      "inputs": [
        {
          "indexed": true,
          "internalType": "address",
          "name": "user",
          "type": "address"
        },
        {
          "indexed": false,
          "internalType": "uint256",
          "name": "tokenAmount",
          "type": "uint256"
        }
      ],
      "name": "TokensClaimed",
      "type": "event"
    },
    {
      "anonymous": false,
      "inputs": [
        {
          "indexed": false,
          "internalType": "address",
          "name": "account",
          "type": "address"
        }
      ],
      "name": "Unpaused",
      "type": "event"
    },
    {
      "inputs": [],
      "name": "PRECISION",
      "outputs": [
        {
          "internalType": "uint256",
          "name": "",
          "type": "uint256"
        }
      ],
      "stateMutability": "view",
      "type": "function"
    },
    {
      "inputs": [],
      "name": "USDC",
      "outputs": [
        {
          "internalType": "address",
          "name": "",
          "type": "address"
        }
      ],
      "stateMutability": "view",
      "type": "function"
    },
    {
      "inputs": [],
      "name": "WITHDRAWAL_PERIOD",
      "outputs": [
        {
          "internalType": "uint256",
          "name": "",
          "type": "uint256"
        }
      ],
      "stateMutability": "view",
      "type": "function"
    },
    {
      "inputs": [
        {
          "internalType": "address",
          "name": "_receiver",
          "type": "address"
        },
        {
          "internalType": "uint256",
          "name": "_amount",
          "type": "uint256"
        }
      ],
      "name": "adminAddPurchase",
      "outputs": [],
      "stateMutability": "nonpayable",
      "type": "function"
    },
    {
      "inputs": [],
      "name": "adminPause",
      "outputs": [],
      "stateMutability": "nonpayable",
      "type": "function"
    },
    {
      "inputs": [
        {
          "internalType": "uint256",
          "name": "_price",
          "type": "uint256"
        }
      ],
      "name": "adminSetBasePrice",
      "outputs": [],
      "stateMutability": "nonpayable",
      "type": "function"
    },
    {
      "inputs": [
        {
          "internalType": "uint256",
          "name": "_maxGasPrice",
          "type": "uint256"
        }
      ],
      "name": "adminSetMaxGasPrice",
      "outputs": [],
      "stateMutability": "nonpayable",
      "type": "function"
    },
    {
      "inputs": [
        {
          "internalType": "uint256",
          "name": "_maxToken",
          "type": "uint256"
        }
      ],
      "name": "adminSetMaxToken",
      "outputs": [],
      "stateMutability": "nonpayable",
      "type": "function"
    },
    {
      "inputs": [
        {
          "internalType": "uint256",
          "name": "_minToken",
          "type": "uint256"
        }
      ],
      "name": "adminSetMinToken",
      "outputs": [],
      "stateMutability": "nonpayable",
      "type": "function"
    },
    {
      "inputs": [
        {
          "internalType": "address",
          "name": "_priceFeed",
          "type": "address"
        }
      ],
      "name": "adminSetPriceFeed",
      "outputs": [],
      "stateMutability": "nonpayable",
      "type": "function"
    },
    {
      "inputs": [
        {
          "internalType": "address",
          "name": "_treasury",
          "type": "address"
        }
      ],
      "name": "adminSetTreasury",
      "outputs": [],
      "stateMutability": "nonpayable",
      "type": "function"
    },
    {
      "inputs": [
        {
          "internalType": "uint256",
          "name": "_vestingStart",
          "type": "uint256"
        }
      ],
      "name": "adminSetVestingStart",
      "outputs": [],
      "stateMutability": "nonpayable",
      "type": "function"
    },
    {
      "inputs": [],
      "name": "adminUnpause",
      "outputs": [],
      "stateMutability": "nonpayable",
      "type": "function"
    },
    {
      "inputs": [
        {
          "internalType": "address",
          "name": "ERC20token",
          "type": "address"
        }
      ],
      "name": "adminWithdrawERC20",
      "outputs": [],
      "stateMutability": "nonpayable",
      "type": "function"
    },
    {
      "inputs": [],
      "name": "adminWithdrawETH",
      "outputs": [],
      "stateMutability": "nonpayable",
      "type": "function"
    },
    {
      "inputs": [],
      "name": "basePrice",
      "outputs": [
        {
          "internalType": "uint256",
          "name": "",
          "type": "uint256"
        }
      ],
      "stateMutability": "view",
      "type": "function"
    },
    {
      "inputs": [
        {
          "internalType": "address",
          "name": "_coin",
          "type": "address"
        },
        {
          "internalType": "uint256",
          "name": "_amount",
          "type": "uint256"
        }
      ],
      "name": "calcCoinPurchasedAmount",
      "outputs": [
        {
          "internalType": "uint256",
          "name": "",
          "type": "uint256"
        }
      ],
      "stateMutability": "view",
      "type": "function"
    },
    {
      "inputs": [
        {
          "internalType": "uint256",
          "name": "_amount",
          "type": "uint256"
        }
      ],
      "name": "calcEthPurchasedAmount",
      "outputs": [
        {
          "internalType": "uint256",
          "name": "",
          "type": "uint256"
        }
      ],
      "stateMutability": "view",
      "type": "function"
    },
    {
      "inputs": [],
      "name": "claim",
      "outputs": [],
      "stateMutability": "nonpayable",
      "type": "function"
    },
    {
      "inputs": [
        {
          "internalType": "address",
          "name": "_user",
          "type": "address"
        }
      ],
      "name": "claimable",
      "outputs": [
        {
          "internalType": "uint256",
          "name": "",
          "type": "uint256"
        }
      ],
      "stateMutability": "view",
      "type": "function"
    },
    {
      "inputs": [
        {
          "internalType": "address",
          "name": "_user",
          "type": "address"
        }
      ],
      "name": "claimed",
      "outputs": [
        {
          "internalType": "uint256",
          "name": "",
          "type": "uint256"
        }
      ],
      "stateMutability": "view",
      "type": "function"
    },
    {
      "inputs": [
        {
          "internalType": "address",
          "name": "_user",
          "type": "address"
        }
      ],
      "name": "locked",
      "outputs": [
        {
          "internalType": "uint256",
          "name": "",
          "type": "uint256"
        }
      ],
      "stateMutability": "view",
      "type": "function"
    },
    {
      "inputs": [],
      "name": "maxGasPrice",
      "outputs": [
        {
          "internalType": "uint256",
          "name": "",
          "type": "uint256"
        }
      ],
      "stateMutability": "view",
      "type": "function"
    },
    {
      "inputs": [],
      "name": "maxTokensAmount",
      "outputs": [
        {
          "internalType": "uint256",
          "name": "",
          "type": "uint256"
        }
      ],
      "stateMutability": "view",
      "type": "function"
    },
    {
      "inputs": [],
      "name": "minTokensAmount",
      "outputs": [
        {
          "internalType": "uint256",
          "name": "",
          "type": "uint256"
        }
      ],
      "stateMutability": "view",
      "type": "function"
    },
    {
      "inputs": [],
      "name": "owner",
      "outputs": [
        {
          "internalType": "address",
          "name": "",
          "type": "address"
        }
      ],
      "stateMutability": "view",
      "type": "function"
    },
    {
      "inputs": [],
      "name": "paused",
      "outputs": [
        {
          "internalType": "bool",
          "name": "",
          "type": "bool"
        }
      ],
      "stateMutability": "view",
      "type": "function"
    },
    {
      "inputs": [],
      "name": "preSaleEnd",
      "outputs": [
        {
          "internalType": "uint256",
          "name": "",
          "type": "uint256"
        }
      ],
      "stateMutability": "view",
      "type": "function"
    },
    {
      "inputs": [],
      "name": "preSaleStart",
      "outputs": [
        {
          "internalType": "uint256",
          "name": "",
          "type": "uint256"
        }
      ],
      "stateMutability": "view",
      "type": "function"
    },
    {
      "inputs": [],
      "name": "preSaleTokenPool",
      "outputs": [
        {
          "internalType": "uint256",
          "name": "",
          "type": "uint256"
        }
      ],
      "stateMutability": "view",
      "type": "function"
    },
    {
      "inputs": [],
      "name": "priceFeed",
      "outputs": [
        {
          "internalType": "contract AggregatorV3Interface",
          "name": "",
          "type": "address"
        }
      ],
      "stateMutability": "view",
      "type": "function"
    },
    {
      "inputs": [
        {
          "internalType": "address",
          "name": "coin",
          "type": "address"
        },
        {
          "internalType": "uint256",
          "name": "amount",
          "type": "uint256"
        }
      ],
      "name": "purchaseTokenWithCoin",
      "outputs": [],
      "stateMutability": "nonpayable",
      "type": "function"
    },
    {
      "inputs": [],
      "name": "purchaseTokenWithETH",
      "outputs": [],
      "stateMutability": "payable",
      "type": "function"
    },
    {
      "inputs": [
        {
          "internalType": "address",
          "name": "",
          "type": "address"
        }
      ],
      "name": "purchased",
      "outputs": [
        {
          "internalType": "uint256",
          "name": "",
          "type": "uint256"
        }
      ],
      "stateMutability": "view",
      "type": "function"
    },
    {
      "inputs": [],
      "name": "purchasedPreSale",
      "outputs": [
        {
          "internalType": "uint256",
          "name": "",
          "type": "uint256"
        }
      ],
      "stateMutability": "view",
      "type": "function"
    },
    {
      "inputs": [],
      "name": "renounceOwnership",
      "outputs": [],
      "stateMutability": "nonpayable",
      "type": "function"
    },
    {
      "inputs": [],
      "name": "token",
      "outputs": [
        {
          "internalType": "address",
          "name": "",
          "type": "address"
        }
      ],
      "stateMutability": "view",
      "type": "function"
    },
    {
      "inputs": [],
      "name": "tokenPrice",
      "outputs": [
        {
          "internalType": "uint256",
          "name": "",
          "type": "uint256"
        }
      ],
      "stateMutability": "view",
      "type": "function"
    },
    {
      "inputs": [
        {
          "internalType": "address",
          "name": "newOwner",
          "type": "address"
        }
      ],
      "name": "transferOwnership",
      "outputs": [],
      "stateMutability": "nonpayable",
      "type": "function"
    },
    {
      "inputs": [],
      "name": "vestingDuration",
      "outputs": [
        {
          "internalType": "uint256",
          "name": "",
          "type": "uint256"
        }
      ],
      "stateMutability": "view",
      "type": "function"
    },
    {
      "inputs": [],
      "name": "vestingStart",
      "outputs": [
        {
          "internalType": "uint256",
          "name": "",
          "type": "uint256"
        }
      ],
      "stateMutability": "view",
      "type": "function"
    },
    {
      "stateMutability": "payable",
      "type": "receive"
    }
  ],
  "bytecode": "0x60806040523480156200001157600080fd5b506040516200272c3803806200272c8339810160408190526200003491620001d3565b600062000040620001b1565b600080546001600160a01b0319166001600160a01b0383169081178255604051929350917f8be0079c531659141344cd1fd0a4f28419497f9722a3daafe3b4186f6b6457e0908290a3506000805460ff60a01b191690556001600160a01b038c16620000c95760405162461bcd60e51b8152600401620000c090620002c9565b60405180910390fd5b60008311620000ec5760405162461bcd60e51b8152600401620000c090620002a9565b8282116200010e5760405162461bcd60e51b8152600401620000c09062000283565b62ed4e008110620001335760405162461bcd60e51b8152600401620000c090620002ec565b601180546001600160a01b039d8e166001600160a01b031991821617909155601280549c8e169c82169c909c17909b55600180549a8d169a8c169a909a17909955600b805498909b169790991696909617909855600c93909355601091909155600255600355600893909355600692909255600755600a5562000330565b3390565b80516001600160a01b0381168114620001cd57600080fd5b92915050565b6000806000806000806000806000806000806101808d8f031215620001f6578788fd5b620002028e8e620001b5565b9b50620002138e60208f01620001b5565b9a50620002248e60408f01620001b5565b9950620002358e60608f01620001b5565b985060808d0151975060a08d0151965060c08d0151955060e08d015194506101008d015193506101208d015192506101408d015191506101608d015190509295989b509295989b509295989b565b6020808252600c908201526b1cdd185c9d080f8f48195b9960a21b604082015260600190565b602080825260069082015265085cdd185c9d60d21b604082015260600190565b60208082526009908201526821747265617375727960b81b604082015260600190565b60208082526024908201527f76657374696e674475726174696f6e203e3d205749544844524157414c5f5045604082015263149253d160e21b606082015260800190565b6123ec80620003406000396000f3fe60806040526004361061024a5760003560e01c80636c4962a911610139578063aaf5eb68116100b6578063cbf9fe5f1161007a578063cbf9fe5f14610641578063d4b1948514610661578063dea5465114610681578063ed84fc91146106a1578063f2fde38b146106b6578063fc0c546a146106d6576102ab565b8063aaf5eb68146105c2578063b0b401c2146105d7578063c20860af146105f7578063c7876ea41461060c578063c884ef8314610621576102ab565b80637ff9b596116100fd5780637ff9b5961461056657806389a302711461057b5780638a3ef9a7146105905780638da5cb5b1461059857806392f9c067146105ad576102ab565b80636c4962a9146104da578063715018a6146104ef578063741bef1a1461050457806377bb5c45146105265780637e0d4b6814610546576102ab565b806332330eac116101c75780634e71d92d1161018b5780634e71d92d14610459578063522fe98e1461046e5780635c975abb1461048e57806360423455146104b05780636bc64e0f146104c5576102ab565b806332330eac146103cf5780633de39c11146103ef578063402914f514610404578063447e0b54146104245780634d50f60414610444576102ab565b806316932b061161020e57806316932b061461033a5780631955462a1461035a57806319a33ea21461037a5780631d1d9b471461039a578063254800d4146103ba576102ab565b80630914bc27146102b05780630a384665146102e65780630bf390b8146102fb5780630d5624b3146103105780631514617e14610325576102ab565b366102ab576102576106eb565b61027c5760405162461bcd60e51b815260040161027390612304565b60405180910390fd5b610284610705565b156102a15760405162461bcd60e51b815260040161027390611fff565b6102a9610715565b005b600080fd5b3480156102bc57600080fd5b506102d06102cb366004611c40565b6108ad565b6040516102dd9190612381565b60405180910390f35b3480156102f257600080fd5b506102d0610a30565b34801561030757600080fd5b506102d0610a36565b34801561031c57600080fd5b506102d0610a3d565b34801561033157600080fd5b506102d0610a43565b34801561034657600080fd5b506102a9610355366004611c40565b610a49565b34801561036657600080fd5b506102d0610375366004611bf6565b610ad9565b34801561038657600080fd5b506102a9610395366004611bdb565b610b89565b3480156103a657600080fd5b506102a96103b5366004611bdb565b610d93565b3480156103c657600080fd5b506102d0610df4565b3480156103db57600080fd5b506102a96103ea366004611bf6565b610dfa565b3480156103fb57600080fd5b506102d0610ffc565b34801561041057600080fd5b506102d061041f366004611bdb565b611002565b34801561043057600080fd5b506102a961043f366004611c40565b611028565b34801561045057600080fd5b506102d0611091565b34801561046557600080fd5b506102a9611097565b34801561047a57600080fd5b506102d0610489366004611bdb565b61119e565b34801561049a57600080fd5b506104a3610705565b6040516102dd9190611d73565b3480156104bc57600080fd5b506102d06111b0565b3480156104d157600080fd5b506102d06111b6565b3480156104e657600080fd5b506102d06111bc565b3480156104fb57600080fd5b506102a96111c2565b34801561051057600080fd5b5061051961124b565b6040516102dd9190611d01565b34801561053257600080fd5b506102a9610541366004611bdb565b61125a565b34801561055257600080fd5b506102a9610561366004611c40565b6112bb565b34801561057257600080fd5b506102d06112ff565b34801561058757600080fd5b50610519611305565b6102a9611314565b3480156105a457600080fd5b50610519611387565b3480156105b957600080fd5b506102a9611396565b3480156105ce57600080fd5b506102d06113dd565b3480156105e357600080fd5b506102a96105f2366004611c40565b6113e4565b34801561060357600080fd5b506102a9611428565b34801561061857600080fd5b506102d061146f565b34801561062d57600080fd5b506102d061063c366004611bdb565b611475565b34801561064d57600080fd5b506102d061065c366004611bdb565b611490565b34801561066d57600080fd5b506102a961067c366004611c40565b6114bd565b34801561068d57600080fd5b506102a961069c366004611bf6565b611501565b3480156106ad57600080fd5b506102a9611583565b3480156106c257600080fd5b506102a96106d1366004611bdb565b61168b565b3480156106e257600080fd5b5061051961174b565b60006006544210158015610700575060075442105b905090565b600054600160a01b900460ff1690565b600454158061072657506004543a11155b6107425760405162461bcd60e51b815260040161027390611fc8565b600061074d346108ad565b90506002548110156107715760405162461bcd60e51b8152600401610273906120f1565b600854600f54610781908361175a565b111561079f5760405162461bcd60e51b8152600401610273906121bb565b600f546107ac908261175a565b600f556107df81600d60006107bf611786565b6001600160a01b031681526020810191909152604001600020549061175a565b600d60006107eb611786565b6001600160a01b03166001600160a01b0316815260200190815260200160002081905550600354600d600061081e611786565b6001600160a01b03166001600160a01b0316815260200190815260200160002054111561085d5760405162461bcd60e51b81526004016102739061234a565b610865611786565b6001600160a01b03167f8daf503382665d950e449b86172be5222275c90f4ddf69c29fdaa8237a562a6d600034846040516108a293929190611d15565b60405180910390a250565b6005546000906001600160a01b031615610a0d576005546040805163313ce56760e01b815290516000926001600160a01b03169163313ce567916004808301926020929190829003018186803b15801561090657600080fd5b505afa15801561091a573d6000803e3d6000fd5b505050506040513d601f19601f8201168201806040525081019061093e9190611cc1565b60ff1690506000600560009054906101000a90046001600160a01b03166001600160a01b031663feaf968c6040518163ffffffff1660e01b815260040160a06040518083038186803b15801561099357600080fd5b505afa1580156109a7573d6000803e3d6000fd5b505050506040513d601f19601f820116820180604052508101906109cb9190611c70565b505050915050610a0482600a0a6109fe600c546109fe620f42406109f8878b61178a90919063ffffffff16565b9061178a565b906117c4565b92505050610a2b565b610a28600c546109fe6010548561178a90919063ffffffff16565b90505b919050565b60035481565b62ed4e0081565b60065481565b600a5481565b610a51611786565b6001600160a01b0316610a62611387565b6001600160a01b031614610a885760405162461bcd60e51b8152600401610273906120bc565b60095415610aa85760405162461bcd60e51b8152600401610273906122cd565b60075481118015610ab857508042105b610ad45760405162461bcd60e51b815260040161027390612184565b600955565b600080610b68846001600160a01b031663313ce5676040518163ffffffff1660e01b815260040160206040518083038186803b158015610b1857600080fd5b505afa158015610b2c573d6000803e3d6000fd5b505050506040513d601f19601f82011682018060405250810190610b509190611cc1565b60ff16600a0a6109fe85670de0b6b3a764000061178a565b600c54909150610b7f906109fe83620f424061178a565b9150505b92915050565b610b91611786565b6001600160a01b0316610ba2611387565b6001600160a01b031614610bc85760405162461bcd60e51b8152600401610273906120bc565b610bd06106eb565b15610bed5760405162461bcd60e51b815260040161027390612029565b600b546000906001600160a01b03838116911614610c88576040516370a0823160e01b81526001600160a01b038316906370a0823190610c31903090600401611d01565b60206040518083038186803b158015610c4957600080fd5b505afa158015610c5d573d6000803e3d6000fd5b505050506040513d601f19601f82011682018060405250810190610c819190611c58565b9050610d55565b600954610c989062ed4e0061175a565b4210610cca576040516370a0823160e01b81526001600160a01b038316906370a0823190610c31903090600401611d01565b610d52600f54836001600160a01b03166370a08231306040518263ffffffff1660e01b8152600401610cfc9190611d01565b60206040518083038186803b158015610d1457600080fd5b505afa158015610d28573d6000803e3d6000fd5b505050506040513d601f19601f82011682018060405250810190610d4c9190611c58565b906117f6565b90505b60008111610d755760405162461bcd60e51b8152600401610273906121f0565b601154610d8f906001600160a01b0384811691168361181e565b5050565b610d9b611786565b6001600160a01b0316610dac611387565b6001600160a01b031614610dd25760405162461bcd60e51b8152600401610273906120bc565b601180546001600160a01b0319166001600160a01b0392909216919091179055565b60095481565b610e026106eb565b610e1e5760405162461bcd60e51b815260040161027390612304565b610e26610705565b15610e435760405162461bcd60e51b815260040161027390611fff565b6004541580610e5457506004543a11155b610e705760405162461bcd60e51b815260040161027390611fc8565b6001546001600160a01b03838116911614610e9d5760405162461bcd60e51b815260040161027390612154565b6000610ea98383610ad9565b9050600254811015610ecd5760405162461bcd60e51b8152600401610273906120f1565b600f54610eda908261175a565b600f8190556008541015610f005760405162461bcd60e51b815260040161027390612255565b610f1081600d60006107bf611786565b600d6000610f1c611786565b6001600160a01b03166001600160a01b0316815260200190815260200160002081905550600354600d6000610f4f611786565b6001600160a01b03166001600160a01b03168152602001908152602001600020541115610f8e5760405162461bcd60e51b81526004016102739061234a565b610fab610f99611786565b6001600160a01b038516903085611879565b610fb3611786565b6001600160a01b03167f8daf503382665d950e449b86172be5222275c90f4ddf69c29fdaa8237a562a6d848484604051610fef93929190611d15565b60405180910390a2505050565b60045481565b6001600160a01b0381166000908152600e6020526040812054610a2890610d4c846118a0565b611030611387565b6001600160a01b0316611041611786565b6001600160a01b0316148061107057506012546001600160a01b0316611065611786565b6001600160a01b0316145b61108c5760405162461bcd60e51b815260040161027390611ddf565b601055565b60085481565b61109f6106eb565b156110bc5760405162461bcd60e51b815260040161027390612029565b6009546110db5760405162461bcd60e51b815260040161027390611f5a565b60006110e861041f611786565b90506000811161110a5760405162461bcd60e51b815260040161027390611ea6565b61111a81600e60006107bf611786565b600e6000611126611786565b6001600160a01b0316815260208101919091526040016000205561115e61114b611786565b600b546001600160a01b0316908361181e565b611166611786565b6001600160a01b03167f896e034966eaaf1adc54acc0f257056febbd300c9e47182cf761982cf1f5e430826040516108a29190612381565b600d6020526000908152604090205481565b60025481565b60075481565b600f5481565b6111ca611786565b6001600160a01b03166111db611387565b6001600160a01b0316146112015760405162461bcd60e51b8152600401610273906120bc565b600080546040516001600160a01b03909116907f8be0079c531659141344cd1fd0a4f28419497f9722a3daafe3b4186f6b6457e0908390a3600080546001600160a01b0319169055565b6005546001600160a01b031681565b611262611786565b6001600160a01b0316611273611387565b6001600160a01b0316146112995760405162461bcd60e51b8152600401610273906120bc565b600580546001600160a01b0319166001600160a01b0392909216919091179055565b6112c3611786565b6001600160a01b03166112d4611387565b6001600160a01b0316146112fa5760405162461bcd60e51b8152600401610273906120bc565b600355565b600c5481565b6001546001600160a01b031681565b61131c6106eb565b6113385760405162461bcd60e51b815260040161027390612304565b611340610705565b1561135d5760405162461bcd60e51b815260040161027390611fff565b6000341161137d5760405162461bcd60e51b815260040161027390612097565b611385610715565b565b6000546001600160a01b031690565b61139e611786565b6001600160a01b03166113af611387565b6001600160a01b0316146113d55760405162461bcd60e51b8152600401610273906120bc565b611385611932565b620f424081565b6113ec611786565b6001600160a01b03166113fd611387565b6001600160a01b0316146114235760405162461bcd60e51b8152600401610273906120bc565b600255565b611430611786565b6001600160a01b0316611441611387565b6001600160a01b0316146114675760405162461bcd60e51b8152600401610273906120bc565b6113856119a3565b60105481565b6001600160a01b03166000908152600e602052604090205490565b6000610a2861149e836118a0565b6001600160a01b0384166000908152600d6020526040902054906117f6565b6114c5611786565b6001600160a01b03166114d6611387565b6001600160a01b0316146114fc5760405162461bcd60e51b8152600401610273906120bc565b600455565b611509611786565b6001600160a01b031661151a611387565b6001600160a01b0316146115405760405162461bcd60e51b8152600401610273906120bc565b6001600160a01b0382166000908152600d6020526040902054611563908261175a565b6001600160a01b039092166000908152600d602052604090209190915550565b61158b611786565b6001600160a01b031661159c611387565b6001600160a01b0316146115c25760405162461bcd60e51b8152600401610273906120bc565b6115ca6106eb565b156115e75760405162461bcd60e51b815260040161027390612029565b600047116116075760405162461bcd60e51b815260040161027390612128565b6011546040516000916001600160a01b031690479061162590611cfe565b60006040518083038185875af1925050503d8060008114611662576040519150601f19603f3d011682016040523d82523d6000602084013e611667565b606091505b50509050806116885760405162461bcd60e51b815260040161027390611e46565b50565b611693611786565b6001600160a01b03166116a4611387565b6001600160a01b0316146116ca5760405162461bcd60e51b8152600401610273906120bc565b6001600160a01b0381166116f05760405162461bcd60e51b815260040161027390611e00565b600080546040516001600160a01b03808516939216917f8be0079c531659141344cd1fd0a4f28419497f9722a3daafe3b4186f6b6457e091a3600080546001600160a01b0319166001600160a01b0392909216919091179055565b600b546001600160a01b031681565b60008282018381101561177f5760405162461bcd60e51b815260040161027390611e6f565b9392505050565b3390565b60008261179957506000610b83565b828202828482816117a657fe5b041461177f5760405162461bcd60e51b815260040161027390612056565b60008082116117e55760405162461bcd60e51b815260040161027390611f91565b8183816117ee57fe5b049392505050565b6000828211156118185760405162461bcd60e51b815260040161027390611edd565b50900390565b6118748363a9059cbb60e01b848460405160240161183d929190611d5a565b60408051601f198184030181529190526020810180516001600160e01b03166001600160e01b031990931692909217909152611a04565b505050565b61189a846323b872dd60e01b85858560405160240161183d93929190611d36565b50505050565b6000600954600014806118b4575060095442105b156118c157506000610a2b565b600a546009546118d09161175a565b42106118f557506001600160a01b0381166000908152600d6020526040902054610a2b565b610a28600a546109fe611913600954426117f690919063ffffffff16565b6001600160a01b0386166000908152600d60205260409020549061178a565b61193a610705565b6119565760405162461bcd60e51b815260040161027390611db1565b6000805460ff60a01b191690557f5db9ee0a495bf2e6ff9c91a7834c1ba4fdd244a5e8aa4e537bd38aeae4b073aa61198c611786565b6040516119999190611d01565b60405180910390a1565b6119ab610705565b156119c85760405162461bcd60e51b815260040161027390611fff565b6000805460ff60a01b1916600160a01b1790557f62e78cea01bee320cd4e420270b5ea74000d11b0c9f74754ebdbfc544b05a25861198c611786565b6060611a59826040518060400160405280602081526020017f5361666545524332303a206c6f772d6c6576656c2063616c6c206661696c6564815250856001600160a01b0316611a939092919063ffffffff16565b8051909150156118745780806020019051810190611a779190611c20565b6118745760405162461bcd60e51b815260040161027390612283565b6060611aa28484600085611aaa565b949350505050565b606082471015611acc5760405162461bcd60e51b815260040161027390611f14565b611ad585611b6b565b611af15760405162461bcd60e51b81526004016102739061221e565b60006060866001600160a01b03168587604051611b0e9190611ce2565b60006040518083038185875af1925050503d8060008114611b4b576040519150601f19603f3d011682016040523d82523d6000602084013e611b50565b606091505b5091509150611b60828286611b71565b979650505050505050565b3b151590565b60608315611b8057508161177f565b825115611b905782518084602001fd5b8160405162461bcd60e51b81526004016102739190611d7e565b80356001600160a01b0381168114610b8357600080fd5b805169ffffffffffffffffffff81168114610b8357600080fd5b600060208284031215611bec578081fd5b61177f8383611baa565b60008060408385031215611c08578081fd5b611c128484611baa565b946020939093013593505050565b600060208284031215611c31578081fd5b8151801515811461177f578182fd5b600060208284031215611c51578081fd5b5035919050565b600060208284031215611c69578081fd5b5051919050565b600080600080600060a08688031215611c87578081fd5b611c918787611bc1565b9450602086015193506040860151925060608601519150611cb58760808801611bc1565b90509295509295909350565b600060208284031215611cd2578081fd5b815160ff8116811461177f578182fd5b60008251611cf481846020870161238a565b9190910192915050565b90565b6001600160a01b0391909116815260200190565b6001600160a01b039390931683526020830191909152604082015260600190565b6001600160a01b039384168152919092166020820152604081019190915260600190565b6001600160a01b03929092168252602082015260400190565b901515815260200190565b6000602082528251806020840152611d9d81604085016020870161238a565b601f01601f19169190910160400192915050565b60208082526014908201527314185d5cd8589b194e881b9bdd081c185d5cd95960621b604082015260600190565b60208082526007908201526610a5b2b2b832b960c91b604082015260600190565b60208082526026908201527f4f776e61626c653a206e6577206f776e657220697320746865207a65726f206160408201526564647265737360d01b606082015260800190565b6020808252600f908201526e151c985b9cd9995c8819985a5b1959608a1b604082015260600190565b6020808252601b908201527f536166654d6174683a206164646974696f6e206f766572666c6f770000000000604082015260600190565b6020808252601f908201527f546f6b656e56657374696e673a206e6f20746f6b656e73206172652064756500604082015260600190565b6020808252601e908201527f536166654d6174683a207375627472616374696f6e206f766572666c6f770000604082015260600190565b60208082526026908201527f416464726573733a20696e73756666696369656e742062616c616e636520666f6040820152651c8818d85b1b60d21b606082015260800190565b60208082526018908201527f56657374696e67207374617274206973206e6f74207365740000000000000000604082015260600190565b6020808252601a908201527f536166654d6174683a206469766973696f6e206279207a65726f000000000000604082015260600190565b60208082526017908201527f4761732070726963652065786365656473206c696d6974000000000000000000604082015260600190565b60208082526010908201526f14185d5cd8589b194e881c185d5cd95960821b604082015260600190565b602080825260139082015272283932b9b0b6329034b9903737ba1037bb32b960691b604082015260600190565b60208082526021908201527f536166654d6174683a206d756c7469706c69636174696f6e206f766572666c6f6040820152607760f81b606082015260800190565b6020808252600b908201526a139bc8115512081cd95b9d60aa1b604082015260600190565b6020808252818101527f4f776e61626c653a2063616c6c6572206973206e6f7420746865206f776e6572604082015260600190565b6020808252601a908201527f4d696e696d756d20726571756972656420756e72656163686564000000000000604082015260600190565b6020808252601290820152714e6f2045544820746f20776974686472617760701b604082015260600190565b602080825260169082015275436f696e206973206e6f7420737570706f727465642160501b604082015260600190565b60208082526017908201527f496e636f72726563742074696d652070726f7669646564000000000000000000604082015260600190565b6020808252818101527f4e6f7420656e6f75676820746f6b656e20696e2070726573616c6520706f6f6c604082015260600190565b6020808252601490820152734e6f20455243323020746f20776974686472617760601b604082015260600190565b6020808252601d908201527f416464726573733a2063616c6c20746f206e6f6e2d636f6e7472616374000000604082015260600190565b602080825260149082015273546f6b656e206973206e6f7420656e6f7567682160601b604082015260600190565b6020808252602a908201527f5361666545524332303a204552433230206f7065726174696f6e20646964206e6040820152691bdd081cdd58d8d9595960b21b606082015260800190565b6020808252601c908201527f56657374696e6720737461727420697320616c72656164792073657400000000604082015260600190565b60208082526026908201527f50726573616c652073746167657320617265206f766572206f72206e6f7420736040820152651d185c9d195960d21b606082015260800190565b60208082526018908201527f4d6178696d756d20616c6c6f7765642065786365656465640000000000000000604082015260600190565b90815260200190565b60005b838110156123a557818101518382015260200161238d565b8381111561189a575050600091015256fea2646970667358221220c22e2a4db5e4a50aed2a84ed607a76eaa8ec791b9cdc7e9d32e231ad09dbf59964736f6c634300060c0033",
  "linkReferences": {},
  "deployedLinkReferences": {}
}