{
  "_format": "hh-sol-artifact-1",
  "contractName": "CronaPrivateSaleA",
  "sourceName": "contracts/tools/CronaPrivateSaleA.sol",
  "abi": [
    {
      "inputs": [
        {
          "internalType": "address",
          "name": "_treasury",
          "type": "address"
        },
        {
          "internalType": "address",
          "name": "_keeper",
          "type": "address"
        },
        {
          "internalType": "address",
          "name": "_usdc",
          "type": "address"
        },
        {
          "internalType": "address",
          "name": "_token",
          "type": "address"
        },
        {
          "internalType": "uint256",
          "name": "_tokenPrice",
          "type": "uint256"
        },
        {
          "internalType": "uint256",
          "name": "_basePrice",
          "type": "uint256"
        },
        {
          "internalType": "uint256",
          "name": "_minTokensAmount",
          "type": "uint256"
        },
        {
          "internalType": "uint256",
          "name": "_maxTokensAmount",
          "type": "uint256"
        },
        {
          "internalType": "uint256",
          "name": "_privateSaleTokenPool",
          "type": "uint256"
        },
        {
          "internalType": "uint256",
          "name": "_privateSaleStart",
          "type": "uint256"
        },
        {
          "internalType": "uint256",
          "name": "_privateSaleEnd",
          "type": "uint256"
        },
        {
          "internalType": "uint256",
          "name": "_vestingDuration",
          "type": "uint256"
        }
      ],
      "stateMutability": "nonpayable",
      "type": "constructor"
    },
    {
      "anonymous": false,
      "inputs": [
        {
          "indexed": true,
          "internalType": "address",
          "name": "previousOwner",
          "type": "address"
        },
        {
          "indexed": true,
          "internalType": "address",
          "name": "newOwner",
          "type": "address"
        }
      ],
      "name": "OwnershipTransferred",
      "type": "event"
    },
    {
      "anonymous": false,
      "inputs": [
        {
          "indexed": false,
          "internalType": "address",
          "name": "account",
          "type": "address"
        }
      ],
      "name": "Paused",
      "type": "event"
    },
    {
      "anonymous": false,
      "inputs": [
        {
          "indexed": true,
          "internalType": "address",
          "name": "user",
          "type": "address"
        },
        {
          "indexed": false,
          "internalType": "address",
          "name": "coin",
          "type": "address"
        },
        {
          "indexed": false,
          "internalType": "uint256",
          "name": "coinAmount",
          "type": "uint256"
        },
        {
          "indexed": false,
          "internalType": "uint256",
          "name": "tokenAmount",
          "type": "uint256"
        }
      ],
      "name": "TokenPurchased",
      "type": "event"
    },
    {
      "anonymous": false,
      "inputs": [
        {
          "indexed": true,
          "internalType": "address",
          "name": "user",
          "type": "address"
        },
        {
          "indexed": false,
          "internalType": "uint256",
          "name": "tokenAmount",
          "type": "uint256"
        }
      ],
      "name": "TokensClaimed",
      "type": "event"
    },
    {
      "anonymous": false,
      "inputs": [
        {
          "indexed": false,
          "internalType": "address",
          "name": "account",
          "type": "address"
        }
      ],
      "name": "Unpaused",
      "type": "event"
    },
    {
      "inputs": [],
      "name": "PRECISION",
      "outputs": [
        {
          "internalType": "uint256",
          "name": "",
          "type": "uint256"
        }
      ],
      "stateMutability": "view",
      "type": "function"
    },
    {
      "inputs": [],
      "name": "USDC",
      "outputs": [
        {
          "internalType": "address",
          "name": "",
          "type": "address"
        }
      ],
      "stateMutability": "view",
      "type": "function"
    },
    {
      "inputs": [],
      "name": "WITHDRAWAL_PERIOD",
      "outputs": [
        {
          "internalType": "uint256",
          "name": "",
          "type": "uint256"
        }
      ],
      "stateMutability": "view",
      "type": "function"
    },
    {
      "inputs": [
        {
          "internalType": "address",
          "name": "_receiver",
          "type": "address"
        },
        {
          "internalType": "uint256",
          "name": "_amount",
          "type": "uint256"
        }
      ],
      "name": "adminAddPurchase",
      "outputs": [],
      "stateMutability": "nonpayable",
      "type": "function"
    },
    {
      "inputs": [],
      "name": "adminPause",
      "outputs": [],
      "stateMutability": "nonpayable",
      "type": "function"
    },
    {
      "inputs": [
        {
          "internalType": "uint256",
          "name": "_price",
          "type": "uint256"
        }
      ],
      "name": "adminSetBasePrice",
      "outputs": [],
      "stateMutability": "nonpayable",
      "type": "function"
    },
    {
      "inputs": [
        {
          "internalType": "uint256",
          "name": "_maxGasPrice",
          "type": "uint256"
        }
      ],
      "name": "adminSetMaxGasPrice",
      "outputs": [],
      "stateMutability": "nonpayable",
      "type": "function"
    },
    {
      "inputs": [
        {
          "internalType": "uint256",
          "name": "_maxToken",
          "type": "uint256"
        }
      ],
      "name": "adminSetMaxToken",
      "outputs": [],
      "stateMutability": "nonpayable",
      "type": "function"
    },
    {
      "inputs": [
        {
          "internalType": "uint256",
          "name": "_minToken",
          "type": "uint256"
        }
      ],
      "name": "adminSetMinToken",
      "outputs": [],
      "stateMutability": "nonpayable",
      "type": "function"
    },
    {
      "inputs": [
        {
          "internalType": "address",
          "name": "_priceFeed",
          "type": "address"
        }
      ],
      "name": "adminSetPriceFeed",
      "outputs": [],
      "stateMutability": "nonpayable",
      "type": "function"
    },
    {
      "inputs": [
        {
          "internalType": "address",
          "name": "_treasury",
          "type": "address"
        }
      ],
      "name": "adminSetTreasury",
      "outputs": [],
      "stateMutability": "nonpayable",
      "type": "function"
    },
    {
      "inputs": [
        {
          "internalType": "uint256",
          "name": "_vestingStart",
          "type": "uint256"
        }
      ],
      "name": "adminSetVestingStart",
      "outputs": [],
      "stateMutability": "nonpayable",
      "type": "function"
    },
    {
      "inputs": [
        {
          "internalType": "address[]",
          "name": "_users",
          "type": "address[]"
        },
        {
          "internalType": "bool",
          "name": "_flag",
          "type": "bool"
        }
      ],
      "name": "adminSetWhitelisted",
      "outputs": [],
      "stateMutability": "nonpayable",
      "type": "function"
    },
    {
      "inputs": [],
      "name": "adminUnpause",
      "outputs": [],
      "stateMutability": "nonpayable",
      "type": "function"
    },
    {
      "inputs": [
        {
          "internalType": "address",
          "name": "ERC20token",
          "type": "address"
        }
      ],
      "name": "adminWithdrawERC20",
      "outputs": [],
      "stateMutability": "nonpayable",
      "type": "function"
    },
    {
      "inputs": [],
      "name": "adminWithdrawETH",
      "outputs": [],
      "stateMutability": "nonpayable",
      "type": "function"
    },
    {
      "inputs": [],
      "name": "basePrice",
      "outputs": [
        {
          "internalType": "uint256",
          "name": "",
          "type": "uint256"
        }
      ],
      "stateMutability": "view",
      "type": "function"
    },
    {
      "inputs": [
        {
          "internalType": "address",
          "name": "_coin",
          "type": "address"
        },
        {
          "internalType": "uint256",
          "name": "_amount",
          "type": "uint256"
        }
      ],
      "name": "calcCoinPurchasedAmount",
      "outputs": [
        {
          "internalType": "uint256",
          "name": "",
          "type": "uint256"
        }
      ],
      "stateMutability": "view",
      "type": "function"
    },
    {
      "inputs": [
        {
          "internalType": "uint256",
          "name": "_amount",
          "type": "uint256"
        }
      ],
      "name": "calcEthPurchasedAmount",
      "outputs": [
        {
          "internalType": "uint256",
          "name": "",
          "type": "uint256"
        }
      ],
      "stateMutability": "view",
      "type": "function"
    },
    {
      "inputs": [],
      "name": "claim",
      "outputs": [],
      "stateMutability": "nonpayable",
      "type": "function"
    },
    {
      "inputs": [
        {
          "internalType": "address",
          "name": "_user",
          "type": "address"
        }
      ],
      "name": "claimable",
      "outputs": [
        {
          "internalType": "uint256",
          "name": "",
          "type": "uint256"
        }
      ],
      "stateMutability": "view",
      "type": "function"
    },
    {
      "inputs": [
        {
          "internalType": "address",
          "name": "_user",
          "type": "address"
        }
      ],
      "name": "claimed",
      "outputs": [
        {
          "internalType": "uint256",
          "name": "",
          "type": "uint256"
        }
      ],
      "stateMutability": "view",
      "type": "function"
    },
    {
      "inputs": [],
      "name": "getName",
      "outputs": [
        {
          "internalType": "string",
          "name": "",
          "type": "string"
        }
      ],
      "stateMutability": "pure",
      "type": "function"
    },
    {
      "inputs": [
        {
          "internalType": "address",
          "name": "_user",
          "type": "address"
        }
      ],
      "name": "locked",
      "outputs": [
        {
          "internalType": "uint256",
          "name": "",
          "type": "uint256"
        }
      ],
      "stateMutability": "view",
      "type": "function"
    },
    {
      "inputs": [],
      "name": "maxGasPrice",
      "outputs": [
        {
          "internalType": "uint256",
          "name": "",
          "type": "uint256"
        }
      ],
      "stateMutability": "view",
      "type": "function"
    },
    {
      "inputs": [],
      "name": "maxTokensAmount",
      "outputs": [
        {
          "internalType": "uint256",
          "name": "",
          "type": "uint256"
        }
      ],
      "stateMutability": "view",
      "type": "function"
    },
    {
      "inputs": [],
      "name": "minTokensAmount",
      "outputs": [
        {
          "internalType": "uint256",
          "name": "",
          "type": "uint256"
        }
      ],
      "stateMutability": "view",
      "type": "function"
    },
    {
      "inputs": [],
      "name": "owner",
      "outputs": [
        {
          "internalType": "address",
          "name": "",
          "type": "address"
        }
      ],
      "stateMutability": "view",
      "type": "function"
    },
    {
      "inputs": [],
      "name": "paused",
      "outputs": [
        {
          "internalType": "bool",
          "name": "",
          "type": "bool"
        }
      ],
      "stateMutability": "view",
      "type": "function"
    },
    {
      "inputs": [],
      "name": "priceFeed",
      "outputs": [
        {
          "internalType": "contract AggregatorV3Interface",
          "name": "",
          "type": "address"
        }
      ],
      "stateMutability": "view",
      "type": "function"
    },
    {
      "inputs": [],
      "name": "privateSaleEnd",
      "outputs": [
        {
          "internalType": "uint256",
          "name": "",
          "type": "uint256"
        }
      ],
      "stateMutability": "view",
      "type": "function"
    },
    {
      "inputs": [],
      "name": "privateSaleStart",
      "outputs": [
        {
          "internalType": "uint256",
          "name": "",
          "type": "uint256"
        }
      ],
      "stateMutability": "view",
      "type": "function"
    },
    {
      "inputs": [],
      "name": "privateSaleTokenPool",
      "outputs": [
        {
          "internalType": "uint256",
          "name": "",
          "type": "uint256"
        }
      ],
      "stateMutability": "view",
      "type": "function"
    },
    {
      "inputs": [
        {
          "internalType": "address",
          "name": "coin",
          "type": "address"
        },
        {
          "internalType": "uint256",
          "name": "amount",
          "type": "uint256"
        }
      ],
      "name": "purchaseTokenWithCoin",
      "outputs": [],
      "stateMutability": "nonpayable",
      "type": "function"
    },
    {
      "inputs": [],
      "name": "purchaseTokenWithETH",
      "outputs": [],
      "stateMutability": "payable",
      "type": "function"
    },
    {
      "inputs": [
        {
          "internalType": "address",
          "name": "",
          "type": "address"
        }
      ],
      "name": "purchased",
      "outputs": [
        {
          "internalType": "uint256",
          "name": "",
          "type": "uint256"
        }
      ],
      "stateMutability": "view",
      "type": "function"
    },
    {
      "inputs": [],
      "name": "purchasedPrivateSale",
      "outputs": [
        {
          "internalType": "uint256",
          "name": "",
          "type": "uint256"
        }
      ],
      "stateMutability": "view",
      "type": "function"
    },
    {
      "inputs": [],
      "name": "renounceOwnership",
      "outputs": [],
      "stateMutability": "nonpayable",
      "type": "function"
    },
    {
      "inputs": [],
      "name": "token",
      "outputs": [
        {
          "internalType": "address",
          "name": "",
          "type": "address"
        }
      ],
      "stateMutability": "view",
      "type": "function"
    },
    {
      "inputs": [],
      "name": "tokenPrice",
      "outputs": [
        {
          "internalType": "uint256",
          "name": "",
          "type": "uint256"
        }
      ],
      "stateMutability": "view",
      "type": "function"
    },
    {
      "inputs": [
        {
          "internalType": "address",
          "name": "newOwner",
          "type": "address"
        }
      ],
      "name": "transferOwnership",
      "outputs": [],
      "stateMutability": "nonpayable",
      "type": "function"
    },
    {
      "inputs": [],
      "name": "vestingDuration",
      "outputs": [
        {
          "internalType": "uint256",
          "name": "",
          "type": "uint256"
        }
      ],
      "stateMutability": "view",
      "type": "function"
    },
    {
      "inputs": [],
      "name": "vestingStart",
      "outputs": [
        {
          "internalType": "uint256",
          "name": "",
          "type": "uint256"
        }
      ],
      "stateMutability": "view",
      "type": "function"
    },
    {
      "inputs": [
        {
          "internalType": "address",
          "name": "",
          "type": "address"
        }
      ],
      "name": "whitelisted",
      "outputs": [
        {
          "internalType": "bool",
          "name": "",
          "type": "bool"
        }
      ],
      "stateMutability": "view",
      "type": "function"
    },
    {
      "stateMutability": "payable",
      "type": "receive"
    }
  ],
  "bytecode": "0x60806040523480156200001157600080fd5b5060405162002e6538038062002e6583398181016040526101808110156200003857600080fd5b508051602082015160408301516060840151608085015160a086015160c087015160e08801516101008901516101208a01516101408b0151610160909b0151999a9899979896979596949593949293919290918b8b8b8b8b8b8b8b8b8b8b8b6000620000a3620002d8565b600080546001600160a01b0319166001600160a01b0383169081178255604051929350917f8be0079c531659141344cd1fd0a4f28419497f9722a3daafe3b4186f6b6457e0908290a3506000805460ff60a01b191690556001600160a01b038c1662000142576040805162461bcd60e51b815260206004820152600960248201526821747265617375727960b81b604482015290519081900360640190fd5b6001600160a01b03891662000187576040805162461bcd60e51b815260206004820152600660248201526510ba37b5b2b760d11b604482015290519081900360640190fd5b60008311620001c6576040805162461bcd60e51b8152602060048201526006602482015265085cdd185c9d60d21b604482015290519081900360640190fd5b8282116200020a576040805162461bcd60e51b815260206004820152600c60248201526b1cdd185c9d080f8f48195b9960a21b604482015290519081900360640190fd5b62ed4e0081106200024d5760405162461bcd60e51b815260040180806020018281038252602481526020018062002e416024913960400191505060405180910390fd5b601280546001600160a01b039d8e166001600160a01b031991821617909155601380549c8e169c82169c909c17909b55600180549a8d169a8c169a909a17909955600b805498909b169790991696909617909855600c93909355601191909155600255600355600893909355600692909255600755600a5550620002dc9a5050505050505050505050565b3390565b612b5580620002ec6000396000f3fe60806040526004361061026b5760003560e01c8063741bef1a11610144578063c20860af116100b6578063d4b194851161007a578063d4b19485146108f7578063d936547e14610921578063dea5465114610954578063ed84fc911461098d578063f2fde38b146109a2578063fc0c546a146109d55761030a565b8063c20860af146107b5578063c7876ea4146107ca578063c884ef83146107df578063cbf9fe5f14610812578063d26a6962146108455761030a565b80638a3ef9a7116101085780638a3ef9a71461072f5780638da5cb5b1461073757806392f9c0671461074c5780639731a48614610761578063aaf5eb6814610776578063b0b401c21461078b5761030a565b8063741bef1a1461067757806377bb5c45146106a85780637e0d4b68146106db5780637ff9b5961461070557806389a302711461071a5761030a565b806330689fdb116101dd5780634e71d92d116101a15780634e71d92d146105c7578063522fe98e146105dc5780635c975abb1461060f5780636042345514610638578063712b49ac1461064d578063715018a6146106625761030a565b806330689fdb1461050757806332330eac1461051c5780633de39c1114610555578063402914f51461056a578063447e0b541461059d5761030a565b806317d7de7c1161022f57806317d7de7c146103b45780631955462a1461043e57806319a33ea2146104775780631d1d9b47146104aa5780631dd8097b146104dd578063254800d4146104f25761030a565b80630914bc271461030f5780630a3846651461034b5780630bf390b8146103605780631514617e1461037557806316932b061461038a5761030a565b3661030a576102786109ea565b6102b35760405162461bcd60e51b815260040180806020018281038252602a815260200180612a65602a913960400191505060405180910390fd5b6102bb610a04565b15610300576040805162461bcd60e51b815260206004820152601060248201526f14185d5cd8589b194e881c185d5cd95960821b604482015290519081900360640190fd5b610308610a14565b005b600080fd5b34801561031b57600080fd5b506103396004803603602081101561033257600080fd5b5035610cdf565b60408051918252519081900360200190f35b34801561035757600080fd5b50610339610e3d565b34801561036c57600080fd5b50610339610e43565b34801561038157600080fd5b50610339610e4a565b34801561039657600080fd5b50610308600480360360208110156103ad57600080fd5b5035610e50565b3480156103c057600080fd5b506103c9610f6e565b6040805160208082528351818301528351919283929083019185019080838360005b838110156104035781810151838201526020016103eb565b50505050905090810190601f1680156104305780820380516001836020036101000a031916815260200191505b509250505060405180910390f35b34801561044a57600080fd5b506103396004803603604081101561046157600080fd5b506001600160a01b038135169060200135610f99565b34801561048357600080fd5b506103086004803603602081101561049a57600080fd5b50356001600160a01b031661103d565b3480156104b657600080fd5b50610308600480360360208110156104cd57600080fd5b50356001600160a01b03166112d2565b3480156104e957600080fd5b50610339611356565b3480156104fe57600080fd5b5061033961135c565b34801561051357600080fd5b50610339611362565b34801561052857600080fd5b506103086004803603604081101561053f57600080fd5b506001600160a01b038135169060200135611368565b34801561056157600080fd5b50610339611720565b34801561057657600080fd5b506103396004803603602081101561058d57600080fd5b50356001600160a01b0316611726565b3480156105a957600080fd5b50610308600480360360208110156105c057600080fd5b5035611752565b3480156105d357600080fd5b506103086117da565b3480156105e857600080fd5b50610339600480360360208110156105ff57600080fd5b50356001600160a01b031661198a565b34801561061b57600080fd5b50610624610a04565b604080519115158252519081900360200190f35b34801561064457600080fd5b5061033961199c565b34801561065957600080fd5b506103396119a2565b34801561066e57600080fd5b506103086119a8565b34801561068357600080fd5b5061068c611a54565b604080516001600160a01b039092168252519081900360200190f35b3480156106b457600080fd5b50610308600480360360208110156106cb57600080fd5b50356001600160a01b0316611a63565b3480156106e757600080fd5b50610308600480360360208110156106fe57600080fd5b5035611ae7565b34801561071157600080fd5b50610339611b4e565b34801561072657600080fd5b5061068c611b54565b610308611b63565b34801561074357600080fd5b5061068c611bfd565b34801561075857600080fd5b50610308611c0c565b34801561076d57600080fd5b50610339611c76565b34801561078257600080fd5b50610339611c7c565b34801561079757600080fd5b50610308600480360360208110156107ae57600080fd5b5035611c83565b3480156107c157600080fd5b50610308611cea565b3480156107d657600080fd5b50610339611d54565b3480156107eb57600080fd5b506103396004803603602081101561080257600080fd5b50356001600160a01b0316611d5a565b34801561081e57600080fd5b506103396004803603602081101561083557600080fd5b50356001600160a01b0316611d75565b34801561085157600080fd5b506103086004803603604081101561086857600080fd5b81019060208101813564010000000081111561088357600080fd5b82018360208201111561089557600080fd5b803590602001918460208302840111640100000000831117156108b757600080fd5b9190808060200260200160405190810160405280939291908181526020018383602002808284376000920191909152509295505050503515159050611da2565b34801561090357600080fd5b506103086004803603602081101561091a57600080fd5b5035611e60565b34801561092d57600080fd5b506106246004803603602081101561094457600080fd5b50356001600160a01b0316611ec7565b34801561096057600080fd5b506103086004803603604081101561097757600080fd5b506001600160a01b038135169060200135611edc565b34801561099957600080fd5b50610308611f81565b3480156109ae57600080fd5b50610308600480360360208110156109c557600080fd5b50356001600160a01b031661211e565b3480156109e157600080fd5b5061068c612220565b600060065442101580156109ff575060075442105b905090565b600054600160a01b900460ff1690565b6004541580610a2557506004543a11155b610a70576040805162461bcd60e51b815260206004820152601760248201527611d85cc81c1c9a58d948195e18d959591cc81b1a5b5a5d604a1b604482015290519081900360640190fd5b610a7861222f565b6001600160a01b0381166000908152600f602052604090205460ff16610ae5576040805162461bcd60e51b815260206004820152601f60248201527f41646472657373206973206e6f74206f6e207468652077686974656c69737400604482015290519081900360640190fd5b6000610af034610cdf565b9050600254811015610b49576040805162461bcd60e51b815260206004820152601a60248201527f4d696e696d756d20726571756972656420756e72656163686564000000000000604482015290519081900360640190fd5b601054610b569082612233565b60108190556008541015610ba8576040805162461bcd60e51b8152602060048201526014602482015273546f6b656e206973206e6f7420656e6f7567682160601b604482015290519081900360640190fd5b610bd881600d6000610bb861222f565b6001600160a01b0316815260208101919091526040016000205490612233565b600d6000610be461222f565b6001600160a01b03166001600160a01b0316815260200190815260200160002081905550600354600d6000610c1761222f565b6001600160a01b03166001600160a01b03168152602001908152602001600020541115610c86576040805162461bcd60e51b815260206004820152601860248201527713585e1a5b5d5b48185b1b1bddd95908195e18d95959195960421b604482015290519081900360640190fd5b610c8e61222f565b604080516000815234602082015280820184905290516001600160a01b0392909216917f8daf503382665d950e449b86172be5222275c90f4ddf69c29fdaa8237a562a6d9181900360600190a25050565b6005546000906001600160a01b031615610e1a576005546040805163313ce56760e01b815290516000926001600160a01b03169163313ce567916004808301926020929190829003018186803b158015610d3857600080fd5b505afa158015610d4c573d6000803e3d6000fd5b505050506040513d6020811015610d6257600080fd5b505160055460408051633fabe5a360e21b8152905160ff90931693506000926001600160a01b039092169163feaf968c9160048082019260a092909190829003018186803b158015610db357600080fd5b505afa158015610dc7573d6000803e3d6000fd5b505050506040513d60a0811015610ddd57600080fd5b5060200151600c54909150610e1190600a84900a90610e0b9081620f4240610e058a88612294565b90612294565b906122ed565b92505050610e38565b610e35600c54610e0b6011548561229490919063ffffffff16565b90505b919050565b60035481565b62ed4e0081565b600a5481565b610e5861222f565b6001600160a01b0316610e69611bfd565b6001600160a01b031614610eb2576040805162461bcd60e51b81526020600482018190526024820152600080516020612ad6833981519152604482015290519081900360640190fd5b60095415610f07576040805162461bcd60e51b815260206004820152601c60248201527f56657374696e6720737461727420697320616c72656164792073657400000000604482015290519081900360640190fd5b6007548110158015610f1857508042105b610f69576040805162461bcd60e51b815260206004820152601760248201527f496e636f72726563742074696d652070726f7669646564000000000000000000604482015290519081900360640190fd5b600955565b60408051808201909152601181527043726f6e615072697661746553616c654160781b602082015290565b60008061101c846001600160a01b031663313ce5676040518163ffffffff1660e01b815260040160206040518083038186803b158015610fd857600080fd5b505afa158015610fec573d6000803e3d6000fd5b505050506040513d602081101561100257600080fd5b505160ff16600a0a610e0b85670de0b6b3a7640000612294565b600c5490915061103390610e0b83620f4240612294565b9150505b92915050565b61104561222f565b6001600160a01b0316611056611bfd565b6001600160a01b03161461109f576040805162461bcd60e51b81526020600482018190526024820152600080516020612ad6833981519152604482015290519081900360640190fd5b6110a76109ea565b156110f3576040805162461bcd60e51b8152602060048201526017602482015276283934bb30ba32a9b0b6329034b9903737ba1037bb32b960491b604482015290519081900360640190fd5b600b546000906001600160a01b0383811691161461118457604080516370a0823160e01b815230600482015290516001600160a01b038416916370a08231916024808301926020929190829003018186803b15801561115157600080fd5b505afa158015611165573d6000803e3d6000fd5b505050506040513d602081101561117b57600080fd5b50519050611268565b6009546111949062ed4e00612233565b42106111e057604080516370a0823160e01b815230600482015290516001600160a01b038416916370a08231916024808301926020929190829003018186803b15801561115157600080fd5b611265601054836001600160a01b03166370a08231306040518263ffffffff1660e01b815260040180826001600160a01b0316815260200191505060206040518083038186803b15801561123357600080fd5b505afa158015611247573d6000803e3d6000fd5b505050506040513d602081101561125d57600080fd5b505190612354565b90505b600081116112b4576040805162461bcd60e51b81526020600482015260146024820152734e6f20455243323020746f20776974686472617760601b604482015290519081900360640190fd5b6012546112ce906001600160a01b038481169116836123b1565b5050565b6112da61222f565b6001600160a01b03166112eb611bfd565b6001600160a01b031614611334576040805162461bcd60e51b81526020600482018190526024820152600080516020612ad6833981519152604482015290519081900360640190fd5b601280546001600160a01b0319166001600160a01b0392909216919091179055565b60105481565b60095481565b60075481565b6113706109ea565b6113ab5760405162461bcd60e51b815260040180806020018281038252602a815260200180612a65602a913960400191505060405180910390fd5b6113b3610a04565b156113f8576040805162461bcd60e51b815260206004820152601060248201526f14185d5cd8589b194e881c185d5cd95960821b604482015290519081900360640190fd5b600454158061140957506004543a11155b611454576040805162461bcd60e51b815260206004820152601760248201527611d85cc81c1c9a58d948195e18d959591cc81b1a5b5a5d604a1b604482015290519081900360640190fd5b61145c61222f565b6001600160a01b0381166000908152600f602052604090205460ff166114c9576040805162461bcd60e51b815260206004820152601f60248201527f41646472657373206973206e6f74206f6e207468652077686974656c69737400604482015290519081900360640190fd5b6001546001600160a01b03848116911614611524576040805162461bcd60e51b8152602060048201526016602482015275436f696e206973206e6f7420737570706f727465642160501b604482015290519081900360640190fd5b60006115308484610f99565b9050600254811015611589576040805162461bcd60e51b815260206004820152601a60248201527f4d696e696d756d20726571756972656420756e72656163686564000000000000604482015290519081900360640190fd5b6010546115969082612233565b601081905560085410156115e8576040805162461bcd60e51b8152602060048201526014602482015273546f6b656e206973206e6f7420656e6f7567682160601b604482015290519081900360640190fd5b6115f881600d6000610bb861222f565b600d600061160461222f565b6001600160a01b03166001600160a01b0316815260200190815260200160002081905550600354600d600061163761222f565b6001600160a01b03166001600160a01b031681526020019081526020016000205411156116a6576040805162461bcd60e51b815260206004820152601860248201527713585e1a5b5d5b48185b1b1bddd95908195e18d95959195960421b604482015290519081900360640190fd5b6116c36116b161222f565b6001600160a01b038616903086612403565b6116cb61222f565b604080516001600160a01b03878116825260208201879052818301859052915192909116917f8daf503382665d950e449b86172be5222275c90f4ddf69c29fdaa8237a562a6d9181900360600190a250505050565b60045481565b6001600160a01b0381166000908152600e6020526040812054610e359061174c84612463565b90612354565b61175a611bfd565b6001600160a01b031661176b61222f565b6001600160a01b0316148061179a57506013546001600160a01b031661178f61222f565b6001600160a01b0316145b6117d5576040805162461bcd60e51b815260206004820152600760248201526610a5b2b2b832b960c91b604482015290519081900360640190fd5b601155565b6117e26109ea565b1561182e576040805162461bcd60e51b8152602060048201526017602482015276283934bb30ba32a9b0b6329034b9903737ba1037bb32b960491b604482015290519081900360640190fd5b600954611882576040805162461bcd60e51b815260206004820152601860248201527f56657374696e67207374617274206973206e6f74207365740000000000000000604482015290519081900360640190fd5b600061189461188f61222f565b611726565b9050600081116118eb576040805162461bcd60e51b815260206004820152601f60248201527f546f6b656e56657374696e673a206e6f20746f6b656e73206172652064756500604482015290519081900360640190fd5b6118fb81600e6000610bb861222f565b600e600061190761222f565b6001600160a01b0316815260208101919091526040016000205561193f61192c61222f565b600b546001600160a01b031690836123b1565b61194761222f565b6001600160a01b03167f896e034966eaaf1adc54acc0f257056febbd300c9e47182cf761982cf1f5e430826040518082815260200191505060405180910390a250565b600d6020526000908152604090205481565b60025481565b60085481565b6119b061222f565b6001600160a01b03166119c1611bfd565b6001600160a01b031614611a0a576040805162461bcd60e51b81526020600482018190526024820152600080516020612ad6833981519152604482015290519081900360640190fd5b600080546040516001600160a01b03909116907f8be0079c531659141344cd1fd0a4f28419497f9722a3daafe3b4186f6b6457e0908390a3600080546001600160a01b0319169055565b6005546001600160a01b031681565b611a6b61222f565b6001600160a01b0316611a7c611bfd565b6001600160a01b031614611ac5576040805162461bcd60e51b81526020600482018190526024820152600080516020612ad6833981519152604482015290519081900360640190fd5b600580546001600160a01b0319166001600160a01b0392909216919091179055565b611aef61222f565b6001600160a01b0316611b00611bfd565b6001600160a01b031614611b49576040805162461bcd60e51b81526020600482018190526024820152600080516020612ad6833981519152604482015290519081900360640190fd5b600355565b600c5481565b6001546001600160a01b031681565b611b6b6109ea565b611ba65760405162461bcd60e51b815260040180806020018281038252602a815260200180612a65602a913960400191505060405180910390fd5b611bae610a04565b15611bf3576040805162461bcd60e51b815260206004820152601060248201526f14185d5cd8589b194e881c185d5cd95960821b604482015290519081900360640190fd5b611bfb610a14565b565b6000546001600160a01b031690565b611c1461222f565b6001600160a01b0316611c25611bfd565b6001600160a01b031614611c6e576040805162461bcd60e51b81526020600482018190526024820152600080516020612ad6833981519152604482015290519081900360640190fd5b611bfb612644565b60065481565b620f424081565b611c8b61222f565b6001600160a01b0316611c9c611bfd565b6001600160a01b031614611ce5576040805162461bcd60e51b81526020600482018190526024820152600080516020612ad6833981519152604482015290519081900360640190fd5b600255565b611cf261222f565b6001600160a01b0316611d03611bfd565b6001600160a01b031614611d4c576040805162461bcd60e51b81526020600482018190526024820152600080516020612ad6833981519152604482015290519081900360640190fd5b611bfb6126e7565b60115481565b6001600160a01b03166000908152600e602052604090205490565b6000610e35611d8383612463565b6001600160a01b0384166000908152600d602052604090205490612354565b611daa61222f565b6001600160a01b0316611dbb611bfd565b6001600160a01b031614611e04576040805162461bcd60e51b81526020600482018190526024820152600080516020612ad6833981519152604482015290519081900360640190fd5b60005b8251811015611e5b5781600f6000858481518110611e2157fe5b6020908102919091018101516001600160a01b03168252810191909152604001600020805460ff1916911515919091179055600101611e07565b505050565b611e6861222f565b6001600160a01b0316611e79611bfd565b6001600160a01b031614611ec2576040805162461bcd60e51b81526020600482018190526024820152600080516020612ad6833981519152604482015290519081900360640190fd5b600455565b600f6020526000908152604090205460ff1681565b611ee461222f565b6001600160a01b0316611ef5611bfd565b6001600160a01b031614611f3e576040805162461bcd60e51b81526020600482018190526024820152600080516020612ad6833981519152604482015290519081900360640190fd5b6001600160a01b0382166000908152600d6020526040902054611f619082612233565b6001600160a01b039092166000908152600d602052604090209190915550565b611f8961222f565b6001600160a01b0316611f9a611bfd565b6001600160a01b031614611fe3576040805162461bcd60e51b81526020600482018190526024820152600080516020612ad6833981519152604482015290519081900360640190fd5b611feb6109ea565b15612037576040805162461bcd60e51b8152602060048201526017602482015276283934bb30ba32a9b0b6329034b9903737ba1037bb32b960491b604482015290519081900360640190fd5b60004711612081576040805162461bcd60e51b81526020600482015260126024820152714e6f2045544820746f20776974686472617760701b604482015290519081900360640190fd5b6012546040516000916001600160a01b03169047908381818185875af1925050503d80600081146120ce576040519150601f19603f3d011682016040523d82523d6000602084013e6120d3565b606091505b505090508061211b576040805162461bcd60e51b815260206004820152600f60248201526e151c985b9cd9995c8819985a5b1959608a1b604482015290519081900360640190fd5b50565b61212661222f565b6001600160a01b0316612137611bfd565b6001600160a01b031614612180576040805162461bcd60e51b81526020600482018190526024820152600080516020612ad6833981519152604482015290519081900360640190fd5b6001600160a01b0381166121c55760405162461bcd60e51b8152600401808060200182810382526026815260200180612a3f6026913960400191505060405180910390fd5b600080546040516001600160a01b03808516939216917f8be0079c531659141344cd1fd0a4f28419497f9722a3daafe3b4186f6b6457e091a3600080546001600160a01b0319166001600160a01b0392909216919091179055565b600b546001600160a01b031681565b3390565b60008282018381101561228d576040805162461bcd60e51b815260206004820152601b60248201527f536166654d6174683a206164646974696f6e206f766572666c6f770000000000604482015290519081900360640190fd5b9392505050565b6000826122a357506000611037565b828202828482816122b057fe5b041461228d5760405162461bcd60e51b8152600401808060200182810382526021815260200180612ab56021913960400191505060405180910390fd5b6000808211612343576040805162461bcd60e51b815260206004820152601a60248201527f536166654d6174683a206469766973696f6e206279207a65726f000000000000604482015290519081900360640190fd5b81838161234c57fe5b049392505050565b6000828211156123ab576040805162461bcd60e51b815260206004820152601e60248201527f536166654d6174683a207375627472616374696f6e206f766572666c6f770000604482015290519081900360640190fd5b50900390565b604080516001600160a01b038416602482015260448082018490528251808303909101815260649091019091526020810180516001600160e01b031663a9059cbb60e01b179052611e5b908490612770565b604080516001600160a01b0380861660248301528416604482015260648082018490528251808303909101815260849091019091526020810180516001600160e01b03166323b872dd60e01b17905261245d908590612770565b50505050565b600060095460001480612477575060095442105b1561248457506000610e38565b600a5460095461249391612233565b42106124b857506001600160a01b0381166000908152600d6020526040902054610e38565b6009546124c89062015180612233565b42116124f2576001600160a01b0382166000908152600d6020526040902054610e359060646122ed565b6009546125029062054600612233565b4211801561251f575060095461251b9062069780612233565b4211155b1561254f576001600160a01b0382166000908152600d6020526040902054610e3590606490610e0b906004612294565b60095461255f90620bdd80612233565b4211801561257c575060095461257890620d2f00612233565b4211155b156125ac576001600160a01b0382166000908152600d6020526040902054610e3590606490610e0b90600a612294565b6001600160a01b0382166000908152600d60205260408120546125d790606490610e0b90600a612294565b905060006126386125f6620d2f00600a5461235490919063ffffffff16565b610e0b612615620d2f0061174c6009544261235490919063ffffffff16565b6001600160a01b0388166000908152600d6020526040902054610e059087612354565b9050610e118282612233565b61264c610a04565b612694576040805162461bcd60e51b815260206004820152601460248201527314185d5cd8589b194e881b9bdd081c185d5cd95960621b604482015290519081900360640190fd5b6000805460ff60a01b191690557f5db9ee0a495bf2e6ff9c91a7834c1ba4fdd244a5e8aa4e537bd38aeae4b073aa6126ca61222f565b604080516001600160a01b039092168252519081900360200190a1565b6126ef610a04565b15612734576040805162461bcd60e51b815260206004820152601060248201526f14185d5cd8589b194e881c185d5cd95960821b604482015290519081900360640190fd5b6000805460ff60a01b1916600160a01b1790557f62e78cea01bee320cd4e420270b5ea74000d11b0c9f74754ebdbfc544b05a2586126ca61222f565b60606127c5826040518060400160405280602081526020017f5361666545524332303a206c6f772d6c6576656c2063616c6c206661696c6564815250856001600160a01b03166128219092919063ffffffff16565b805190915015611e5b578080602001905160208110156127e457600080fd5b5051611e5b5760405162461bcd60e51b815260040180806020018281038252602a815260200180612af6602a913960400191505060405180910390fd5b60606128308484600085612838565b949350505050565b6060824710156128795760405162461bcd60e51b8152600401808060200182810382526026815260200180612a8f6026913960400191505060405180910390fd5b61288285612994565b6128d3576040805162461bcd60e51b815260206004820152601d60248201527f416464726573733a2063616c6c20746f206e6f6e2d636f6e7472616374000000604482015290519081900360640190fd5b60006060866001600160a01b031685876040518082805190602001908083835b602083106129125780518252601f1990920191602091820191016128f3565b6001836020036101000a03801982511681845116808217855250505050505090500191505060006040518083038185875af1925050503d8060008114612974576040519150601f19603f3d011682016040523d82523d6000602084013e612979565b606091505b509150915061298982828661299a565b979650505050505050565b3b151590565b606083156129a957508161228d565b8251156129b95782518084602001fd5b8160405162461bcd60e51b81526004018080602001828103825283818151815260200191508051906020019080838360005b83811015612a035781810151838201526020016129eb565b50505050905090810190601f168015612a305780820380516001836020036101000a031916815260200191505b509250505060405180910390fdfe4f776e61626c653a206e6577206f776e657220697320746865207a65726f20616464726573735072697661746553616c652073746167657320617265206f766572206f72206e6f742073746172746564416464726573733a20696e73756666696369656e742062616c616e636520666f722063616c6c536166654d6174683a206d756c7469706c69636174696f6e206f766572666c6f774f776e61626c653a2063616c6c6572206973206e6f7420746865206f776e65725361666545524332303a204552433230206f7065726174696f6e20646964206e6f742073756363656564a26469706673582212208c7ea00abbcbd98ca0d783aefb05c2ee5fc66d71f5eceb3e366483a43158dabb64736f6c634300060c003376657374696e674475726174696f6e203e3d205749544844524157414c5f504552494f44",
  "linkReferences": {},
  "deployedLinkReferences": {}
}