{
  "_format": "hh-sol-artifact-1",
  "contractName": "xCronaChef",
  "sourceName": "contracts/staking/xCronaChef.sol",
  "abi": [
    {
      "inputs": [
        {
          "internalType": "contract IERC20",
          "name": "_xCrona",
          "type": "address"
        },
        {
          "internalType": "uint256",
          "name": "_rewardPerBlock",
          "type": "uint256"
        },
        {
          "internalType": "uint256",
          "name": "_startBlock",
          "type": "uint256"
        },
        {
          "internalType": "uint256",
          "name": "_endBlock",
          "type": "uint256"
        }
      ],
      "stateMutability": "nonpayable",
      "type": "constructor"
    },
    {
      "anonymous": false,
      "inputs": [
        {
          "indexed": true,
          "internalType": "address",
          "name": "user",
          "type": "address"
        },
        {
          "indexed": false,
          "internalType": "uint256",
          "name": "amount",
          "type": "uint256"
        }
      ],
      "name": "Deposit",
      "type": "event"
    },
    {
      "anonymous": false,
      "inputs": [
        {
          "indexed": true,
          "internalType": "address",
          "name": "user",
          "type": "address"
        },
        {
          "indexed": false,
          "internalType": "uint256",
          "name": "amount",
          "type": "uint256"
        }
      ],
      "name": "EmergencyWithdraw",
      "type": "event"
    },
    {
      "anonymous": false,
      "inputs": [
        {
          "indexed": true,
          "internalType": "address",
          "name": "user",
          "type": "address"
        },
        {
          "indexed": false,
          "internalType": "uint256",
          "name": "amount",
          "type": "uint256"
        }
      ],
      "name": "Withdraw",
      "type": "event"
    },
    {
      "inputs": [],
      "name": "addressLength",
      "outputs": [
        {
          "internalType": "uint256",
          "name": "",
          "type": "uint256"
        }
      ],
      "stateMutability": "view",
      "type": "function"
    },
    {
      "inputs": [
        {
          "internalType": "uint256",
          "name": "",
          "type": "uint256"
        }
      ],
      "name": "addressList",
      "outputs": [
        {
          "internalType": "address",
          "name": "",
          "type": "address"
        }
      ],
      "stateMutability": "view",
      "type": "function"
    },
    {
      "inputs": [],
      "name": "bonusEndBlock",
      "outputs": [
        {
          "internalType": "uint256",
          "name": "",
          "type": "uint256"
        }
      ],
      "stateMutability": "view",
      "type": "function"
    },
    {
      "inputs": [
        {
          "internalType": "uint256",
          "name": "_amount",
          "type": "uint256"
        }
      ],
      "name": "deposit",
      "outputs": [],
      "stateMutability": "nonpayable",
      "type": "function"
    },
    {
      "inputs": [],
      "name": "emergencyWithdraw",
      "outputs": [],
      "stateMutability": "nonpayable",
      "type": "function"
    },
    {
      "inputs": [
        {
          "internalType": "address",
          "name": "_user",
          "type": "address"
        }
      ],
      "name": "pendingReward",
      "outputs": [
        {
          "internalType": "uint256",
          "name": "",
          "type": "uint256"
        }
      ],
      "stateMutability": "view",
      "type": "function"
    },
    {
      "inputs": [],
      "name": "poolInfo",
      "outputs": [
        {
          "internalType": "uint256",
          "name": "lastRewardBlock",
          "type": "uint256"
        },
        {
          "internalType": "uint256",
          "name": "accRewardPerShare",
          "type": "uint256"
        }
      ],
      "stateMutability": "view",
      "type": "function"
    },
    {
      "inputs": [],
      "name": "rewardPerBlock",
      "outputs": [
        {
          "internalType": "uint256",
          "name": "",
          "type": "uint256"
        }
      ],
      "stateMutability": "view",
      "type": "function"
    },
    {
      "inputs": [],
      "name": "startBlock",
      "outputs": [
        {
          "internalType": "uint256",
          "name": "",
          "type": "uint256"
        }
      ],
      "stateMutability": "view",
      "type": "function"
    },
    {
      "inputs": [],
      "name": "updatePool",
      "outputs": [],
      "stateMutability": "nonpayable",
      "type": "function"
    },
    {
      "inputs": [
        {
          "internalType": "address",
          "name": "",
          "type": "address"
        }
      ],
      "name": "userInfo",
      "outputs": [
        {
          "internalType": "uint256",
          "name": "amount",
          "type": "uint256"
        },
        {
          "internalType": "uint256",
          "name": "rewardDebt",
          "type": "uint256"
        },
        {
          "internalType": "uint256",
          "name": "rewardPending",
          "type": "uint256"
        }
      ],
      "stateMutability": "view",
      "type": "function"
    },
    {
      "inputs": [
        {
          "internalType": "uint256",
          "name": "_amount",
          "type": "uint256"
        }
      ],
      "name": "withdraw",
      "outputs": [],
      "stateMutability": "nonpayable",
      "type": "function"
    },
    {
      "inputs": [],
      "name": "xCrona",
      "outputs": [
        {
          "internalType": "contract IERC20",
          "name": "",
          "type": "address"
        }
      ],
      "stateMutability": "view",
      "type": "function"
    }
  ],
  "bytecode": "0x608060405234801561001057600080fd5b50604051610e98380380610e988339818101604052608081101561003357600080fd5b508051602080830151604080850151606090950151600080546001600160a01b039096166001600160a01b03199096169590951785556001929092556006859055600791909155805180820190915283815201819052600291909155600355610df7806100a16000396000f3fe608060405234801561001057600080fd5b50600436106100cf5760003560e01c8063b6b55f251161008c578063db2e21bc11610066578063db2e21bc146101e0578063dc881888146101e8578063e3161ddd146101f0578063f40f0f52146101f8576100cf565b8063b6b55f2514610182578063b810fb431461019f578063c7d2ba0c146101d8576100cf565b80631959a002146100d45780631aed6553146101185780632e1a7d4d1461013257806348cd4cb1146101515780635a2f3d09146101595780638ae39cac1461017a575b600080fd5b6100fa600480360360208110156100ea57600080fd5b50356001600160a01b031661021e565b60408051938452602084019290925282820152519081900360600190f35b61012061023f565b60408051918252519081900360200190f35b61014f6004803603602081101561014857600080fd5b5035610245565b005b6101206103b2565b6101616103b8565b6040805192835260208301919091528051918290030190f35b6101206103c1565b61014f6004803603602081101561019857600080fd5b50356103c7565b6101bc600480360360208110156101b557600080fd5b503561053d565b604080516001600160a01b039092168252519081900360200190f35b6101bc610564565b61014f610573565b6101206105e8565b61014f6105ee565b6101206004803603602081101561020e57600080fd5b50356001600160a01b03166106dd565b60046020526000908152604090208054600182015460029092015490919083565b60075481565b60008111610285576040805162461bcd60e51b81526020600482015260086024820152670616d6f756e7420360c41b604482015290519081900360640190fd5b33600090815260046020526040902080548211156102e1576040805162461bcd60e51b81526020600482015260146024820152730eed2e8d0c8e4c2ee7440dcdee840cadcdeeaced60631b604482015290519081900360640190fd5b6102e96105ee565b600054610300906001600160a01b0316338461080f565b6103478160020154610341836001015461033b64e8d4a51000610335600260010154886000015461086690919063ffffffff16565b906108c8565b9061092f565b9061098c565b60028201558054610358908361092f565b8082556003546103739164e8d4a51000916103359190610866565b600182015560408051838152905133917f884edad9ce6fa2440d8a54cc123490eb96d2768479d49ff9c7366125a9424364919081900360200190a25050565b60065481565b60025460035482565b60015481565b60008111610407576040805162461bcd60e51b81526020600482015260086024820152670616d6f756e7420360c41b604482015290519081900360640190fd5b33600090815260046020526040902061041e6105ee565b600054610436906001600160a01b03163330856109e6565b805415801561044757506002810154155b801561045557506001810154155b1561049d57600580546001810182556000919091527f036b6384b5eca791c62761152d0c79bb0604c104a5fb6f4eb0703f3154bb3db00180546001600160a01b031916331790555b6104d28160020154610341836001015461033b64e8d4a51000610335600260010154886000015461086690919063ffffffff16565b600282015580546104e3908361098c565b8082556003546104fe9164e8d4a51000916103359190610866565b600182015560408051838152905133917fe1fffcc4923d04b559f4d29a8bfc6cda04eb5b0d3c460751c2402c5c5cc9109c919081900360200190a25050565b6005818154811061054a57fe5b6000918252602090912001546001600160a01b0316905081565b6000546001600160a01b031681565b33600081815260046020526040812080549154909261059d926001600160a01b039092169161080f565b8054604080519182525133917f5fafa99d0643513820be26656b45130b01e1c03062e1266bf36f88cbd3bd9695919081900360200190a2600080825560018201819055600290910155565b60055490565b60025443116105fc576106db565b60008054604080516370a0823160e01b815230600482015290516001600160a01b03909216916370a0823191602480820192602092909190829003018186803b15801561064857600080fd5b505afa15801561065c573d6000803e3d6000fd5b505050506040513d602081101561067257600080fd5b50519050806106855750436002556106db565b600061069660026000015443610a46565b905060006106af6001548361086690919063ffffffff16565b90506106d06106c7846103358464e8d4a51000610866565b6003549061098c565b600355505043600255505b565b6001600160a01b038082166000908152600460208181526040808420600354855483516370a0823160e01b8152309681019690965292519596600296929591948894909116926370a08231926024808201939291829003018186803b15801561074557600080fd5b505afa158015610759573d6000803e3d6000fd5b505050506040513d602081101561076f57600080fd5b505184549091504311801561078357508015155b156107d5576000610798856000015443610a46565b905060006107b16001548361086690919063ffffffff16565b90506107d06107c9846103358464e8d4a51000610866565b859061098c565b935050505b6108058360020154610341856001015461033b64e8d4a51000610335888a6000015461086690919063ffffffff16565b9695505050505050565b604080516001600160a01b038416602482015260448082018490528251808303909101815260649091019091526020810180516001600160e01b031663a9059cbb60e01b179052610861908490610a80565b505050565b600082610875575060006108c2565b8282028284828161088257fe5b04146108bf5760405162461bcd60e51b8152600401808060200182810382526021815260200180610d776021913960400191505060405180910390fd5b90505b92915050565b600080821161091e576040805162461bcd60e51b815260206004820152601a60248201527f536166654d6174683a206469766973696f6e206279207a65726f000000000000604482015290519081900360640190fd5b81838161092757fe5b049392505050565b600082821115610986576040805162461bcd60e51b815260206004820152601e60248201527f536166654d6174683a207375627472616374696f6e206f766572666c6f770000604482015290519081900360640190fd5b50900390565b6000828201838110156108bf576040805162461bcd60e51b815260206004820152601b60248201527f536166654d6174683a206164646974696f6e206f766572666c6f770000000000604482015290519081900360640190fd5b604080516001600160a01b0380861660248301528416604482015260648082018490528251808303909101815260849091019091526020810180516001600160e01b03166323b872dd60e01b179052610a40908590610a80565b50505050565b60006007548211610a6257610a5b828461092f565b90506108c2565b6007548310610a73575060006108c2565b600754610a5b908461092f565b6060610ad5826040518060400160405280602081526020017f5361666545524332303a206c6f772d6c6576656c2063616c6c206661696c6564815250856001600160a01b0316610b319092919063ffffffff16565b80519091501561086157808060200190516020811015610af457600080fd5b50516108615760405162461bcd60e51b815260040180806020018281038252602a815260200180610d98602a913960400191505060405180910390fd5b6060610b408484600085610b4a565b90505b9392505050565b606082471015610b8b5760405162461bcd60e51b8152600401808060200182810382526026815260200180610d516026913960400191505060405180910390fd5b610b9485610ca6565b610be5576040805162461bcd60e51b815260206004820152601d60248201527f416464726573733a2063616c6c20746f206e6f6e2d636f6e7472616374000000604482015290519081900360640190fd5b60006060866001600160a01b031685876040518082805190602001908083835b60208310610c245780518252601f199092019160209182019101610c05565b6001836020036101000a03801982511681845116808217855250505050505090500191505060006040518083038185875af1925050503d8060008114610c86576040519150601f19603f3d011682016040523d82523d6000602084013e610c8b565b606091505b5091509150610c9b828286610cac565b979650505050505050565b3b151590565b60608315610cbb575081610b43565b825115610ccb5782518084602001fd5b8160405162461bcd60e51b81526004018080602001828103825283818151815260200191508051906020019080838360005b83811015610d15578181015183820152602001610cfd565b50505050905090810190601f168015610d425780820380516001836020036101000a031916815260200191505b509250505060405180910390fdfe416464726573733a20696e73756666696369656e742062616c616e636520666f722063616c6c536166654d6174683a206d756c7469706c69636174696f6e206f766572666c6f775361666545524332303a204552433230206f7065726174696f6e20646964206e6f742073756363656564a26469706673582212204ab88058fe6e99a666d260bccf76f704696f50b14f08cf0d5e58a03965624b3c64736f6c634300060c0033",
  "linkReferences": {},
  "deployedLinkReferences": {}
}