{
  "_format": "hh-sol-artifact-1",
  "contractName": "CronaVault",
  "sourceName": "contracts/staking/CronaVault.sol",
  "abi": [
    {
      "inputs": [
        {
          "internalType": "contract IERC20",
          "name": "_token",
          "type": "address"
        },
        {
          "internalType": "contract IMasterChef",
          "name": "_masterchef",
          "type": "address"
        },
        {
          "internalType": "address",
          "name": "_admin",
          "type": "address"
        },
        {
          "internalType": "address",
          "name": "_treasury",
          "type": "address"
        }
      ],
      "stateMutability": "nonpayable",
      "type": "constructor"
    },
    {
      "anonymous": false,
      "inputs": [
        {
          "indexed": true,
          "internalType": "address",
          "name": "sender",
          "type": "address"
        },
        {
          "indexed": false,
          "internalType": "uint256",
          "name": "amount",
          "type": "uint256"
        },
        {
          "indexed": false,
          "internalType": "uint256",
          "name": "shares",
          "type": "uint256"
        },
        {
          "indexed": false,
          "internalType": "uint256",
          "name": "lastDepositedTime",
          "type": "uint256"
        }
      ],
      "name": "Deposit",
      "type": "event"
    },
    {
      "anonymous": false,
      "inputs": [
        {
          "indexed": true,
          "internalType": "address",
          "name": "sender",
          "type": "address"
        },
        {
          "indexed": false,
          "internalType": "uint256",
          "name": "performanceFee",
          "type": "uint256"
        },
        {
          "indexed": false,
          "internalType": "uint256",
          "name": "callFee",
          "type": "uint256"
        }
      ],
      "name": "Harvest",
      "type": "event"
    },
    {
      "anonymous": false,
      "inputs": [
        {
          "indexed": true,
          "internalType": "address",
          "name": "previousOwner",
          "type": "address"
        },
        {
          "indexed": true,
          "internalType": "address",
          "name": "newOwner",
          "type": "address"
        }
      ],
      "name": "OwnershipTransferred",
      "type": "event"
    },
    {
      "anonymous": false,
      "inputs": [],
      "name": "Pause",
      "type": "event"
    },
    {
      "anonymous": false,
      "inputs": [
        {
          "indexed": false,
          "internalType": "address",
          "name": "account",
          "type": "address"
        }
      ],
      "name": "Paused",
      "type": "event"
    },
    {
      "anonymous": false,
      "inputs": [],
      "name": "Unpause",
      "type": "event"
    },
    {
      "anonymous": false,
      "inputs": [
        {
          "indexed": false,
          "internalType": "address",
          "name": "account",
          "type": "address"
        }
      ],
      "name": "Unpaused",
      "type": "event"
    },
    {
      "anonymous": false,
      "inputs": [
        {
          "indexed": true,
          "internalType": "address",
          "name": "sender",
          "type": "address"
        },
        {
          "indexed": false,
          "internalType": "uint256",
          "name": "amount",
          "type": "uint256"
        },
        {
          "indexed": false,
          "internalType": "uint256",
          "name": "shares",
          "type": "uint256"
        }
      ],
      "name": "Withdraw",
      "type": "event"
    },
    {
      "inputs": [],
      "name": "MAX_CALL_FEE",
      "outputs": [
        {
          "internalType": "uint256",
          "name": "",
          "type": "uint256"
        }
      ],
      "stateMutability": "view",
      "type": "function"
    },
    {
      "inputs": [],
      "name": "MAX_PERFORMANCE_FEE",
      "outputs": [
        {
          "internalType": "uint256",
          "name": "",
          "type": "uint256"
        }
      ],
      "stateMutability": "view",
      "type": "function"
    },
    {
      "inputs": [],
      "name": "MAX_WITHDRAW_FEE",
      "outputs": [
        {
          "internalType": "uint256",
          "name": "",
          "type": "uint256"
        }
      ],
      "stateMutability": "view",
      "type": "function"
    },
    {
      "inputs": [],
      "name": "MAX_WITHDRAW_FEE_PERIOD",
      "outputs": [
        {
          "internalType": "uint256",
          "name": "",
          "type": "uint256"
        }
      ],
      "stateMutability": "view",
      "type": "function"
    },
    {
      "inputs": [],
      "name": "admin",
      "outputs": [
        {
          "internalType": "address",
          "name": "",
          "type": "address"
        }
      ],
      "stateMutability": "view",
      "type": "function"
    },
    {
      "inputs": [],
      "name": "available",
      "outputs": [
        {
          "internalType": "uint256",
          "name": "",
          "type": "uint256"
        }
      ],
      "stateMutability": "view",
      "type": "function"
    },
    {
      "inputs": [],
      "name": "balanceOf",
      "outputs": [
        {
          "internalType": "uint256",
          "name": "",
          "type": "uint256"
        }
      ],
      "stateMutability": "view",
      "type": "function"
    },
    {
      "inputs": [],
      "name": "calculateHarvestCronaRewards",
      "outputs": [
        {
          "internalType": "uint256",
          "name": "",
          "type": "uint256"
        }
      ],
      "stateMutability": "view",
      "type": "function"
    },
    {
      "inputs": [],
      "name": "calculateTotalPendingCronaRewards",
      "outputs": [
        {
          "internalType": "uint256",
          "name": "",
          "type": "uint256"
        }
      ],
      "stateMutability": "view",
      "type": "function"
    },
    {
      "inputs": [],
      "name": "callFee",
      "outputs": [
        {
          "internalType": "uint256",
          "name": "",
          "type": "uint256"
        }
      ],
      "stateMutability": "view",
      "type": "function"
    },
    {
      "inputs": [
        {
          "internalType": "uint256",
          "name": "_amount",
          "type": "uint256"
        }
      ],
      "name": "deposit",
      "outputs": [],
      "stateMutability": "nonpayable",
      "type": "function"
    },
    {
      "inputs": [],
      "name": "emergencyWithdraw",
      "outputs": [],
      "stateMutability": "nonpayable",
      "type": "function"
    },
    {
      "inputs": [],
      "name": "getPricePerFullShare",
      "outputs": [
        {
          "internalType": "uint256",
          "name": "",
          "type": "uint256"
        }
      ],
      "stateMutability": "view",
      "type": "function"
    },
    {
      "inputs": [],
      "name": "harvest",
      "outputs": [],
      "stateMutability": "nonpayable",
      "type": "function"
    },
    {
      "inputs": [
        {
          "internalType": "address",
          "name": "_token",
          "type": "address"
        }
      ],
      "name": "inCaseTokensGetStuck",
      "outputs": [],
      "stateMutability": "nonpayable",
      "type": "function"
    },
    {
      "inputs": [],
      "name": "lastHarvestedTime",
      "outputs": [
        {
          "internalType": "uint256",
          "name": "",
          "type": "uint256"
        }
      ],
      "stateMutability": "view",
      "type": "function"
    },
    {
      "inputs": [],
      "name": "masterchef",
      "outputs": [
        {
          "internalType": "contract IMasterChef",
          "name": "",
          "type": "address"
        }
      ],
      "stateMutability": "view",
      "type": "function"
    },
    {
      "inputs": [],
      "name": "owner",
      "outputs": [
        {
          "internalType": "address",
          "name": "",
          "type": "address"
        }
      ],
      "stateMutability": "view",
      "type": "function"
    },
    {
      "inputs": [],
      "name": "pause",
      "outputs": [],
      "stateMutability": "nonpayable",
      "type": "function"
    },
    {
      "inputs": [],
      "name": "paused",
      "outputs": [
        {
          "internalType": "bool",
          "name": "",
          "type": "bool"
        }
      ],
      "stateMutability": "view",
      "type": "function"
    },
    {
      "inputs": [],
      "name": "performanceFee",
      "outputs": [
        {
          "internalType": "uint256",
          "name": "",
          "type": "uint256"
        }
      ],
      "stateMutability": "view",
      "type": "function"
    },
    {
      "inputs": [],
      "name": "renounceOwnership",
      "outputs": [],
      "stateMutability": "nonpayable",
      "type": "function"
    },
    {
      "inputs": [
        {
          "internalType": "address",
          "name": "_admin",
          "type": "address"
        }
      ],
      "name": "setAdmin",
      "outputs": [],
      "stateMutability": "nonpayable",
      "type": "function"
    },
    {
      "inputs": [
        {
          "internalType": "uint256",
          "name": "_callFee",
          "type": "uint256"
        }
      ],
      "name": "setCallFee",
      "outputs": [],
      "stateMutability": "nonpayable",
      "type": "function"
    },
    {
      "inputs": [
        {
          "internalType": "uint256",
          "name": "_performanceFee",
          "type": "uint256"
        }
      ],
      "name": "setPerformanceFee",
      "outputs": [],
      "stateMutability": "nonpayable",
      "type": "function"
    },
    {
      "inputs": [
        {
          "internalType": "address",
          "name": "_treasury",
          "type": "address"
        }
      ],
      "name": "setTreasury",
      "outputs": [],
      "stateMutability": "nonpayable",
      "type": "function"
    },
    {
      "inputs": [
        {
          "internalType": "uint256",
          "name": "_withdrawFee",
          "type": "uint256"
        }
      ],
      "name": "setWithdrawFee",
      "outputs": [],
      "stateMutability": "nonpayable",
      "type": "function"
    },
    {
      "inputs": [
        {
          "internalType": "uint256",
          "name": "_withdrawFeePeriod",
          "type": "uint256"
        }
      ],
      "name": "setWithdrawFeePeriod",
      "outputs": [],
      "stateMutability": "nonpayable",
      "type": "function"
    },
    {
      "inputs": [],
      "name": "token",
      "outputs": [
        {
          "internalType": "contract IERC20",
          "name": "",
          "type": "address"
        }
      ],
      "stateMutability": "view",
      "type": "function"
    },
    {
      "inputs": [],
      "name": "totalShares",
      "outputs": [
        {
          "internalType": "uint256",
          "name": "",
          "type": "uint256"
        }
      ],
      "stateMutability": "view",
      "type": "function"
    },
    {
      "inputs": [
        {
          "internalType": "address",
          "name": "newOwner",
          "type": "address"
        }
      ],
      "name": "transferOwnership",
      "outputs": [],
      "stateMutability": "nonpayable",
      "type": "function"
    },
    {
      "inputs": [],
      "name": "treasury",
      "outputs": [
        {
          "internalType": "address",
          "name": "",
          "type": "address"
        }
      ],
      "stateMutability": "view",
      "type": "function"
    },
    {
      "inputs": [],
      "name": "unpause",
      "outputs": [],
      "stateMutability": "nonpayable",
      "type": "function"
    },
    {
      "inputs": [
        {
          "internalType": "address",
          "name": "",
          "type": "address"
        }
      ],
      "name": "userInfo",
      "outputs": [
        {
          "internalType": "uint256",
          "name": "shares",
          "type": "uint256"
        },
        {
          "internalType": "uint256",
          "name": "lastDepositedTime",
          "type": "uint256"
        },
        {
          "internalType": "uint256",
          "name": "cronaAtLastUserAction",
          "type": "uint256"
        },
        {
          "internalType": "uint256",
          "name": "lastUserActionTime",
          "type": "uint256"
        }
      ],
      "stateMutability": "view",
      "type": "function"
    },
    {
      "inputs": [
        {
          "internalType": "uint256",
          "name": "_shares",
          "type": "uint256"
        }
      ],
      "name": "withdraw",
      "outputs": [],
      "stateMutability": "nonpayable",
      "type": "function"
    },
    {
      "inputs": [],
      "name": "withdrawAll",
      "outputs": [],
      "stateMutability": "nonpayable",
      "type": "function"
    },
    {
      "inputs": [],
      "name": "withdrawFee",
      "outputs": [
        {
          "internalType": "uint256",
          "name": "",
          "type": "uint256"
        }
      ],
      "stateMutability": "view",
      "type": "function"
    },
    {
      "inputs": [],
      "name": "withdrawFeePeriod",
      "outputs": [
        {
          "internalType": "uint256",
          "name": "",
          "type": "uint256"
        }
      ],
      "stateMutability": "view",
      "type": "function"
    }
  ],
  "bytecode": "0x60c060405261012b6006556019600755600a6008556203f4806009553480156200002857600080fd5b5060405162002c2338038062002c23833981810160405260808110156200004e57600080fd5b50805160208201516040830151606090930151919290916000620000716200013a565b600080546001600160a01b0319166001600160a01b0383169081178255604051929350917f8be0079c531659141344cd1fd0a4f28419497f9722a3daafe3b4186f6b6457e0908290a3506000805460ff60a01b191690556001600160601b0319606085811b821660805284901b1660a052600480546001600160a01b038481166001600160a01b031992831617909255600580548484169216919091179055620001309085168460001962001bf06200013e602090811b91909117901c565b5050505062000551565b3390565b801580620001c8575060408051636eb1769f60e11b81523060048201526001600160a01b03848116602483015291519185169163dd62ed3e91604480820192602092909190829003018186803b1580156200019857600080fd5b505afa158015620001ad573d6000803e3d6000fd5b505050506040513d6020811015620001c457600080fd5b5051155b620002055760405162461bcd60e51b815260040180806020018281038252603681526020018062002bed6036913960400191505060405180910390fd5b604080516001600160a01b038416602482015260448082018490528251808303909101815260649091019091526020810180516001600160e01b0390811663095ea7b360e01b179091526200025d9185916200026216565b505050565b6060620002be826040518060400160405280602081526020017f5361666545524332303a206c6f772d6c6576656c2063616c6c206661696c6564815250856001600160a01b03166200031e60201b62001d08179092919060201c565b8051909150156200025d57808060200190516020811015620002df57600080fd5b50516200025d5760405162461bcd60e51b815260040180806020018281038252602a81526020018062002bc3602a913960400191505060405180910390fd5b60606200032f848460008562000339565b90505b9392505050565b6060824710156200037c5760405162461bcd60e51b815260040180806020018281038252602681526020018062002b9d6026913960400191505060405180910390fd5b6200038785620004a1565b620003d9576040805162461bcd60e51b815260206004820152601d60248201527f416464726573733a2063616c6c20746f206e6f6e2d636f6e7472616374000000604482015290519081900360640190fd5b60006060866001600160a01b031685876040518082805190602001908083835b602083106200041a5780518252601f199092019160209182019101620003f9565b6001836020036101000a03801982511681845116808217855250505050505090500191505060006040518083038185875af1925050503d80600081146200047e576040519150601f19603f3d011682016040523d82523d6000602084013e62000483565b606091505b50909250905062000496828286620004a7565b979650505050505050565b3b151590565b60608315620004b857508162000332565b825115620004c95782518084602001fd5b8160405162461bcd60e51b81526004018080602001828103825283818151815260200191508051906020019080838360005b8381101562000515578181015183820152602001620004fb565b50505050905090810190601f168015620005435780820380516001836020036101000a031916815260200191505b509250505060405180910390fd5b60805160601c60a05160601c6125d7620005c6600039806107ec52806109cc5280610c4e5280610e84528061118252806117e15280611baa5280611fb05250806108e452806109605280610d085280610d5d5280610dd3528061124a528061168e52806118af5280611bce52506125d76000f3fe608060405234801561001057600080fd5b50600436106102325760003560e01c80638456cb5911610130578063d4b0de2f116100b8578063f0f442601161007c578063f0f4426014610479578063f2fde38b1461049f578063f851a440146104c5578063fb1db278146104cd578063fc0c546a146104d557610232565b8063d4b0de2f146102bf578063db2e21bc1461043b578063def68a9c14610443578063df10b4e614610469578063e941fa781461047157610232565b806390321e1a116100ff57806390321e1a146103e9578063b60f0531146103f1578063b6ac642a146103f9578063b6b55f2514610416578063bdca91651461043357610232565b80638456cb59146103c9578063853828b6146103d157806387788782146103d95780638da5cb5b146103e157610232565b80634641257d116101be578063704b6c0211610182578063704b6c021461036e57806370897b2314610394578063715018a6146103b1578063722713f7146103b957806377c7b8fc146103c157610232565b80634641257d1461031657806348a0d7541461031e5780635c975abb146103265780635dde09ea1461034257806361d027b31461034a57610232565b80632cfc5f01116102055780632cfc5f01146102d95780632e1a7d4d146102e157806338f4290f146102fe5780633a98ef39146103065780633f4ba83a1461030e57610232565b80631959a002146102375780631efac1b81461028357806326465826146102a25780632ad5a53f146102bf575b600080fd5b61025d6004803603602081101561024d57600080fd5b50356001600160a01b03166104dd565b604080519485526020850193909352838301919091526060830152519081900360800190f35b6102a06004803603602081101561029957600080fd5b5035610505565b005b6102a0600480360360208110156102b857600080fd5b5035610599565b6102c761062b565b60408051918252519081900360200190f35b6102c7610630565b6102a0600480360360208110156102f757600080fd5b5035610637565b6102c76109c7565b6102c7610a86565b6102a0610a8c565b6102a0610b5c565b6102c7610dcf565b61032e610e6f565b604080519115158252519081900360200190f35b6102c7610e7f565b610352610f57565b604080516001600160a01b039092168252519081900360200190f35b6102a06004803603602081101561038457600080fd5b50356001600160a01b0316610f66565b6102a0600480360360208110156103aa57600080fd5b503561103e565b6102a06110d1565b6102c761117d565b6102c76112c3565b6102a06112fd565b6102a06113ca565b6102c7611488565b61035261148e565b6102c761149d565b6102c76114a3565b6102a06004803603602081101561040f57600080fd5b50356114a9565b6102a06004803603602081101561042c57600080fd5b503561153b565b6102c761178c565b6102a0611792565b6102a06004803603602081101561045957600080fd5b50356001600160a01b0316611860565b6102c76119b3565b6102c76119b9565b6102a06004803603602081101561048f57600080fd5b50356001600160a01b03166119bf565b6102a0600480360360208110156104b557600080fd5b50356001600160a01b0316611a97565b610352611b99565b610352611ba8565b610352611bcc565b6001602081905260009182526040909120805491810154600282015460039092015490919084565b6004546001600160a01b03163314610552576040805162461bcd60e51b815260206004820152600b60248201526a61646d696e3a207775743f60a81b604482015290519081900360640190fd5b6203f4808111156105945760405162461bcd60e51b815260040180806020018281038252603d8152602001806124d5603d913960400191505060405180910390fd5b600955565b6004546001600160a01b031633146105e6576040805162461bcd60e51b815260206004820152600b60248201526a61646d696e3a207775743f60a81b604482015290519081900360640190fd5b60648111156106265760405162461bcd60e51b81526004018080602001828103825260288152602001806124366028913960400191505060405180910390fd5b600755565b606481565b6203f48081565b61064033611d21565b15610689576040805162461bcd60e51b815260206004820152601460248201527318dbdb9d1c9858dd081b9bdd08185b1b1bddd95960621b604482015290519081900360640190fd5b3332146106da576040805162461bcd60e51b815260206004820152601a6024820152791c1c9bde1e4818dbdb9d1c9858dd081b9bdd08185b1b1bddd95960321b604482015290519081900360640190fd5b33600090815260016020526040902081610731576040805162461bcd60e51b81526020600482015260136024820152724e6f7468696e6720746f20776974686472617760681b604482015290519081900360640190fd5b8054821115610787576040805162461bcd60e51b815260206004820152601f60248201527f576974686472617720616d6f756e7420657863656564732062616c616e636500604482015290519081900360640190fd5b60006107a76002546107a18561079b61117d565b90611d27565b90611d89565b82549091506107b69084611df0565b82556002546107c59084611df0565b60025560006107d2610dcf565b90508181101561089b5760006107e88383611df0565b90507f00000000000000000000000000000000000000000000000000000000000000006001600160a01b0316631058d281826040518263ffffffff1660e01b815260040180828152602001915050600060405180830381600087803b15801561085057600080fd5b505af1158015610864573d6000803e3d6000fd5b505050506000610872610dcf565b905060006108808285611df0565b905082811015610897576108948482611e4d565b94505b5050505b60095460018401546108ac91611e4d565b42101561091b5760006108d06127106107a160085486611d2790919063ffffffff16565b60055490915061090d906001600160a01b037f00000000000000000000000000000000000000000000000000000000000000008116911683611ea7565b6109178382611df0565b9250505b8254156109455761093b6002546107a161093361117d565b865490611d27565b600284015561094d565b600060028401555b4260038401556109876001600160a01b037f0000000000000000000000000000000000000000000000000000000000000000163384611ea7565b6040805183815260208101869052815133927ff279e6a1f5e320cca91135676d9cb6e44ca8a08c0b88342bcdb1144f6511b568928290030190a250505050565b6000807f00000000000000000000000000000000000000000000000000000000000000006001600160a01b0316637b270bdd6000306040518363ffffffff1660e01b815260040180838152602001826001600160a01b031681526020019250505060206040518083038186803b158015610a4057600080fd5b505afa158015610a54573d6000803e3d6000fd5b505050506040513d6020811015610a6a57600080fd5b50519050610a80610a79610dcf565b8290611e4d565b91505090565b60025481565b6004546001600160a01b03163314610ad9576040805162461bcd60e51b815260206004820152600b60248201526a61646d696e3a207775743f60a81b604482015290519081900360640190fd5b610ae1610e6f565b610b29576040805162461bcd60e51b815260206004820152601460248201527314185d5cd8589b194e881b9bdd081c185d5cd95960621b604482015290519081900360640190fd5b610b31611ef9565b6040517f7805862f689e2f13df9f062ff482ad3ad112aca9e0847911ed832e158c525b3390600090a1565b610b6533611d21565b15610bae576040805162461bcd60e51b815260206004820152601460248201527318dbdb9d1c9858dd081b9bdd08185b1b1bddd95960621b604482015290519081900360640190fd5b333214610bff576040805162461bcd60e51b815260206004820152601a6024820152791c1c9bde1e4818dbdb9d1c9858dd081b9bdd08185b1b1bddd95960321b604482015290519081900360640190fd5b610c07610e6f565b15610c4c576040805162461bcd60e51b815260206004820152601060248201526f14185d5cd8589b194e881c185d5cd95960821b604482015290519081900360640190fd5b7f00000000000000000000000000000000000000000000000000000000000000006001600160a01b0316631058d28160006040518263ffffffff1660e01b815260040180828152602001915050600060405180830381600087803b158015610cb357600080fd5b505af1158015610cc7573d6000803e3d6000fd5b505050506000610cd5610dcf565b90506000610cf46127106107a160065485611d2790919063ffffffff16565b600554909150610d31906001600160a01b037f00000000000000000000000000000000000000000000000000000000000000008116911683611ea7565b6000610d4e6127106107a160075486611d2790919063ffffffff16565b9050610d846001600160a01b037f0000000000000000000000000000000000000000000000000000000000000000163383611ea7565b610d8c611f9c565b426003556040805183815260208101839052815133927f71bab65ced2e5750775a0613be067df48ef06cf92a496ebf7663ae0660924954928290030190a2505050565b60007f00000000000000000000000000000000000000000000000000000000000000006001600160a01b03166370a08231306040518263ffffffff1660e01b815260040180826001600160a01b0316815260200191505060206040518083038186803b158015610e3e57600080fd5b505afa158015610e52573d6000803e3d6000fd5b505050506040513d6020811015610e6857600080fd5b5051905090565b600054600160a01b900460ff1690565b6000807f00000000000000000000000000000000000000000000000000000000000000006001600160a01b0316637b270bdd6000306040518363ffffffff1660e01b815260040180838152602001826001600160a01b031681526020019250505060206040518083038186803b158015610ef857600080fd5b505afa158015610f0c573d6000803e3d6000fd5b505050506040513d6020811015610f2257600080fd5b50519050610f31610a79610dcf565b90506000610f506127106107a160075485611d2790919063ffffffff16565b9250505090565b6005546001600160a01b031681565b610f6e612030565b6001600160a01b0316610f7f61148e565b6001600160a01b031614610fc8576040805162461bcd60e51b815260206004820181905260248201526000805160206124b5833981519152604482015290519081900360640190fd5b6001600160a01b03811661101c576040805162461bcd60e51b815260206004820152601660248201527543616e6e6f74206265207a65726f206164647265737360501b604482015290519081900360640190fd5b600480546001600160a01b0319166001600160a01b0392909216919091179055565b6004546001600160a01b0316331461108b576040805162461bcd60e51b815260206004820152600b60248201526a61646d696e3a207775743f60a81b604482015290519081900360640190fd5b6101f48111156110cc5760405162461bcd60e51b815260040180806020018281038252603681526020018061245e6036913960400191505060405180910390fd5b600655565b6110d9612030565b6001600160a01b03166110ea61148e565b6001600160a01b031614611133576040805162461bcd60e51b815260206004820181905260248201526000805160206124b5833981519152604482015290519081900360640190fd5b600080546040516001600160a01b03909116907f8be0079c531659141344cd1fd0a4f28419497f9722a3daafe3b4186f6b6457e0908390a3600080546001600160a01b0319169055565b6000807f00000000000000000000000000000000000000000000000000000000000000006001600160a01b03166393f1a40b6000306040518363ffffffff1660e01b815260040180838152602001826001600160a01b0316815260200192505050604080518083038186803b1580156111f557600080fd5b505afa158015611209573d6000803e3d6000fd5b505050506040513d604081101561121f57600080fd5b5051604080516370a0823160e01b81523060048201529051919250610a809183916001600160a01b037f000000000000000000000000000000000000000000000000000000000000000016916370a0823191602480820192602092909190829003018186803b15801561129157600080fd5b505afa1580156112a5573d6000803e3d6000fd5b505050506040513d60208110156112bb57600080fd5b505190611e4d565b60006002546000146112ee576112e96002546107a1670de0b6b3a764000061079b61117d565b6112f8565b670de0b6b3a76400005b905090565b6004546001600160a01b0316331461134a576040805162461bcd60e51b815260206004820152600b60248201526a61646d696e3a207775743f60a81b604482015290519081900360640190fd5b611352610e6f565b15611397576040805162461bcd60e51b815260206004820152601060248201526f14185d5cd8589b194e881c185d5cd95960821b604482015290519081900360640190fd5b61139f612034565b6040517f6985a02210a168e66602d3235cb6db0e70f92b3ba4d376a33c0f3d9434bff62590600090a1565b6113d333611d21565b1561141c576040805162461bcd60e51b815260206004820152601460248201527318dbdb9d1c9858dd081b9bdd08185b1b1bddd95960621b604482015290519081900360640190fd5b33321461146d576040805162461bcd60e51b815260206004820152601a6024820152791c1c9bde1e4818dbdb9d1c9858dd081b9bdd08185b1b1bddd95960321b604482015290519081900360640190fd5b3360009081526001602052604090205461148690610637565b565b60065481565b6000546001600160a01b031690565b60075481565b60035481565b6004546001600160a01b031633146114f6576040805162461bcd60e51b815260206004820152600b60248201526a61646d696e3a207775743f60a81b604482015290519081900360640190fd5b60648111156115365760405162461bcd60e51b815260040180806020018281038252603081526020018061253c6030913960400191505060405180910390fd5b600855565b611543610e6f565b15611588576040805162461bcd60e51b815260206004820152601060248201526f14185d5cd8589b194e881c185d5cd95960821b604482015290519081900360640190fd5b61159133611d21565b156115da576040805162461bcd60e51b815260206004820152601460248201527318dbdb9d1c9858dd081b9bdd08185b1b1bddd95960621b604482015290519081900360640190fd5b33321461162b576040805162461bcd60e51b815260206004820152601a6024820152791c1c9bde1e4818dbdb9d1c9858dd081b9bdd08185b1b1bddd95960321b604482015290519081900360640190fd5b60008111611675576040805162461bcd60e51b8152602060048201526012602482015271139bdd1a1a5b99c81d1bc819195c1bdcda5d60721b604482015290519081900360640190fd5b600061167f61117d565b90506116b66001600160a01b037f0000000000000000000000000000000000000000000000000000000000000000163330856120bd565b60006002546000146116e2576116db826107a160025486611d2790919063ffffffff16565b90506116e5565b50815b33600090815260016020526040902080546117009083611e4d565b81554260018201556002546117159083611e4d565b6002819055611731906107a161172961117d565b845490611d27565b6002820155426003820155611744611f9c565b60408051858152602081018490524281830152905133917f36af321ec8d3c75236829c5317affd40ddb308863a1236d2d277a4025cccee1e919081900360600190a250505050565b6101f481565b6004546001600160a01b031633146117df576040805162461bcd60e51b815260206004820152600b60248201526a61646d696e3a207775743f60a81b604482015290519081900360640190fd5b7f00000000000000000000000000000000000000000000000000000000000000006001600160a01b0316635312ea8e60006040518263ffffffff1660e01b815260040180828152602001915050600060405180830381600087803b15801561184657600080fd5b505af115801561185a573d6000803e3d6000fd5b50505050565b6004546001600160a01b031633146118ad576040805162461bcd60e51b815260206004820152600b60248201526a61646d696e3a207775743f60a81b604482015290519081900360640190fd5b7f00000000000000000000000000000000000000000000000000000000000000006001600160a01b0316816001600160a01b0316141561191e5760405162461bcd60e51b81526004018080602001828103825260258152602001806123eb6025913960400191505060405180910390fd5b6000816001600160a01b03166370a08231306040518263ffffffff1660e01b815260040180826001600160a01b0316815260200191505060206040518083038186803b15801561196d57600080fd5b505afa158015611981573d6000803e3d6000fd5b505050506040513d602081101561199757600080fd5b505190506119af6001600160a01b0383163383611ea7565b5050565b60095481565b60085481565b6119c7612030565b6001600160a01b03166119d861148e565b6001600160a01b031614611a21576040805162461bcd60e51b815260206004820181905260248201526000805160206124b5833981519152604482015290519081900360640190fd5b6001600160a01b038116611a75576040805162461bcd60e51b815260206004820152601660248201527543616e6e6f74206265207a65726f206164647265737360501b604482015290519081900360640190fd5b600580546001600160a01b0319166001600160a01b0392909216919091179055565b611a9f612030565b6001600160a01b0316611ab061148e565b6001600160a01b031614611af9576040805162461bcd60e51b815260206004820181905260248201526000805160206124b5833981519152604482015290519081900360640190fd5b6001600160a01b038116611b3e5760405162461bcd60e51b81526004018080602001828103825260268152602001806123c56026913960400191505060405180910390fd5b600080546040516001600160a01b03808516939216917f8be0079c531659141344cd1fd0a4f28419497f9722a3daafe3b4186f6b6457e091a3600080546001600160a01b0319166001600160a01b0392909216919091179055565b6004546001600160a01b031681565b7f000000000000000000000000000000000000000000000000000000000000000081565b7f000000000000000000000000000000000000000000000000000000000000000081565b801580611c76575060408051636eb1769f60e11b81523060048201526001600160a01b03848116602483015291519185169163dd62ed3e91604480820192602092909190829003018186803b158015611c4857600080fd5b505afa158015611c5c573d6000803e3d6000fd5b505050506040513d6020811015611c7257600080fd5b5051155b611cb15760405162461bcd60e51b815260040180806020018281038252603681526020018061256c6036913960400191505060405180910390fd5b604080516001600160a01b038416602482015260448082018490528251808303909101815260649091019091526020810180516001600160e01b031663095ea7b360e01b179052611d03908490612113565b505050565b6060611d1784846000856121c4565b90505b9392505050565b3b151590565b600082611d3657506000611d83565b82820282848281611d4357fe5b0414611d805760405162461bcd60e51b81526004018080602001828103825260218152602001806124946021913960400191505060405180910390fd5b90505b92915050565b6000808211611ddf576040805162461bcd60e51b815260206004820152601a60248201527f536166654d6174683a206469766973696f6e206279207a65726f000000000000604482015290519081900360640190fd5b818381611de857fe5b049392505050565b600082821115611e47576040805162461bcd60e51b815260206004820152601e60248201527f536166654d6174683a207375627472616374696f6e206f766572666c6f770000604482015290519081900360640190fd5b50900390565b600082820183811015611d80576040805162461bcd60e51b815260206004820152601b60248201527f536166654d6174683a206164646974696f6e206f766572666c6f770000000000604482015290519081900360640190fd5b604080516001600160a01b038416602482015260448082018490528251808303909101815260649091019091526020810180516001600160e01b031663a9059cbb60e01b179052611d03908490612113565b611f01610e6f565b611f49576040805162461bcd60e51b815260206004820152601460248201527314185d5cd8589b194e881b9bdd081c185d5cd95960621b604482015290519081900360640190fd5b6000805460ff60a01b191690557f5db9ee0a495bf2e6ff9c91a7834c1ba4fdd244a5e8aa4e537bd38aeae4b073aa611f7f612030565b604080516001600160a01b039092168252519081900360200190a1565b6000611fa6610dcf565b9050801561202d577f00000000000000000000000000000000000000000000000000000000000000006001600160a01b03166341441d3b826040518263ffffffff1660e01b815260040180828152602001915050600060405180830381600087803b15801561201457600080fd5b505af1158015612028573d6000803e3d6000fd5b505050505b50565b3390565b61203c610e6f565b15612081576040805162461bcd60e51b815260206004820152601060248201526f14185d5cd8589b194e881c185d5cd95960821b604482015290519081900360640190fd5b6000805460ff60a01b1916600160a01b1790557f62e78cea01bee320cd4e420270b5ea74000d11b0c9f74754ebdbfc544b05a258611f7f612030565b604080516001600160a01b0380861660248301528416604482015260648082018490528251808303909101815260849091019091526020810180516001600160e01b03166323b872dd60e01b17905261185a9085905b6060612168826040518060400160405280602081526020017f5361666545524332303a206c6f772d6c6576656c2063616c6c206661696c6564815250856001600160a01b0316611d089092919063ffffffff16565b805190915015611d035780806020019051602081101561218757600080fd5b5051611d035760405162461bcd60e51b815260040180806020018281038252602a815260200180612512602a913960400191505060405180910390fd5b6060824710156122055760405162461bcd60e51b81526004018080602001828103825260268152602001806124106026913960400191505060405180910390fd5b61220e85611d21565b61225f576040805162461bcd60e51b815260206004820152601d60248201527f416464726573733a2063616c6c20746f206e6f6e2d636f6e7472616374000000604482015290519081900360640190fd5b60006060866001600160a01b031685876040518082805190602001908083835b6020831061229e5780518252601f19909201916020918201910161227f565b6001836020036101000a03801982511681845116808217855250505050505090500191505060006040518083038185875af1925050503d8060008114612300576040519150601f19603f3d011682016040523d82523d6000602084013e612305565b606091505b5091509150612315828286612320565b979650505050505050565b6060831561232f575081611d1a565b82511561233f5782518084602001fd5b8160405162461bcd60e51b81526004018080602001828103825283818151815260200191508051906020019080838360005b83811015612389578181015183820152602001612371565b50505050905090810190601f1680156123b65780820380516001836020036101000a031916815260200191505b509250505060405180910390fdfe4f776e61626c653a206e6577206f776e657220697320746865207a65726f2061646472657373546f6b656e2063616e6e6f742062652073616d65206173206465706f73697420746f6b656e416464726573733a20696e73756666696369656e742062616c616e636520666f722063616c6c63616c6c4665652063616e6e6f74206265206d6f7265207468616e204d41585f43414c4c5f464545706572666f726d616e63654665652063616e6e6f74206265206d6f7265207468616e204d41585f504552464f524d414e43455f464545536166654d6174683a206d756c7469706c69636174696f6e206f766572666c6f774f776e61626c653a2063616c6c6572206973206e6f7420746865206f776e65727769746864726177466565506572696f642063616e6e6f74206265206d6f7265207468616e204d41585f57495448445241575f4645455f504552494f445361666545524332303a204552433230206f7065726174696f6e20646964206e6f74207375636365656477697468647261774665652063616e6e6f74206265206d6f7265207468616e204d41585f57495448445241575f4645455361666545524332303a20617070726f76652066726f6d206e6f6e2d7a65726f20746f206e6f6e2d7a65726f20616c6c6f77616e6365a2646970667358221220cb318be736d1adec85e484722a577413e9e7e2d4a2d34be68e2e9d28451299fd64736f6c634300060c0033416464726573733a20696e73756666696369656e742062616c616e636520666f722063616c6c5361666545524332303a204552433230206f7065726174696f6e20646964206e6f7420737563636565645361666545524332303a20617070726f76652066726f6d206e6f6e2d7a65726f20746f206e6f6e2d7a65726f20616c6c6f77616e6365",
  "linkReferences": {},
  "deployedLinkReferences": {}
}